{
  "_format": "hh-sol-artifact-1",
  "contractName": "PepesOfTheGalaxyNFT",
  "sourceName": "contracts/PepesOfTheGalaxyNFT.sol",
  "abi": [
    {
      "inputs": [
        {
          "internalType": "address payable",
          "name": "_gnosisMultisigWallet",
          "type": "address"
        }
      ],
      "stateMutability": "nonpayable",
      "type": "constructor"
    },
    {
      "anonymous": false,
      "inputs": [
        {
          "indexed": true,
          "internalType": "address",
          "name": "owner",
          "type": "address"
        },
        {
          "indexed": true,
          "internalType": "address",
          "name": "approved",
          "type": "address"
        },
        {
          "indexed": true,
          "internalType": "uint256",
          "name": "tokenId",
          "type": "uint256"
        }
      ],
      "name": "Approval",
      "type": "event"
    },
    {
      "anonymous": false,
      "inputs": [
        {
          "indexed": true,
          "internalType": "address",
          "name": "owner",
          "type": "address"
        },
        {
          "indexed": true,
          "internalType": "address",
          "name": "operator",
          "type": "address"
        },
        {
          "indexed": false,
          "internalType": "bool",
          "name": "approved",
          "type": "bool"
        }
      ],
      "name": "ApprovalForAll",
      "type": "event"
    },
    {
      "anonymous": false,
      "inputs": [
        {
          "indexed": false,
          "internalType": "uint256",
          "name": "_fromTokenId",
          "type": "uint256"
        },
        {
          "indexed": false,
          "internalType": "uint256",
          "name": "_toTokenId",
          "type": "uint256"
        }
      ],
      "name": "BatchMetadataUpdate",
      "type": "event"
    },
    {
      "anonymous": false,
      "inputs": [
        {
          "indexed": false,
          "internalType": "uint256",
          "name": "_tokenId",
          "type": "uint256"
        }
      ],
      "name": "MetadataUpdate",
      "type": "event"
    },
    {
      "anonymous": false,
      "inputs": [
        {
          "indexed": true,
          "internalType": "uint256",
          "name": "pepeId",
          "type": "uint256"
        },
        {
          "indexed": true,
          "internalType": "address",
          "name": "player",
          "type": "address"
        },
        {
          "indexed": false,
          "internalType": "string",
          "name": "tokenURI",
          "type": "string"
        }
      ],
      "name": "NewPepe",
      "type": "event"
    },
    {
      "anonymous": false,
      "inputs": [
        {
          "indexed": true,
          "internalType": "bytes32",
          "name": "role",
          "type": "bytes32"
        },
        {
          "indexed": true,
          "internalType": "bytes32",
          "name": "previousAdminRole",
          "type": "bytes32"
        },
        {
          "indexed": true,
          "internalType": "bytes32",
          "name": "newAdminRole",
          "type": "bytes32"
        }
      ],
      "name": "RoleAdminChanged",
      "type": "event"
    },
    {
      "anonymous": false,
      "inputs": [
        {
          "indexed": true,
          "internalType": "bytes32",
          "name": "role",
          "type": "bytes32"
        },
        {
          "indexed": true,
          "internalType": "address",
          "name": "account",
          "type": "address"
        },
        {
          "indexed": true,
          "internalType": "address",
          "name": "sender",
          "type": "address"
        }
      ],
      "name": "RoleGranted",
      "type": "event"
    },
    {
      "anonymous": false,
      "inputs": [
        {
          "indexed": true,
          "internalType": "bytes32",
          "name": "role",
          "type": "bytes32"
        },
        {
          "indexed": true,
          "internalType": "address",
          "name": "account",
          "type": "address"
        },
        {
          "indexed": true,
          "internalType": "address",
          "name": "sender",
          "type": "address"
        }
      ],
      "name": "RoleRevoked",
      "type": "event"
    },
    {
      "anonymous": false,
      "inputs": [
        {
          "indexed": true,
          "internalType": "address",
          "name": "from",
          "type": "address"
        },
        {
          "indexed": true,
          "internalType": "address",
          "name": "to",
          "type": "address"
        },
        {
          "indexed": true,
          "internalType": "uint256",
          "name": "tokenId",
          "type": "uint256"
        }
      ],
      "name": "Transfer",
      "type": "event"
    },
    {
      "inputs": [],
      "name": "DEFAULT_ADMIN_ROLE",
      "outputs": [
        {
          "internalType": "bytes32",
          "name": "",
          "type": "bytes32"
        }
      ],
      "stateMutability": "view",
      "type": "function"
    },
    {
      "inputs": [],
      "name": "EXPERIENCE_UPDATER_ROLE",
      "outputs": [
        {
          "internalType": "bytes32",
          "name": "",
          "type": "bytes32"
        }
      ],
      "stateMutability": "view",
      "type": "function"
    },
    {
      "inputs": [
        {
          "internalType": "uint256",
          "name": "_tokenId",
          "type": "uint256"
        },
        {
          "internalType": "uint256",
          "name": "experience",
          "type": "uint256"
        }
      ],
      "name": "addExperience",
      "outputs": [],
      "stateMutability": "nonpayable",
      "type": "function"
    },
    {
      "inputs": [
        {
          "internalType": "address",
          "name": "to",
          "type": "address"
        },
        {
          "internalType": "uint256",
          "name": "tokenId",
          "type": "uint256"
        }
      ],
      "name": "approve",
      "outputs": [],
      "stateMutability": "nonpayable",
      "type": "function"
    },
    {
      "inputs": [
        {
          "internalType": "address",
          "name": "owner",
          "type": "address"
        }
      ],
      "name": "balanceOf",
      "outputs": [
        {
          "internalType": "uint256",
          "name": "",
          "type": "uint256"
        }
      ],
      "stateMutability": "view",
      "type": "function"
    },
    {
      "inputs": [
        {
          "internalType": "uint256",
          "name": "tokenId",
          "type": "uint256"
        }
      ],
      "name": "getApproved",
      "outputs": [
        {
          "internalType": "address",
          "name": "",
          "type": "address"
        }
      ],
      "stateMutability": "view",
      "type": "function"
    },
    {
      "inputs": [
        {
          "internalType": "uint256",
          "name": "_tokenId",
          "type": "uint256"
        }
      ],
      "name": "getPepeAttributes",
      "outputs": [
        {
          "internalType": "uint256",
          "name": "appearance",
          "type": "uint256"
        },
        {
          "internalType": "uint256",
          "name": "accessories",
          "type": "uint256"
        },
        {
          "internalType": "uint256",
          "name": "experience",
          "type": "uint256"
        }
      ],
      "stateMutability": "view",
      "type": "function"
    },
    {
      "inputs": [
        {
          "internalType": "bytes32",
          "name": "role",
          "type": "bytes32"
        }
      ],
      "name": "getRoleAdmin",
      "outputs": [
        {
          "internalType": "bytes32",
          "name": "",
          "type": "bytes32"
        }
      ],
      "stateMutability": "view",
      "type": "function"
    },
    {
      "inputs": [
        {
          "internalType": "bytes32",
          "name": "role",
          "type": "bytes32"
        },
        {
          "internalType": "address",
          "name": "account",
          "type": "address"
        }
      ],
      "name": "grantRole",
      "outputs": [],
      "stateMutability": "nonpayable",
      "type": "function"
    },
    {
      "inputs": [
        {
          "internalType": "bytes32",
          "name": "role",
          "type": "bytes32"
        },
        {
          "internalType": "address",
          "name": "account",
          "type": "address"
        }
      ],
      "name": "hasRole",
      "outputs": [
        {
          "internalType": "bool",
          "name": "",
          "type": "bool"
        }
      ],
      "stateMutability": "view",
      "type": "function"
    },
    {
      "inputs": [
        {
          "internalType": "address",
          "name": "owner",
          "type": "address"
        },
        {
          "internalType": "address",
          "name": "operator",
          "type": "address"
        }
      ],
      "name": "isApprovedForAll",
      "outputs": [
        {
          "internalType": "bool",
          "name": "",
          "type": "bool"
        }
      ],
      "stateMutability": "view",
      "type": "function"
    },
    {
      "inputs": [
        {
          "internalType": "address",
          "name": "player",
          "type": "address"
        },
        {
          "internalType": "string",
          "name": "tokenURI",
          "type": "string"
        },
        {
          "internalType": "uint256",
          "name": "appearance",
          "type": "uint256"
        },
        {
          "internalType": "uint256",
          "name": "accessories",
          "type": "uint256"
        }
      ],
      "name": "mintPepe",
      "outputs": [
        {
          "internalType": "uint256",
          "name": "",
          "type": "uint256"
        }
      ],
      "stateMutability": "payable",
      "type": "function"
    },
    {
      "inputs": [],
      "name": "name",
      "outputs": [
        {
          "internalType": "string",
          "name": "",
          "type": "string"
        }
      ],
      "stateMutability": "view",
      "type": "function"
    },
    {
      "inputs": [
        {
          "internalType": "uint256",
          "name": "tokenId",
          "type": "uint256"
        }
      ],
      "name": "ownerOf",
      "outputs": [
        {
          "internalType": "address",
          "name": "",
          "type": "address"
        }
      ],
      "stateMutability": "view",
      "type": "function"
    },
    {
      "inputs": [
        {
          "internalType": "bytes32",
          "name": "role",
          "type": "bytes32"
        },
        {
          "internalType": "address",
          "name": "account",
          "type": "address"
        }
      ],
      "name": "renounceRole",
      "outputs": [],
      "stateMutability": "nonpayable",
      "type": "function"
    },
    {
      "inputs": [
        {
          "internalType": "bytes32",
          "name": "role",
          "type": "bytes32"
        },
        {
          "internalType": "address",
          "name": "account",
          "type": "address"
        }
      ],
      "name": "revokeRole",
      "outputs": [],
      "stateMutability": "nonpayable",
      "type": "function"
    },
    {
      "inputs": [
        {
          "internalType": "address",
          "name": "from",
          "type": "address"
        },
        {
          "internalType": "address",
          "name": "to",
          "type": "address"
        },
        {
          "internalType": "uint256",
          "name": "tokenId",
          "type": "uint256"
        }
      ],
      "name": "safeTransferFrom",
      "outputs": [],
      "stateMutability": "nonpayable",
      "type": "function"
    },
    {
      "inputs": [
        {
          "internalType": "address",
          "name": "from",
          "type": "address"
        },
        {
          "internalType": "address",
          "name": "to",
          "type": "address"
        },
        {
          "internalType": "uint256",
          "name": "tokenId",
          "type": "uint256"
        },
        {
          "internalType": "bytes",
          "name": "data",
          "type": "bytes"
        }
      ],
      "name": "safeTransferFrom",
      "outputs": [],
      "stateMutability": "nonpayable",
      "type": "function"
    },
    {
      "inputs": [
        {
          "internalType": "address",
          "name": "operator",
          "type": "address"
        },
        {
          "internalType": "bool",
          "name": "approved",
          "type": "bool"
        }
      ],
      "name": "setApprovalForAll",
      "outputs": [],
      "stateMutability": "nonpayable",
      "type": "function"
    },
    {
      "inputs": [
        {
          "internalType": "bytes4",
          "name": "interfaceId",
          "type": "bytes4"
        }
      ],
      "name": "supportsInterface",
      "outputs": [
        {
          "internalType": "bool",
          "name": "",
          "type": "bool"
        }
      ],
      "stateMutability": "view",
      "type": "function"
    },
    {
      "inputs": [],
      "name": "symbol",
      "outputs": [
        {
          "internalType": "string",
          "name": "",
          "type": "string"
        }
      ],
      "stateMutability": "view",
      "type": "function"
    },
    {
      "inputs": [
        {
          "internalType": "uint256",
          "name": "",
          "type": "uint256"
        }
      ],
      "name": "tokenMetadata",
      "outputs": [
        {
          "internalType": "uint256",
          "name": "appearance",
          "type": "uint256"
        },
        {
          "internalType": "uint256",
          "name": "accessories",
          "type": "uint256"
        },
        {
          "internalType": "uint256",
          "name": "experience",
          "type": "uint256"
        }
      ],
      "stateMutability": "view",
      "type": "function"
    },
    {
      "inputs": [
        {
          "internalType": "uint256",
          "name": "tokenId",
          "type": "uint256"
        }
      ],
      "name": "tokenURI",
      "outputs": [
        {
          "internalType": "string",
          "name": "",
          "type": "string"
        }
      ],
      "stateMutability": "view",
      "type": "function"
    },
    {
      "inputs": [
        {
          "internalType": "address",
          "name": "from",
          "type": "address"
        },
        {
          "internalType": "address",
          "name": "to",
          "type": "address"
        },
        {
          "internalType": "uint256",
          "name": "tokenId",
          "type": "uint256"
        }
      ],
      "name": "transferFrom",
      "outputs": [],
      "stateMutability": "nonpayable",
      "type": "function"
    }
  ],
  "bytecode": "0x60806040523480156200001157600080fd5b506040516200229a3803806200229a83398101604081905262000034916200022a565b604080518082018252601081526f50657065734f6654686547616c61787960801b602080830191825283518085019094526004845263504f544760e01b908401528151919291620000889160009162000184565b5080516200009e90600190602084019062000184565b5050600980546001600160a01b0319166001600160a01b03841617905550620000c9600033620000d0565b5062000299565b620000dc8282620000e0565b5050565b60008281526007602090815260408083206001600160a01b038516845290915290205460ff16620000dc5760008281526007602090815260408083206001600160a01b03851684529091529020805460ff19166001179055620001403390565b6001600160a01b0316816001600160a01b0316837f2f8788117e7eff1d82e926ec794901d17c78024a50270940304540a733656f0d60405160405180910390a45050565b82805462000192906200025c565b90600052602060002090601f016020900481019282620001b6576000855562000201565b82601f10620001d157805160ff191683800117855562000201565b8280016001018555821562000201579182015b8281111562000201578251825591602001919060010190620001e4565b506200020f92915062000213565b5090565b5b808211156200020f576000815560010162000214565b6000602082840312156200023d57600080fd5b81516001600160a01b03811681146200025557600080fd5b9392505050565b600181811c908216806200027157607f821691505b602082108114156200029357634e487b7160e01b600052602260045260246000fd5b50919050565b611ff180620002a96000396000f3fe60806040526004361061014b5760003560e01c80636352211e116100b6578063a22cb4651161006f578063a22cb4651461040d578063b88d4fde1461042d578063c87b56dd1461044d578063d280427e1461046d578063d547741f146104a1578063e985e9c5146104c157600080fd5b80636352211e146103475780636914db601461036757806370a08231146103a357806391d14854146103c357806395d89b41146103e3578063a217fddf146103f857600080fd5b8063248a9ca311610108578063248a9ca3146102425780632f2ff15d1461027257806336568abe1461029257806342842e0e146102b257806351a15cad146102d25780635d240c581461032757600080fd5b806301ffc9a71461015057806306fdde0314610185578063081812fc146101a7578063095ea7b3146101df5780630fea15fd1461020157806323b872dd14610222575b600080fd5b34801561015c57600080fd5b5061017061016b366004611c4e565b61050a565b60405190151581526020015b60405180910390f35b34801561019157600080fd5b5061019a61051b565b60405161017c9190611db7565b3480156101b357600080fd5b506101c76101c2366004611c12565b6105ad565b6040516001600160a01b03909116815260200161017c565b3480156101eb57600080fd5b506101ff6101fa366004611be8565b6105d4565b005b61021461020f366004611b76565b6106ef565b60405190815260200161017c565b34801561022e57600080fd5b506101ff61023d366004611a82565b610837565b34801561024e57600080fd5b5061021461025d366004611c12565b60009081526007602052604090206001015490565b34801561027e57600080fd5b506101ff61028d366004611c2b565b610868565b34801561029e57600080fd5b506101ff6102ad366004611c2b565b61088d565b3480156102be57600080fd5b506101ff6102cd366004611a82565b61090b565b3480156102de57600080fd5b5061030c6102ed366004611c12565b6000908152600a60205260409020805460018201546002909201549092565b6040805193845260208401929092529082015260600161017c565b34801561033357600080fd5b506101ff610342366004611c88565b610926565b34801561035357600080fd5b506101c7610362366004611c12565b6109dc565b34801561037357600080fd5b5061030c610382366004611c12565b600a6020526000908152604090208054600182015460029092015490919083565b3480156103af57600080fd5b506102146103be366004611a34565b610a3c565b3480156103cf57600080fd5b506101706103de366004611c2b565b610ac2565b3480156103ef57600080fd5b5061019a610aed565b34801561040457600080fd5b50610214600081565b34801561041957600080fd5b506101ff610428366004611b3a565b610afc565b34801561043957600080fd5b506101ff610448366004611abe565b610b07565b34801561045957600080fd5b5061019a610468366004611c12565b610b3f565b34801561047957600080fd5b506102147f74474da40d78a9d31be9eeadd7713f3e472d110a04ea4c73c3d9d19c1755e1a481565b3480156104ad57600080fd5b506101ff6104bc366004611c2b565b610c48565b3480156104cd57600080fd5b506101706104dc366004611a4f565b6001600160a01b03918216600090815260056020908152604080832093909416825291909152205460ff1690565b600061051582610c6d565b92915050565b60606000805461052a90611f28565b80601f016020809104026020016040519081016040528092919081815260200182805461055690611f28565b80156105a35780601f10610578576101008083540402835291602001916105a3565b820191906000526020600020905b81548152906001019060200180831161058657829003601f168201915b5050505050905090565b60006105b882610c92565b506000908152600460205260409020546001600160a01b031690565b60006105df826109dc565b9050806001600160a01b0316836001600160a01b031614156106525760405162461bcd60e51b815260206004820152602160248201527f4552433732313a20617070726f76616c20746f2063757272656e74206f776e656044820152603960f91b60648201526084015b60405180910390fd5b336001600160a01b038216148061066e575061066e81336104dc565b6106e05760405162461bcd60e51b815260206004820152603d60248201527f4552433732313a20617070726f76652063616c6c6572206973206e6f7420746f60448201527f6b656e206f776e6572206f7220617070726f76656420666f7220616c6c0000006064820152608401610649565b6106ea8383610cf4565b505050565b60003466b1a2bc2ec50000146107475760405162461bcd60e51b815260206004820152601d60248201527f4d696e74696e672061205065706520636f737473203530204d415449430000006044820152606401610649565b610755600880546001019055565b600061076060085490565b905061076c8682610d62565b6107768186610eed565b6040805160608101825285815260208082018681526000838501818152868252600a9093528490209251835551600183015551600290910155516001600160a01b0387169082907f57127cee8a440dcd5e8345145f313bdf563774589c9c3aa2ecf23b62ac3f74d1906107ea908990611db7565b60405180910390a36009546040516001600160a01b03909116903480156108fc02916000818181858888f1935050505015801561082b573d6000803e3d6000fd5b5090505b949350505050565b6108413382610fbf565b61085d5760405162461bcd60e51b815260040161064990611dca565b6106ea83838361103d565b600082815260076020526040902060010154610883816111a1565b6106ea83836111ab565b6001600160a01b03811633146108fd5760405162461bcd60e51b815260206004820152602f60248201527f416363657373436f6e74726f6c3a2063616e206f6e6c792072656e6f756e636560448201526e103937b632b9903337b91039b2b63360891b6064820152608401610649565b6109078282611231565b5050565b6106ea83838360405180602001604052806000815250610b07565b6109507f74474da40d78a9d31be9eeadd7713f3e472d110a04ea4c73c3d9d19c1755e1a433610ac2565b6109af5760405162461bcd60e51b815260206004820152602a60248201527f43616c6c6572206973206e6f7420616c6c6f77656420746f2075706461746520604482015269657870657269656e636560b01b6064820152608401610649565b6000828152600a60205260408120600281018054919284926109d2908490611eae565b9091555050505050565b6000818152600260205260408120546001600160a01b0316806105155760405162461bcd60e51b8152602060048201526018602482015277115490cdcc8c4e881a5b9d985b1a59081d1bdad95b88125160421b6044820152606401610649565b60006001600160a01b038216610aa65760405162461bcd60e51b815260206004820152602960248201527f4552433732313a2061646472657373207a65726f206973206e6f7420612076616044820152683634b21037bbb732b960b91b6064820152608401610649565b506001600160a01b031660009081526003602052604090205490565b60009182526007602090815260408084206001600160a01b0393909316845291905290205460ff1690565b60606001805461052a90611f28565b610907338383611298565b610b113383610fbf565b610b2d5760405162461bcd60e51b815260040161064990611dca565b610b3984848484611367565b50505050565b6060610b4a82610c92565b60008281526006602052604081208054610b6390611f28565b80601f0160208091040260200160405190810160405280929190818152602001828054610b8f90611f28565b8015610bdc5780601f10610bb157610100808354040283529160200191610bdc565b820191906000526020600020905b815481529060010190602001808311610bbf57829003601f168201915b505050505090506000610bfa60408051602081019091526000815290565b9050805160001415610c0d575092915050565b815115610c3f578082604051602001610c27929190611cd6565b60405160208183030381529060405292505050919050565b61082f8461139a565b600082815260076020526040902060010154610c63816111a1565b6106ea8383611231565b60006001600160e01b03198216637965db0b60e01b148061051557506105158261140e565b6000818152600260205260409020546001600160a01b0316610cf15760405162461bcd60e51b8152602060048201526018602482015277115490cdcc8c4e881a5b9d985b1a59081d1bdad95b88125160421b6044820152606401610649565b50565b600081815260046020526040902080546001600160a01b0319166001600160a01b0384169081179091558190610d29826109dc565b6001600160a01b03167f8c5be1e5ebec7d5bd14f71427d1e84f3dd0314c0f7b2291e5b200ac8c7c3b92560405160405180910390a45050565b6001600160a01b038216610db85760405162461bcd60e51b815260206004820181905260248201527f4552433732313a206d696e7420746f20746865207a65726f20616464726573736044820152606401610649565b6000818152600260205260409020546001600160a01b031615610e1d5760405162461bcd60e51b815260206004820152601c60248201527f4552433732313a20746f6b656e20616c7265616479206d696e746564000000006044820152606401610649565b6000818152600260205260409020546001600160a01b031615610e825760405162461bcd60e51b815260206004820152601c60248201527f4552433732313a20746f6b656e20616c7265616479206d696e746564000000006044820152606401610649565b6001600160a01b038216600081815260036020908152604080832080546001019055848352600290915280822080546001600160a01b0319168417905551839291907fddf252ad1be2c89b69c2b068fc378daa952ba7f163c4a11628f55a4df523b3ef908290a45050565b6000828152600260205260409020546001600160a01b0316610f685760405162461bcd60e51b815260206004820152602e60248201527f45524337323155524953746f726167653a2055524920736574206f66206e6f6e60448201526d32bc34b9ba32b73a103a37b5b2b760911b6064820152608401610649565b60008281526006602090815260409091208251610f8792840190611909565b506040518281527ff8e1a15aba9398e019f0b49df1a4fde98ee17ae345cb5f6b5e2c27f5033e8ce79060200160405180910390a15050565b600080610fcb836109dc565b9050806001600160a01b0316846001600160a01b0316148061101257506001600160a01b0380821660009081526005602090815260408083209388168352929052205460ff165b8061082f5750836001600160a01b031661102b846105ad565b6001600160a01b031614949350505050565b826001600160a01b0316611050826109dc565b6001600160a01b0316146110765760405162461bcd60e51b815260040161064990611e69565b6001600160a01b0382166110d85760405162461bcd60e51b8152602060048201526024808201527f4552433732313a207472616e7366657220746f20746865207a65726f206164646044820152637265737360e01b6064820152608401610649565b826001600160a01b03166110eb826109dc565b6001600160a01b0316146111115760405162461bcd60e51b815260040161064990611e69565b600081815260046020908152604080832080546001600160a01b03199081169091556001600160a01b0387811680865260038552838620805460001901905590871680865283862080546001019055868652600290945282852080549092168417909155905184937fddf252ad1be2c89b69c2b068fc378daa952ba7f163c4a11628f55a4df523b3ef91a4505050565b610cf18133611433565b6111b58282610ac2565b6109075760008281526007602090815260408083206001600160a01b03851684529091529020805460ff191660011790556111ed3390565b6001600160a01b0316816001600160a01b0316837f2f8788117e7eff1d82e926ec794901d17c78024a50270940304540a733656f0d60405160405180910390a45050565b61123b8282610ac2565b156109075760008281526007602090815260408083206001600160a01b0385168085529252808320805460ff1916905551339285917ff6391f5c32d9c69d2a47ea670b442974b53935d1edc7fd64eb21e047a839171b9190a45050565b816001600160a01b0316836001600160a01b031614156112fa5760405162461bcd60e51b815260206004820152601960248201527f4552433732313a20617070726f766520746f2063616c6c6572000000000000006044820152606401610649565b6001600160a01b03838116600081815260056020908152604080832094871680845294825291829020805460ff191686151590811790915591519182527f17307eab39ab6107e8899845ad3d59bd9653f200f220920489ca2b5937696c31910160405180910390a3505050565b61137284848461103d565b61137e8484848461148c565b610b395760405162461bcd60e51b815260040161064990611e17565b60606113a582610c92565b60006113bc60408051602081019091526000815290565b905060008151116113dc5760405180602001604052806000815250611407565b806113e684611596565b6040516020016113f7929190611cd6565b6040516020818303038152906040525b9392505050565b60006001600160e01b03198216632483248360e11b1480610515575061051582611633565b61143d8282610ac2565b6109075761144a81611683565b611455836020611695565b604051602001611466929190611d05565b60408051601f198184030181529082905262461bcd60e51b825261064991600401611db7565b60006001600160a01b0384163b1561158e57604051630a85bd0160e11b81526001600160a01b0385169063150b7a02906114d0903390899088908890600401611d7a565b602060405180830381600087803b1580156114ea57600080fd5b505af192505050801561151a575060408051601f3d908101601f1916820190925261151791810190611c6b565b60015b611574573d808015611548576040519150601f19603f3d011682016040523d82523d6000602084013e61154d565b606091505b50805161156c5760405162461bcd60e51b815260040161064990611e17565b805181602001fd5b6001600160e01b031916630a85bd0160e11b14905061082f565b50600161082f565b606060006115a383611831565b600101905060008167ffffffffffffffff8111156115c3576115c3611f8f565b6040519080825280601f01601f1916602001820160405280156115ed576020820181803683370190505b5090508181016020015b600019016f181899199a1a9b1b9c1cb0b131b232b360811b600a86061a8153600a85049450846116265761162b565b6115f7565b509392505050565b60006001600160e01b031982166380ac58cd60e01b148061166457506001600160e01b03198216635b5e139f60e01b145b8061051557506301ffc9a760e01b6001600160e01b0319831614610515565b60606105156001600160a01b03831660145b606060006116a4836002611ec6565b6116af906002611eae565b67ffffffffffffffff8111156116c7576116c7611f8f565b6040519080825280601f01601f1916602001820160405280156116f1576020820181803683370190505b509050600360fc1b8160008151811061170c5761170c611f79565b60200101906001600160f81b031916908160001a905350600f60fb1b8160018151811061173b5761173b611f79565b60200101906001600160f81b031916908160001a905350600061175f846002611ec6565b61176a906001611eae565b90505b60018111156117e2576f181899199a1a9b1b9c1cb0b131b232b360811b85600f166010811061179e5761179e611f79565b1a60f81b8282815181106117b4576117b4611f79565b60200101906001600160f81b031916908160001a90535060049490941c936117db81611f11565b905061176d565b5083156114075760405162461bcd60e51b815260206004820181905260248201527f537472696e67733a20686578206c656e67746820696e73756666696369656e746044820152606401610649565b60008072184f03e93ff9f4daa797ed6e38ed64bf6a1f0160401b83106118705772184f03e93ff9f4daa797ed6e38ed64bf6a1f0160401b830492506040015b6d04ee2d6d415b85acef8100000000831061189c576d04ee2d6d415b85acef8100000000830492506020015b662386f26fc1000083106118ba57662386f26fc10000830492506010015b6305f5e10083106118d2576305f5e100830492506008015b61271083106118e657612710830492506004015b606483106118f8576064830492506002015b600a83106105155760010192915050565b82805461191590611f28565b90600052602060002090601f016020900481019282611937576000855561197d565b82601f1061195057805160ff191683800117855561197d565b8280016001018555821561197d579182015b8281111561197d578251825591602001919060010190611962565b5061198992915061198d565b5090565b5b80821115611989576000815560010161198e565b600067ffffffffffffffff808411156119bd576119bd611f8f565b604051601f8501601f19908116603f011681019082821181831017156119e5576119e5611f8f565b816040528093508581528686860111156119fe57600080fd5b858560208301376000602087830101525050509392505050565b80356001600160a01b0381168114611a2f57600080fd5b919050565b600060208284031215611a4657600080fd5b61140782611a18565b60008060408385031215611a6257600080fd5b611a6b83611a18565b9150611a7960208401611a18565b90509250929050565b600080600060608486031215611a9757600080fd5b611aa084611a18565b9250611aae60208501611a18565b9150604084013590509250925092565b60008060008060808587031215611ad457600080fd5b611add85611a18565b9350611aeb60208601611a18565b925060408501359150606085013567ffffffffffffffff811115611b0e57600080fd5b8501601f81018713611b1f57600080fd5b611b2e878235602084016119a2565b91505092959194509250565b60008060408385031215611b4d57600080fd5b611b5683611a18565b915060208301358015158114611b6b57600080fd5b809150509250929050565b60008060008060808587031215611b8c57600080fd5b611b9585611a18565b9350602085013567ffffffffffffffff811115611bb157600080fd5b8501601f81018713611bc257600080fd5b611bd1878235602084016119a2565b949794965050505060408301359260600135919050565b60008060408385031215611bfb57600080fd5b611c0483611a18565b946020939093013593505050565b600060208284031215611c2457600080fd5b5035919050565b60008060408385031215611c3e57600080fd5b82359150611a7960208401611a18565b600060208284031215611c6057600080fd5b813561140781611fa5565b600060208284031215611c7d57600080fd5b815161140781611fa5565b60008060408385031215611c9b57600080fd5b50508035926020909101359150565b60008151808452611cc2816020860160208601611ee5565b601f01601f19169290920160200192915050565b60008351611ce8818460208801611ee5565b835190830190611cfc818360208801611ee5565b01949350505050565b7f416363657373436f6e74726f6c3a206163636f756e7420000000000000000000815260008351611d3d816017850160208801611ee5565b7001034b99036b4b9b9b4b733903937b6329607d1b6017918401918201528351611d6e816028840160208801611ee5565b01602801949350505050565b6001600160a01b0385811682528416602082015260408101839052608060608201819052600090611dad90830184611caa565b9695505050505050565b6020815260006114076020830184611caa565b6020808252602d908201527f4552433732313a2063616c6c6572206973206e6f7420746f6b656e206f776e6560408201526c1c881bdc88185c1c1c9bdd9959609a1b606082015260800190565b60208082526032908201527f4552433732313a207472616e7366657220746f206e6f6e20455243373231526560408201527131b2b4bb32b91034b6b83632b6b2b73a32b960711b606082015260800190565b60208082526025908201527f4552433732313a207472616e736665722066726f6d20696e636f72726563742060408201526437bbb732b960d91b606082015260800190565b60008219821115611ec157611ec1611f63565b500190565b6000816000190483118215151615611ee057611ee0611f63565b500290565b60005b83811015611f00578181015183820152602001611ee8565b83811115610b395750506000910152565b600081611f2057611f20611f63565b506000190190565b600181811c90821680611f3c57607f821691505b60208210811415611f5d57634e487b7160e01b600052602260045260246000fd5b50919050565b634e487b7160e01b600052601160045260246000fd5b634e487b7160e01b600052603260045260246000fd5b634e487b7160e01b600052604160045260246000fd5b6001600160e01b031981168114610cf157600080fdfea2646970667358221220488723834845f843979ad513ba47f9cd16ba33e441ed1bdb8a8bccf439929f0a64736f6c63430008070033",
  "linkReferences": {},
  "deployedLinkReferences": {}
}