{
  "_format": "hh-sol-artifact-1",
  "contractName": "PepesOfTheGalaxyNFTStaking",
  "sourceName": "contracts/PepesOfTheGalaxyNFTStaking.sol",
  "abi": [
    {
      "inputs": [
        {
          "internalType": "address",
          "name": "_pepeNFT",
          "type": "address"
        },
        {
          "internalType": "address",
          "name": "_pepeToken",
          "type": "address"
        }
      ],
      "stateMutability": "nonpayable",
      "type": "constructor"
    },
    {
      "anonymous": false,
      "inputs": [
        {
          "indexed": true,
          "internalType": "address",
          "name": "user",
          "type": "address"
        },
        {
          "indexed": false,
          "internalType": "uint256",
          "name": "reward",
          "type": "uint256"
        }
      ],
      "name": "RewardDecreased",
      "type": "event"
    },
    {
      "anonymous": false,
      "inputs": [
        {
          "indexed": true,
          "internalType": "address",
          "name": "user",
          "type": "address"
        },
        {
          "indexed": false,
          "internalType": "uint256",
          "name": "reward",
          "type": "uint256"
        }
      ],
      "name": "RewardIncreased",
      "type": "event"
    },
    {
      "anonymous": false,
      "inputs": [
        {
          "indexed": true,
          "internalType": "address",
          "name": "user",
          "type": "address"
        },
        {
          "indexed": false,
          "internalType": "uint256",
          "name": "time",
          "type": "uint256"
        }
      ],
      "name": "Stake",
      "type": "event"
    },
    {
      "anonymous": false,
      "inputs": [
        {
          "indexed": true,
          "internalType": "address",
          "name": "user",
          "type": "address"
        },
        {
          "indexed": false,
          "internalType": "uint256",
          "name": "time",
          "type": "uint256"
        },
        {
          "indexed": false,
          "internalType": "uint256",
          "name": "reward",
          "type": "uint256"
        }
      ],
      "name": "Withdraw",
      "type": "event"
    },
    {
      "inputs": [
        {
          "internalType": "address",
          "name": "user",
          "type": "address"
        }
      ],
      "name": "getRemainingStakeTime",
      "outputs": [
        {
          "internalType": "uint256",
          "name": "",
          "type": "uint256"
        }
      ],
      "stateMutability": "view",
      "type": "function"
    },
    {
      "inputs": [
        {
          "internalType": "address",
          "name": "user",
          "type": "address"
        }
      ],
      "name": "increaseRewards",
      "outputs": [],
      "stateMutability": "nonpayable",
      "type": "function"
    },
    {
      "inputs": [],
      "name": "minStakingTime",
      "outputs": [
        {
          "internalType": "uint256",
          "name": "",
          "type": "uint256"
        }
      ],
      "stateMutability": "view",
      "type": "function"
    },
    {
      "inputs": [],
      "name": "pepeNFT",
      "outputs": [
        {
          "internalType": "contract IERC721",
          "name": "",
          "type": "address"
        }
      ],
      "stateMutability": "view",
      "type": "function"
    },
    {
      "inputs": [],
      "name": "pepeToken",
      "outputs": [
        {
          "internalType": "contract IERC20",
          "name": "",
          "type": "address"
        }
      ],
      "stateMutability": "view",
      "type": "function"
    },
    {
      "inputs": [],
      "name": "rewardAmount",
      "outputs": [
        {
          "internalType": "uint256",
          "name": "",
          "type": "uint256"
        }
      ],
      "stateMutability": "view",
      "type": "function"
    },
    {
      "inputs": [
        {
          "internalType": "uint256",
          "name": "tokenId",
          "type": "uint256"
        }
      ],
      "name": "stakeNFT",
      "outputs": [],
      "stateMutability": "nonpayable",
      "type": "function"
    },
    {
      "inputs": [
        {
          "internalType": "address",
          "name": "",
          "type": "address"
        }
      ],
      "name": "stakingInfo",
      "outputs": [
        {
          "internalType": "uint256",
          "name": "stakedTime",
          "type": "uint256"
        },
        {
          "internalType": "bool",
          "name": "staked",
          "type": "bool"
        }
      ],
      "stateMutability": "view",
      "type": "function"
    },
    {
      "inputs": [],
      "name": "totalRewards",
      "outputs": [
        {
          "internalType": "uint256",
          "name": "",
          "type": "uint256"
        }
      ],
      "stateMutability": "view",
      "type": "function"
    },
    {
      "inputs": [
        {
          "internalType": "address",
          "name": "",
          "type": "address"
        }
      ],
      "name": "userRewards",
      "outputs": [
        {
          "internalType": "uint256",
          "name": "",
          "type": "uint256"
        }
      ],
      "stateMutability": "view",
      "type": "function"
    },
    {
      "inputs": [
        {
          "internalType": "uint256",
          "name": "tokenId",
          "type": "uint256"
        }
      ],
      "name": "withdrawNFT",
      "outputs": [],
      "stateMutability": "nonpayable",
      "type": "function"
    }
  ],
  "bytecode": "0x608060405262093a8060035569021e19e0c9bab240000060045534801561002557600080fd5b50604051610a8e380380610a8e83398101604081905261004491610096565b6001600081905580546001600160a01b039384166001600160a01b031991821617909155600280549290931691161790556100c9565b80516001600160a01b038116811461009157600080fd5b919050565b600080604083850312156100a957600080fd5b6100b28361007a565b91506100c06020840161007a565b90509250929050565b6109b6806100d86000396000f3fe608060405234801561001057600080fd5b50600436106100a95760003560e01c80637592fc01116100715780637592fc011461013d57806394eecb501461015057806396dc91541461018f578063b58264f7146101a2578063c057eca7146101b5578063f7b2a7be146101be57600080fd5b8063023245d7146100ae5780630660f1e8146100c35780630e15561a146100f657806321cc4c3f146100ff5780636eb604e01461012a575b600080fd5b6100c16100bc36600461090d565b6101c7565b005b6100e36100d13660046108b1565b60076020526000908152604090205481565b6040519081526020015b60405180910390f35b6100e360055481565b600254610112906001600160a01b031681565b6040516001600160a01b0390911681526020016100ed565b6100c161013836600461090d565b610540565b600154610112906001600160a01b031681565b61017a61015e3660046108b1565b6006602052600090815260409020805460019091015460ff1682565b604080519283529015156020830152016100ed565b6100c161019d3660046108b1565b610743565b6100e36101b03660046108b1565b6107cb565b6100e360035481565b6100e360045481565b6101cf610838565b6001546040516331a9108f60e11b81526004810183905230916001600160a01b031690636352211e9060240160206040518083038186803b15801561021357600080fd5b505afa158015610227573d6000803e3d6000fd5b505050506040513d601f19601f8201168201806040525081019061024b91906108ce565b6001600160a01b0316146102b05760405162461bcd60e51b815260206004820152602160248201527f436f6e7472616374206973206e6f74206f776e6572206f662074686973204e466044820152601560fa1b60648201526084015b60405180910390fd5b3360009081526006602052604090206001015460ff166103075760405162461bcd60e51b8152602060048201526012602482015271139bdd081cdd185ada5b99c8185b8813919560721b60448201526064016102a7565b6003543360009081526006602052604090205461032391610892565b4210156103725760405162461bcd60e51b815260206004820181905260248201527f4d696e696d756d207374616b696e672074696d65206e6f74207265616368656460448201526064016102a7565b6001546040516323b872dd60e01b8152306004820152336024820152604481018390526001600160a01b03909116906323b872dd90606401600060405180830381600087803b1580156103c457600080fd5b505af11580156103d8573d6000803e3d6000fd5b5050336000818152600660209081526040808320600101805460ff1916905560025460079092529182902054915163a9059cbb60e01b8152600481019390935260248301919091526001600160a01b0316925063a9059cbb9150604401602060405180830381600087803b15801561044f57600080fd5b505af1158015610463573d6000803e3d6000fd5b505050506040513d601f19601f8201168201806040525081019061048791906108eb565b5033600081815260076020908152604091829020548251428152918201527ff279e6a1f5e320cca91135676d9cb6e44ca8a08c0b88342bcdb1144f6511b568910160405180910390a2336000908152600760205260409020546005546104ec916108a5565b600555336000818152600760209081526040808320839055519182527f46a2f1fabc14f7517fe586da78f40f58ce0eda65cc8326d2386aa09ef0ec86e8910160405180910390a261053d6001600055565b50565b6001546040516331a9108f60e11b81526004810183905233916001600160a01b031690636352211e9060240160206040518083038186803b15801561058457600080fd5b505afa158015610598573d6000803e3d6000fd5b505050506040513d601f19601f820116820180604052508101906105bc91906108ce565b6001600160a01b03161461060a5760405162461bcd60e51b8152602060048201526015602482015274139bdd081bdddb995c881bd9881d1a1a5cc8139195605a1b60448201526064016102a7565b3360009081526006602052604090206001015460ff16156106665760405162461bcd60e51b8152602060048201526016602482015275105b1c9958591e481cdd185ada5b99c8185b8813919560521b60448201526064016102a7565b6001546040516323b872dd60e01b8152336004820152306024820152604481018390526001600160a01b03909116906323b872dd90606401600060405180830381600087803b1580156106b857600080fd5b505af11580156106cc573d6000803e3d6000fd5b505060408051808201825242808252600160208084018281523360008181526006845287902095518655905194909201805460ff19169415159490941790935592519081529193507febedb8b3c678666e7f36970bc8f57abf6d8fa2e828c0da91ea5b75bf68ed101a92500160405180910390a250565b6004546001600160a01b038216600090815260076020526040902054106107ac5760405162461bcd60e51b815260206004820152601d60248201527f416c72656164792072656365697665642066756c6c207265776172647300000060448201526064016102a7565b6004546001600160a01b03909116600090815260076020526040902055565b6003546001600160a01b03821660009081526006602052604081205490916107f39190610892565b421061080157506000919050565b6003546001600160a01b03831660009081526006602052604090205461083291429161082c91610892565b906108a5565b92915050565b6002600054141561088b5760405162461bcd60e51b815260206004820152601f60248201527f5265656e7472616e637947756172643a207265656e7472616e742063616c6c0060448201526064016102a7565b6002600055565b600061089e8284610926565b9392505050565b600061089e828461093e565b6000602082840312156108c357600080fd5b813561089e8161096b565b6000602082840312156108e057600080fd5b815161089e8161096b565b6000602082840312156108fd57600080fd5b8151801515811461089e57600080fd5b60006020828403121561091f57600080fd5b5035919050565b6000821982111561093957610939610955565b500190565b60008282101561095057610950610955565b500390565b634e487b7160e01b600052601160045260246000fd5b6001600160a01b038116811461053d57600080fdfea2646970667358221220e3d34ce91cb68ea99326c805cd157ada7454a50b2de30e827932b71d3d4f4a3f64736f6c63430008070033",
  "linkReferences": {},
  "deployedLinkReferences": {}
}