{
  "_format": "hh-sol-artifact-1",
  "contractName": "PepesOfTheGalaxyNFTStaking",
  "sourceName": "contracts/PepesOfTheGalaxyNFTStaking.sol",
  "abi": [
    {
      "inputs": [
        {
          "internalType": "address",
          "name": "_pepeNFT",
          "type": "address"
        },
        {
          "internalType": "address",
          "name": "_pepeToken",
          "type": "address"
        }
      ],
      "stateMutability": "nonpayable",
      "type": "constructor"
    },
    {
      "anonymous": false,
      "inputs": [
        {
          "indexed": true,
          "internalType": "address",
          "name": "previousOwner",
          "type": "address"
        },
        {
          "indexed": true,
          "internalType": "address",
          "name": "newOwner",
          "type": "address"
        }
      ],
      "name": "OwnershipTransferred",
      "type": "event"
    },
    {
      "anonymous": false,
      "inputs": [
        {
          "indexed": true,
          "internalType": "address",
          "name": "user",
          "type": "address"
        },
        {
          "indexed": false,
          "internalType": "uint256",
          "name": "time",
          "type": "uint256"
        }
      ],
      "name": "Stake",
      "type": "event"
    },
    {
      "anonymous": false,
      "inputs": [
        {
          "indexed": true,
          "internalType": "address",
          "name": "user",
          "type": "address"
        },
        {
          "indexed": false,
          "internalType": "uint256",
          "name": "time",
          "type": "uint256"
        },
        {
          "indexed": false,
          "internalType": "uint256",
          "name": "reward",
          "type": "uint256"
        }
      ],
      "name": "Withdraw",
      "type": "event"
    },
    {
      "inputs": [
        {
          "internalType": "address",
          "name": "user",
          "type": "address"
        }
      ],
      "name": "getRemainingStakeTime",
      "outputs": [
        {
          "internalType": "uint256",
          "name": "",
          "type": "uint256"
        }
      ],
      "stateMutability": "view",
      "type": "function"
    },
    {
      "inputs": [],
      "name": "minStakingTime",
      "outputs": [
        {
          "internalType": "uint256",
          "name": "",
          "type": "uint256"
        }
      ],
      "stateMutability": "view",
      "type": "function"
    },
    {
      "inputs": [],
      "name": "owner",
      "outputs": [
        {
          "internalType": "address",
          "name": "",
          "type": "address"
        }
      ],
      "stateMutability": "view",
      "type": "function"
    },
    {
      "inputs": [],
      "name": "pepeNFT",
      "outputs": [
        {
          "internalType": "contract IERC721",
          "name": "",
          "type": "address"
        }
      ],
      "stateMutability": "view",
      "type": "function"
    },
    {
      "inputs": [],
      "name": "pepeToken",
      "outputs": [
        {
          "internalType": "contract IERC20",
          "name": "",
          "type": "address"
        }
      ],
      "stateMutability": "view",
      "type": "function"
    },
    {
      "inputs": [],
      "name": "renounceOwnership",
      "outputs": [],
      "stateMutability": "nonpayable",
      "type": "function"
    },
    {
      "inputs": [],
      "name": "rewardAmount",
      "outputs": [
        {
          "internalType": "uint256",
          "name": "",
          "type": "uint256"
        }
      ],
      "stateMutability": "view",
      "type": "function"
    },
    {
      "inputs": [
        {
          "internalType": "uint256",
          "name": "newMinStakingTime",
          "type": "uint256"
        }
      ],
      "name": "setMinStakingTime",
      "outputs": [],
      "stateMutability": "nonpayable",
      "type": "function"
    },
    {
      "inputs": [
        {
          "internalType": "uint256",
          "name": "tokenId",
          "type": "uint256"
        }
      ],
      "name": "stakeNFT",
      "outputs": [],
      "stateMutability": "nonpayable",
      "type": "function"
    },
    {
      "inputs": [
        {
          "internalType": "address",
          "name": "",
          "type": "address"
        }
      ],
      "name": "stakingInfo",
      "outputs": [
        {
          "internalType": "uint256",
          "name": "stakedTime",
          "type": "uint256"
        },
        {
          "internalType": "bool",
          "name": "staked",
          "type": "bool"
        }
      ],
      "stateMutability": "view",
      "type": "function"
    },
    {
      "inputs": [
        {
          "internalType": "address",
          "name": "newOwner",
          "type": "address"
        }
      ],
      "name": "transferOwnership",
      "outputs": [],
      "stateMutability": "nonpayable",
      "type": "function"
    },
    {
      "inputs": [
        {
          "internalType": "address",
          "name": "",
          "type": "address"
        }
      ],
      "name": "userRewards",
      "outputs": [
        {
          "internalType": "uint256",
          "name": "",
          "type": "uint256"
        }
      ],
      "stateMutability": "view",
      "type": "function"
    },
    {
      "inputs": [
        {
          "internalType": "uint256",
          "name": "tokenId",
          "type": "uint256"
        }
      ],
      "name": "withdrawNFT",
      "outputs": [],
      "stateMutability": "nonpayable",
      "type": "function"
    }
  ],
  "bytecode": "0x6080604052610e1060045569021e19e0c9bab240000060055534801561002457600080fd5b50604051610b7d380380610b7d833981016040819052610043916100f0565b600160005561005133610082565b600280546001600160a01b039384166001600160a01b03199182161790915560038054929093169116179055610123565b600180546001600160a01b038381166001600160a01b0319831681179093556040519116919082907f8be0079c531659141344cd1fd0a4f28419497f9722a3daafe3b4186f6b6457e090600090a35050565b80516001600160a01b03811681146100eb57600080fd5b919050565b6000806040838503121561010357600080fd5b61010c836100d4565b915061011a602084016100d4565b90509250929050565b610a4b806101326000396000f3fe608060405234801561001057600080fd5b50600436106100cf5760003560e01c80637592fc011161008c578063b58264f711610066578063b58264f7146101d8578063c057eca7146101eb578063f2fde38b146101f4578063f7b2a7be1461020757600080fd5b80637592fc01146101755780638da5cb5b1461018857806394eecb501461019957600080fd5b8063023245d7146100d45780630660f1e8146100e9578063123413ed1461011c57806321cc4c3f1461012f5780636eb604e01461015a578063715018a61461016d575b600080fd5b6100e76100e23660046109a2565b610210565b005b6101096100f7366004610946565b60076020526000908152604090205481565b6040519081526020015b60405180910390f35b6100e761012a3660046109a2565b61051a565b600354610142906001600160a01b031681565b6040516001600160a01b039091168152602001610113565b6100e76101683660046109a2565b610527565b6100e761072a565b600254610142906001600160a01b031681565b6001546001600160a01b0316610142565b6101c36101a7366004610946565b6006602052600090815260409020805460019091015460ff1682565b60408051928352901515602083015201610113565b6101096101e6366004610946565b61073e565b61010960045481565b6100e7610202366004610946565b6107ab565b61010960055481565b610218610821565b6002546040516331a9108f60e11b81526004810183905230916001600160a01b031690636352211e9060240160206040518083038186803b15801561025c57600080fd5b505afa158015610270573d6000803e3d6000fd5b505050506040513d601f19601f820116820180604052508101906102949190610963565b6001600160a01b0316146102f95760405162461bcd60e51b815260206004820152602160248201527f436f6e7472616374206973206e6f74206f776e6572206f662074686973204e466044820152601560fa1b60648201526084015b60405180910390fd5b3360009081526006602052604090206001015460ff166103505760405162461bcd60e51b8152602060048201526012602482015271139bdd081cdd185ada5b99c8185b8813919560721b60448201526064016102f0565b6004543360009081526006602052604090205461036c9161087b565b4210156103bb5760405162461bcd60e51b815260206004820181905260248201527f4d696e696d756d207374616b696e672074696d65206e6f74207265616368656460448201526064016102f0565b6002546040516323b872dd60e01b8152306004820152336024820152604481018390526001600160a01b03909116906323b872dd90606401600060405180830381600087803b15801561040d57600080fd5b505af1158015610421573d6000803e3d6000fd5b50503360008181526006602052604090819020600101805460ff19169055600354600554915163a9059cbb60e01b8152600481019390935260248301919091526001600160a01b0316925063a9059cbb9150604401602060405180830381600087803b15801561049057600080fd5b505af11580156104a4573d6000803e3d6000fd5b505050506040513d601f19601f820116820180604052508101906104c89190610980565b5060055460405133917ff279e6a1f5e320cca91135676d9cb6e44ca8a08c0b88342bcdb1144f6511b5689161050591428252602082015260400190565b60405180910390a26105176001600055565b50565b61052261088e565b600455565b6002546040516331a9108f60e11b81526004810183905233916001600160a01b031690636352211e9060240160206040518083038186803b15801561056b57600080fd5b505afa15801561057f573d6000803e3d6000fd5b505050506040513d601f19601f820116820180604052508101906105a39190610963565b6001600160a01b0316146105f15760405162461bcd60e51b8152602060048201526015602482015274139bdd081bdddb995c881bd9881d1a1a5cc8139195605a1b60448201526064016102f0565b3360009081526006602052604090206001015460ff161561064d5760405162461bcd60e51b8152602060048201526016602482015275105b1c9958591e481cdd185ada5b99c8185b8813919560521b60448201526064016102f0565b6002546040516323b872dd60e01b8152336004820152306024820152604481018390526001600160a01b03909116906323b872dd90606401600060405180830381600087803b15801561069f57600080fd5b505af11580156106b3573d6000803e3d6000fd5b505060408051808201825242808252600160208084018281523360008181526006845287902095518655905194909201805460ff19169415159490941790935592519081529193507febedb8b3c678666e7f36970bc8f57abf6d8fa2e828c0da91ea5b75bf68ed101a92500160405180910390a250565b61073261088e565b61073c60006108e8565b565b6004546001600160a01b0382166000908152600660205260408120549091610766919061087b565b421061077457506000919050565b6004546001600160a01b0383166000908152600660205260409020546107a591429161079f9161087b565b9061093a565b92915050565b6107b361088e565b6001600160a01b0381166108185760405162461bcd60e51b815260206004820152602660248201527f4f776e61626c653a206e6577206f776e657220697320746865207a65726f206160448201526564647265737360d01b60648201526084016102f0565b610517816108e8565b600260005414156108745760405162461bcd60e51b815260206004820152601f60248201527f5265656e7472616e637947756172643a207265656e7472616e742063616c6c0060448201526064016102f0565b6002600055565b600061088782846109bb565b9392505050565b6001546001600160a01b0316331461073c5760405162461bcd60e51b815260206004820181905260248201527f4f776e61626c653a2063616c6c6572206973206e6f7420746865206f776e657260448201526064016102f0565b600180546001600160a01b038381166001600160a01b0319831681179093556040519116919082907f8be0079c531659141344cd1fd0a4f28419497f9722a3daafe3b4186f6b6457e090600090a35050565b600061088782846109d3565b60006020828403121561095857600080fd5b813561088781610a00565b60006020828403121561097557600080fd5b815161088781610a00565b60006020828403121561099257600080fd5b8151801515811461088757600080fd5b6000602082840312156109b457600080fd5b5035919050565b600082198211156109ce576109ce6109ea565b500190565b6000828210156109e5576109e56109ea565b500390565b634e487b7160e01b600052601160045260246000fd5b6001600160a01b038116811461051757600080fdfea26469706673582212208c3c154f4fda40feb5c04e58fb00f5f086cae1aca90e61b5f4dfc016fb48d74364736f6c63430008070033",
  "linkReferences": {},
  "deployedLinkReferences": {}
}