{
  "contractName": "PepesOfTheGalaxyToken",
  "abi": [
    {
      "inputs": [
        {
          "internalType": "uint256",
          "name": "_totalSupply",
          "type": "uint256"
        },
        {
          "internalType": "uint256",
          "name": "_tokenCap",
          "type": "uint256"
        }
      ],
      "stateMutability": "nonpayable",
      "type": "constructor"
    },
    {
      "anonymous": false,
      "inputs": [
        {
          "indexed": true,
          "internalType": "address",
          "name": "owner",
          "type": "address"
        },
        {
          "indexed": true,
          "internalType": "address",
          "name": "spender",
          "type": "address"
        },
        {
          "indexed": false,
          "internalType": "uint256",
          "name": "value",
          "type": "uint256"
        }
      ],
      "name": "Approval",
      "type": "event"
    },
    {
      "anonymous": false,
      "inputs": [
        {
          "indexed": true,
          "internalType": "address",
          "name": "account",
          "type": "address"
        },
        {
          "indexed": false,
          "internalType": "uint256",
          "name": "value",
          "type": "uint256"
        }
      ],
      "name": "Burnt",
      "type": "event"
    },
    {
      "anonymous": false,
      "inputs": [
        {
          "indexed": true,
          "internalType": "address",
          "name": "account",
          "type": "address"
        },
        {
          "indexed": false,
          "internalType": "uint256",
          "name": "amount",
          "type": "uint256"
        }
      ],
      "name": "Minted",
      "type": "event"
    },
    {
      "anonymous": false,
      "inputs": [
        {
          "indexed": true,
          "internalType": "address",
          "name": "previousOwner",
          "type": "address"
        },
        {
          "indexed": true,
          "internalType": "address",
          "name": "newOwner",
          "type": "address"
        }
      ],
      "name": "OwnershipTransferred",
      "type": "event"
    },
    {
      "anonymous": false,
      "inputs": [
        {
          "indexed": true,
          "internalType": "bytes32",
          "name": "role",
          "type": "bytes32"
        },
        {
          "indexed": true,
          "internalType": "bytes32",
          "name": "previousAdminRole",
          "type": "bytes32"
        },
        {
          "indexed": true,
          "internalType": "bytes32",
          "name": "newAdminRole",
          "type": "bytes32"
        }
      ],
      "name": "RoleAdminChanged",
      "type": "event"
    },
    {
      "anonymous": false,
      "inputs": [
        {
          "indexed": true,
          "internalType": "bytes32",
          "name": "role",
          "type": "bytes32"
        },
        {
          "indexed": true,
          "internalType": "address",
          "name": "account",
          "type": "address"
        },
        {
          "indexed": true,
          "internalType": "address",
          "name": "sender",
          "type": "address"
        }
      ],
      "name": "RoleGranted",
      "type": "event"
    },
    {
      "anonymous": false,
      "inputs": [
        {
          "indexed": true,
          "internalType": "bytes32",
          "name": "role",
          "type": "bytes32"
        },
        {
          "indexed": true,
          "internalType": "address",
          "name": "account",
          "type": "address"
        },
        {
          "indexed": true,
          "internalType": "address",
          "name": "sender",
          "type": "address"
        }
      ],
      "name": "RoleRevoked",
      "type": "event"
    },
    {
      "anonymous": false,
      "inputs": [
        {
          "indexed": false,
          "internalType": "bool",
          "name": "_limited",
          "type": "bool"
        },
        {
          "indexed": false,
          "internalType": "address",
          "name": "_uniswapV2Pair",
          "type": "address"
        },
        {
          "indexed": false,
          "internalType": "uint256",
          "name": "_maxHoldingAmount",
          "type": "uint256"
        },
        {
          "indexed": false,
          "internalType": "uint256",
          "name": "_minHoldingAmount",
          "type": "uint256"
        }
      ],
      "name": "RulesSet",
      "type": "event"
    },
    {
      "anonymous": false,
      "inputs": [
        {
          "indexed": true,
          "internalType": "address",
          "name": "from",
          "type": "address"
        },
        {
          "indexed": true,
          "internalType": "address",
          "name": "to",
          "type": "address"
        },
        {
          "indexed": false,
          "internalType": "uint256",
          "name": "value",
          "type": "uint256"
        }
      ],
      "name": "Transfer",
      "type": "event"
    },
    {
      "inputs": [],
      "name": "DEFAULT_ADMIN_ROLE",
      "outputs": [
        {
          "internalType": "bytes32",
          "name": "",
          "type": "bytes32"
        }
      ],
      "stateMutability": "view",
      "type": "function",
      "constant": true
    },
    {
      "inputs": [],
      "name": "MINTER_ROLE",
      "outputs": [
        {
          "internalType": "bytes32",
          "name": "",
          "type": "bytes32"
        }
      ],
      "stateMutability": "view",
      "type": "function",
      "constant": true
    },
    {
      "inputs": [
        {
          "internalType": "address",
          "name": "owner",
          "type": "address"
        },
        {
          "internalType": "address",
          "name": "spender",
          "type": "address"
        }
      ],
      "name": "allowance",
      "outputs": [
        {
          "internalType": "uint256",
          "name": "",
          "type": "uint256"
        }
      ],
      "stateMutability": "view",
      "type": "function",
      "constant": true
    },
    {
      "inputs": [
        {
          "internalType": "address",
          "name": "spender",
          "type": "address"
        },
        {
          "internalType": "uint256",
          "name": "amount",
          "type": "uint256"
        }
      ],
      "name": "approve",
      "outputs": [
        {
          "internalType": "bool",
          "name": "",
          "type": "bool"
        }
      ],
      "stateMutability": "nonpayable",
      "type": "function"
    },
    {
      "inputs": [
        {
          "internalType": "address",
          "name": "account",
          "type": "address"
        }
      ],
      "name": "balanceOf",
      "outputs": [
        {
          "internalType": "uint256",
          "name": "",
          "type": "uint256"
        }
      ],
      "stateMutability": "view",
      "type": "function",
      "constant": true
    },
    {
      "inputs": [],
      "name": "decimals",
      "outputs": [
        {
          "internalType": "uint8",
          "name": "",
          "type": "uint8"
        }
      ],
      "stateMutability": "view",
      "type": "function",
      "constant": true
    },
    {
      "inputs": [
        {
          "internalType": "address",
          "name": "spender",
          "type": "address"
        },
        {
          "internalType": "uint256",
          "name": "subtractedValue",
          "type": "uint256"
        }
      ],
      "name": "decreaseAllowance",
      "outputs": [
        {
          "internalType": "bool",
          "name": "",
          "type": "bool"
        }
      ],
      "stateMutability": "nonpayable",
      "type": "function"
    },
    {
      "inputs": [
        {
          "internalType": "bytes32",
          "name": "role",
          "type": "bytes32"
        }
      ],
      "name": "getRoleAdmin",
      "outputs": [
        {
          "internalType": "bytes32",
          "name": "",
          "type": "bytes32"
        }
      ],
      "stateMutability": "view",
      "type": "function",
      "constant": true
    },
    {
      "inputs": [
        {
          "internalType": "bytes32",
          "name": "role",
          "type": "bytes32"
        },
        {
          "internalType": "address",
          "name": "account",
          "type": "address"
        }
      ],
      "name": "grantRole",
      "outputs": [],
      "stateMutability": "nonpayable",
      "type": "function"
    },
    {
      "inputs": [
        {
          "internalType": "bytes32",
          "name": "role",
          "type": "bytes32"
        },
        {
          "internalType": "address",
          "name": "account",
          "type": "address"
        }
      ],
      "name": "hasRole",
      "outputs": [
        {
          "internalType": "bool",
          "name": "",
          "type": "bool"
        }
      ],
      "stateMutability": "view",
      "type": "function",
      "constant": true
    },
    {
      "inputs": [
        {
          "internalType": "address",
          "name": "spender",
          "type": "address"
        },
        {
          "internalType": "uint256",
          "name": "addedValue",
          "type": "uint256"
        }
      ],
      "name": "increaseAllowance",
      "outputs": [
        {
          "internalType": "bool",
          "name": "",
          "type": "bool"
        }
      ],
      "stateMutability": "nonpayable",
      "type": "function"
    },
    {
      "inputs": [],
      "name": "limited",
      "outputs": [
        {
          "internalType": "bool",
          "name": "",
          "type": "bool"
        }
      ],
      "stateMutability": "view",
      "type": "function",
      "constant": true
    },
    {
      "inputs": [],
      "name": "maxHoldingAmount",
      "outputs": [
        {
          "internalType": "uint256",
          "name": "",
          "type": "uint256"
        }
      ],
      "stateMutability": "view",
      "type": "function",
      "constant": true
    },
    {
      "inputs": [],
      "name": "minHoldingAmount",
      "outputs": [
        {
          "internalType": "uint256",
          "name": "",
          "type": "uint256"
        }
      ],
      "stateMutability": "view",
      "type": "function",
      "constant": true
    },
    {
      "inputs": [],
      "name": "name",
      "outputs": [
        {
          "internalType": "string",
          "name": "",
          "type": "string"
        }
      ],
      "stateMutability": "view",
      "type": "function",
      "constant": true
    },
    {
      "inputs": [],
      "name": "owner",
      "outputs": [
        {
          "internalType": "address",
          "name": "",
          "type": "address"
        }
      ],
      "stateMutability": "view",
      "type": "function",
      "constant": true
    },
    {
      "inputs": [],
      "name": "renounceOwnership",
      "outputs": [],
      "stateMutability": "nonpayable",
      "type": "function"
    },
    {
      "inputs": [
        {
          "internalType": "bytes32",
          "name": "role",
          "type": "bytes32"
        },
        {
          "internalType": "address",
          "name": "account",
          "type": "address"
        }
      ],
      "name": "renounceRole",
      "outputs": [],
      "stateMutability": "nonpayable",
      "type": "function"
    },
    {
      "inputs": [
        {
          "internalType": "bytes32",
          "name": "role",
          "type": "bytes32"
        },
        {
          "internalType": "address",
          "name": "account",
          "type": "address"
        }
      ],
      "name": "revokeRole",
      "outputs": [],
      "stateMutability": "nonpayable",
      "type": "function"
    },
    {
      "inputs": [
        {
          "internalType": "bytes4",
          "name": "interfaceId",
          "type": "bytes4"
        }
      ],
      "name": "supportsInterface",
      "outputs": [
        {
          "internalType": "bool",
          "name": "",
          "type": "bool"
        }
      ],
      "stateMutability": "view",
      "type": "function",
      "constant": true
    },
    {
      "inputs": [],
      "name": "symbol",
      "outputs": [
        {
          "internalType": "string",
          "name": "",
          "type": "string"
        }
      ],
      "stateMutability": "view",
      "type": "function",
      "constant": true
    },
    {
      "inputs": [],
      "name": "totalSupply",
      "outputs": [
        {
          "internalType": "uint256",
          "name": "",
          "type": "uint256"
        }
      ],
      "stateMutability": "view",
      "type": "function",
      "constant": true
    },
    {
      "inputs": [
        {
          "internalType": "address",
          "name": "to",
          "type": "address"
        },
        {
          "internalType": "uint256",
          "name": "amount",
          "type": "uint256"
        }
      ],
      "name": "transfer",
      "outputs": [
        {
          "internalType": "bool",
          "name": "",
          "type": "bool"
        }
      ],
      "stateMutability": "nonpayable",
      "type": "function"
    },
    {
      "inputs": [
        {
          "internalType": "address",
          "name": "from",
          "type": "address"
        },
        {
          "internalType": "address",
          "name": "to",
          "type": "address"
        },
        {
          "internalType": "uint256",
          "name": "amount",
          "type": "uint256"
        }
      ],
      "name": "transferFrom",
      "outputs": [
        {
          "internalType": "bool",
          "name": "",
          "type": "bool"
        }
      ],
      "stateMutability": "nonpayable",
      "type": "function"
    },
    {
      "inputs": [],
      "name": "uniswapV2Pair",
      "outputs": [
        {
          "internalType": "address",
          "name": "",
          "type": "address"
        }
      ],
      "stateMutability": "view",
      "type": "function",
      "constant": true
    },
    {
      "inputs": [
        {
          "internalType": "bool",
          "name": "_limited",
          "type": "bool"
        },
        {
          "internalType": "address",
          "name": "_uniswapV2Pair",
          "type": "address"
        },
        {
          "internalType": "uint256",
          "name": "_maxHoldingAmount",
          "type": "uint256"
        },
        {
          "internalType": "uint256",
          "name": "_minHoldingAmount",
          "type": "uint256"
        }
      ],
      "name": "setRule",
      "outputs": [],
      "stateMutability": "nonpayable",
      "type": "function"
    },
    {
      "inputs": [
        {
          "internalType": "uint256",
          "name": "value",
          "type": "uint256"
        }
      ],
      "name": "burn",
      "outputs": [],
      "stateMutability": "nonpayable",
      "type": "function"
    },
    {
      "inputs": [
        {
          "internalType": "address",
          "name": "newOwner",
          "type": "address"
        }
      ],
      "name": "transferOwnership",
      "outputs": [],
      "stateMutability": "nonpayable",
      "type": "function"
    },
    {
      "inputs": [
        {
          "internalType": "address",
          "name": "account",
          "type": "address"
        },
        {
          "internalType": "uint256",
          "name": "amount",
          "type": "uint256"
        }
      ],
      "name": "mint",
      "outputs": [],
      "stateMutability": "nonpayable",
      "type": "function"
    }
  ],
  "bytecode": "0x60806040523480156200001157600080fd5b5060405162003bb738038062003bb783398181016040528101906200003791906200084f565b6040518060400160405280601381526020017f5065706573206f66207468652047616c617879000000000000000000000000008152506040518060400160405280600581526020017f5045504547000000000000000000000000000000000000000000000000000000815250620000c3620000b76200012d60201b60201c565b6200013560201b60201c565b8160049080519060200190620000db92919062000788565b508060059080519060200190620000f492919062000788565b505050620001093383620001f960201b60201c565b80600a81905550620001256000801b336200036860201b60201c565b505062000b45565b600033905090565b60008060009054906101000a900473ffffffffffffffffffffffffffffffffffffffff169050816000806101000a81548173ffffffffffffffffffffffffffffffffffffffff021916908373ffffffffffffffffffffffffffffffffffffffff1602179055508173ffffffffffffffffffffffffffffffffffffffff168173ffffffffffffffffffffffffffffffffffffffff167f8be0079c531659141344cd1fd0a4f28419497f9722a3daafe3b4186f6b6457e060405160405180910390a35050565b600073ffffffffffffffffffffffffffffffffffffffff168273ffffffffffffffffffffffffffffffffffffffff1614156200026c576040517f08c379a0000000000000000000000000000000000000000000000000000000008152600401620002639062000960565b60405180910390fd5b62000280600083836200037e60201b60201c565b8060036000828254620002949190620009b0565b9250508190555080600160008473ffffffffffffffffffffffffffffffffffffffff1673ffffffffffffffffffffffffffffffffffffffff168152602001908152602001600020600082825401925050819055508173ffffffffffffffffffffffffffffffffffffffff16600073ffffffffffffffffffffffffffffffffffffffff167fddf252ad1be2c89b69c2b068fc378daa952ba7f163c4a11628f55a4df523b3ef8360405162000348919062000982565b60405180910390a36200036460008383620005b460201b60201c565b5050565b6200037a8282620005b960201b60201c565b5050565b600073ffffffffffffffffffffffffffffffffffffffff16600960009054906101000a900473ffffffffffffffffffffffffffffffffffffffff1673ffffffffffffffffffffffffffffffffffffffff161415620004a257620003e6620006ab60201b60201c565b73ffffffffffffffffffffffffffffffffffffffff168373ffffffffffffffffffffffffffffffffffffffff1614806200045a57506200042b620006ab60201b60201c565b73ffffffffffffffffffffffffffffffffffffffff168273ffffffffffffffffffffffffffffffffffffffff16145b6200049c576040517f08c379a000000000000000000000000000000000000000000000000000000000815260040162000493906200093e565b60405180910390fd5b620005af565b600960149054906101000a900460ff1680156200050c5750600960009054906101000a900473ffffffffffffffffffffffffffffffffffffffff1673ffffffffffffffffffffffffffffffffffffffff168373ffffffffffffffffffffffffffffffffffffffff16145b15620005ae57600754816200052c84620006d460201b62000a511760201c565b620005389190620009b0565b111580156200056b5750600854816200055c84620006d460201b62000a511760201c565b620005689190620009b0565b10155b620005ad576040517f08c379a0000000000000000000000000000000000000000000000000000000008152600401620005a4906200091c565b60405180910390fd5b5b5b505050565b505050565b620005cb82826200071d60201b60201c565b620006a75760016006600084815260200190815260200160002060000160008373ffffffffffffffffffffffffffffffffffffffff1673ffffffffffffffffffffffffffffffffffffffff16815260200190815260200160002060006101000a81548160ff0219169083151502179055506200064c6200012d60201b60201c565b73ffffffffffffffffffffffffffffffffffffffff168173ffffffffffffffffffffffffffffffffffffffff16837f2f8788117e7eff1d82e926ec794901d17c78024a50270940304540a733656f0d60405160405180910390a45b5050565b60008060009054906101000a900473ffffffffffffffffffffffffffffffffffffffff16905090565b6000600160008373ffffffffffffffffffffffffffffffffffffffff1673ffffffffffffffffffffffffffffffffffffffff168152602001908152602001600020549050919050565b60006006600084815260200190815260200160002060000160008373ffffffffffffffffffffffffffffffffffffffff1673ffffffffffffffffffffffffffffffffffffffff16815260200190815260200160002060009054906101000a900460ff16905092915050565b828054620007969062000a17565b90600052602060002090601f016020900481019282620007ba576000855562000806565b82601f10620007d557805160ff191683800117855562000806565b8280016001018555821562000806579182015b8281111562000805578251825591602001919060010190620007e8565b5b50905062000815919062000819565b5090565b5b80821115620008345760008160009055506001016200081a565b5090565b600081519050620008498162000b2b565b92915050565b6000806040838503121562000869576200086862000aab565b5b6000620008798582860162000838565b92505060206200088c8582860162000838565b9150509250929050565b6000620008a56006836200099f565b9150620008b28262000ab0565b602082019050919050565b6000620008cc6016836200099f565b9150620008d98262000ad9565b602082019050919050565b6000620008f3601f836200099f565b9150620009008262000b02565b602082019050919050565b620009168162000a0d565b82525050565b60006020820190508181036000830152620009378162000896565b9050919050565b600060208201905081810360008301526200095981620008bd565b9050919050565b600060208201905081810360008301526200097b81620008e4565b9050919050565b60006020820190506200099960008301846200090b565b92915050565b600082825260208201905092915050565b6000620009bd8262000a0d565b9150620009ca8362000a0d565b9250827fffffffffffffffffffffffffffffffffffffffffffffffffffffffffffffffff0382111562000a025762000a0162000a4d565b5b828201905092915050565b6000819050919050565b6000600282049050600182168062000a3057607f821691505b6020821081141562000a475762000a4662000a7c565b5b50919050565b7f4e487b7100000000000000000000000000000000000000000000000000000000600052601160045260246000fd5b7f4e487b7100000000000000000000000000000000000000000000000000000000600052602260045260246000fd5b600080fd5b7f466f726269640000000000000000000000000000000000000000000000000000600082015250565b7f74726164696e67206973206e6f74207374617274656400000000000000000000600082015250565b7f45524332303a206d696e7420746f20746865207a65726f206164647265737300600082015250565b62000b368162000a0d565b811462000b4257600080fd5b50565b6130628062000b556000396000f3fe608060405234801561001057600080fd5b50600436106101cf5760003560e01c806349bd5a5e1161010457806395d89b41116100a2578063d539139311610071578063d539139314610546578063d547741f14610564578063dd62ed3e14610580578063f2fde38b146105b0576101cf565b806395d89b41146104aa578063a217fddf146104c8578063a457c2d7146104e6578063a9059cbb14610516576101cf565b8063860a32ec116100de578063860a32ec1461042057806389f9a1d31461043e5780638da5cb5b1461045c57806391d148541461047a576101cf565b806349bd5a5e146103c857806370a08231146103e6578063715018a614610416576101cf565b80632f2ff15d11610171578063395093511161014b57806339509351146103445780633aa633aa1461037457806340c10f191461039057806342966c68146103ac576101cf565b80632f2ff15d146102ee578063313ce5671461030a57806336568abe14610328576101cf565b806318160ddd116101ad57806318160ddd146102525780631ab99e121461027057806323b872dd1461028e578063248a9ca3146102be576101cf565b806301ffc9a7146101d457806306fdde0314610204578063095ea7b314610222575b600080fd5b6101ee60048036038101906101e99190612113565b6105cc565b6040516101fb9190612533565b60405180910390f35b61020c610646565b60405161021991906125ae565b60405180910390f35b61023c60048036038101906102379190611fff565b6106d8565b6040516102499190612533565b60405180910390f35b61025a6106fb565b6040516102679190612810565b60405180910390f35b610278610705565b6040516102859190612810565b60405180910390f35b6102a860048036038101906102a39190611fac565b61070b565b6040516102b59190612533565b60405180910390f35b6102d860048036038101906102d391906120a6565b61073a565b6040516102e59190612593565b60405180910390f35b610308600480360381019061030391906120d3565b61075a565b005b61031261077b565b60405161031f919061282b565b60405180910390f35b610342600480360381019061033d91906120d3565b610784565b005b61035e60048036038101906103599190611fff565b610807565b60405161036b9190612533565b60405180910390f35b61038e6004803603810190610389919061203f565b61083e565b005b6103aa60048036038101906103a59190611fff565b6108f2565b005b6103c660048036038101906103c19190612140565b6109d0565b005b6103d0610a2b565b6040516103dd9190612518565b60405180910390f35b61040060048036038101906103fb9190611f3f565b610a51565b60405161040d9190612810565b60405180910390f35b61041e610a9a565b005b610428610aae565b6040516104359190612533565b60405180910390f35b610446610ac1565b6040516104539190612810565b60405180910390f35b610464610ac7565b6040516104719190612518565b60405180910390f35b610494600480360381019061048f91906120d3565b610af0565b6040516104a19190612533565b60405180910390f35b6104b2610b5b565b6040516104bf91906125ae565b60405180910390f35b6104d0610bed565b6040516104dd9190612593565b60405180910390f35b61050060048036038101906104fb9190611fff565b610bf4565b60405161050d9190612533565b60405180910390f35b610530600480360381019061052b9190611fff565b610c6b565b60405161053d9190612533565b60405180910390f35b61054e610c8e565b60405161055b9190612593565b60405180910390f35b61057e600480360381019061057991906120d3565b610cb2565b005b61059a60048036038101906105959190611f6c565b610cd3565b6040516105a79190612810565b60405180910390f35b6105ca60048036038101906105c59190611f3f565b610d5a565b005b60007f7965db0b000000000000000000000000000000000000000000000000000000007bffffffffffffffffffffffffffffffffffffffffffffffffffffffff1916827bffffffffffffffffffffffffffffffffffffffffffffffffffffffff1916148061063f575061063e82610dde565b5b9050919050565b60606004805461065590612a05565b80601f016020809104026020016040519081016040528092919081815260200182805461068190612a05565b80156106ce5780601f106106a3576101008083540402835291602001916106ce565b820191906000526020600020905b8154815290600101906020018083116106b157829003601f168201915b5050505050905090565b6000806106e3610e48565b90506106f0818585610e50565b600191505092915050565b6000600354905090565b60085481565b600080610716610e48565b905061072385828561101b565b61072e8585856110a7565b60019150509392505050565b600060066000838152602001908152602001600020600101549050919050565b6107638261073a565b61076c81611322565b6107768383611336565b505050565b60006012905090565b61078c610e48565b73ffffffffffffffffffffffffffffffffffffffff168173ffffffffffffffffffffffffffffffffffffffff16146107f9576040517f08c379a00000000000000000000000000000000000000000000000000000000081526004016107f0906127d0565b60405180910390fd5b6108038282611417565b5050565b600080610812610e48565b90506108338185856108248589610cd3565b61082e919061286d565b610e50565b600191505092915050565b6108466114f9565b83600960146101000a81548160ff02191690831515021790555082600960006101000a81548173ffffffffffffffffffffffffffffffffffffffff021916908373ffffffffffffffffffffffffffffffffffffffff16021790555081600781905550806008819055507f7fa72628e287e573a9526236ca97cfac9767bdbad4290de9942e95ea027fc4b1848484846040516108e4949392919061254e565b60405180910390a150505050565b7f9f2df0fed2c77648de5860a4cc508cd0818c85b8b8a1ab4ceeef8d981c8956a661091c81611322565b600a54826109286106fb565b610932919061286d565b1115610973576040517f08c379a000000000000000000000000000000000000000000000000000000000815260040161096a90612630565b60405180910390fd5b61097d8383611577565b8273ffffffffffffffffffffffffffffffffffffffff167f30385c845b448a36257a6a1716e6ad2e1bc2cbe333cde1e69fe849ad6511adfe836040516109c39190612810565b60405180910390a2505050565b6109da33826116cf565b3373ffffffffffffffffffffffffffffffffffffffff167f919f7e2092ffcc9d09f599be18d8152860b0c054df788a33bc549cdd9d0f15b182604051610a209190612810565b60405180910390a250565b600960009054906101000a900473ffffffffffffffffffffffffffffffffffffffff1681565b6000600160008373ffffffffffffffffffffffffffffffffffffffff1673ffffffffffffffffffffffffffffffffffffffff168152602001908152602001600020549050919050565b610aa26114f9565b610aac600061189f565b565b600960149054906101000a900460ff1681565b60075481565b60008060009054906101000a900473ffffffffffffffffffffffffffffffffffffffff16905090565b60006006600084815260200190815260200160002060000160008373ffffffffffffffffffffffffffffffffffffffff1673ffffffffffffffffffffffffffffffffffffffff16815260200190815260200160002060009054906101000a900460ff16905092915050565b606060058054610b6a90612a05565b80601f0160208091040260200160405190810160405280929190818152602001828054610b9690612a05565b8015610be35780601f10610bb857610100808354040283529160200191610be3565b820191906000526020600020905b815481529060010190602001808311610bc657829003601f168201915b5050505050905090565b6000801b81565b600080610bff610e48565b90506000610c0d8286610cd3565b905083811015610c52576040517f08c379a0000000000000000000000000000000000000000000000000000000008152600401610c49906127b0565b60405180910390fd5b610c5f8286868403610e50565b60019250505092915050565b600080610c76610e48565b9050610c838185856110a7565b600191505092915050565b7f9f2df0fed2c77648de5860a4cc508cd0818c85b8b8a1ab4ceeef8d981c8956a681565b610cbb8261073a565b610cc481611322565b610cce8383611417565b505050565b6000600260008473ffffffffffffffffffffffffffffffffffffffff1673ffffffffffffffffffffffffffffffffffffffff16815260200190815260200160002060008373ffffffffffffffffffffffffffffffffffffffff1673ffffffffffffffffffffffffffffffffffffffff16815260200190815260200160002054905092915050565b610d626114f9565b600073ffffffffffffffffffffffffffffffffffffffff168173ffffffffffffffffffffffffffffffffffffffff161415610dd2576040517f08c379a0000000000000000000000000000000000000000000000000000000008152600401610dc9906126f0565b60405180910390fd5b610ddb81611963565b50565b60007f01ffc9a7000000000000000000000000000000000000000000000000000000007bffffffffffffffffffffffffffffffffffffffffffffffffffffffff1916827bffffffffffffffffffffffffffffffffffffffffffffffffffffffff1916149050919050565b600033905090565b600073ffffffffffffffffffffffffffffffffffffffff168373ffffffffffffffffffffffffffffffffffffffff161415610ec0576040517f08c379a0000000000000000000000000000000000000000000000000000000008152600401610eb790612790565b60405180910390fd5b600073ffffffffffffffffffffffffffffffffffffffff168273ffffffffffffffffffffffffffffffffffffffff161415610f30576040517f08c379a0000000000000000000000000000000000000000000000000000000008152600401610f2790612670565b60405180910390fd5b80600260008573ffffffffffffffffffffffffffffffffffffffff1673ffffffffffffffffffffffffffffffffffffffff16815260200190815260200160002060008473ffffffffffffffffffffffffffffffffffffffff1673ffffffffffffffffffffffffffffffffffffffff168152602001908152602001600020819055508173ffffffffffffffffffffffffffffffffffffffff168373ffffffffffffffffffffffffffffffffffffffff167f8c5be1e5ebec7d5bd14f71427d1e84f3dd0314c0f7b2291e5b200ac8c7c3b9258360405161100e9190612810565b60405180910390a3505050565b60006110278484610cd3565b90507fffffffffffffffffffffffffffffffffffffffffffffffffffffffffffffffff81146110a15781811015611093576040517f08c379a000000000000000000000000000000000000000000000000000000000815260040161108a90612690565b60405180910390fd5b6110a08484848403610e50565b5b50505050565b600073ffffffffffffffffffffffffffffffffffffffff168373ffffffffffffffffffffffffffffffffffffffff161415611117576040517f08c379a000000000000000000000000000000000000000000000000000000000815260040161110e90612770565b60405180910390fd5b600073ffffffffffffffffffffffffffffffffffffffff168273ffffffffffffffffffffffffffffffffffffffff161415611187576040517f08c379a000000000000000000000000000000000000000000000000000000000815260040161117e906125f0565b60405180910390fd5b6111928383836119e7565b6000600160008573ffffffffffffffffffffffffffffffffffffffff1673ffffffffffffffffffffffffffffffffffffffff16815260200190815260200160002054905081811015611219576040517f08c379a0000000000000000000000000000000000000000000000000000000008152600401611210906126b0565b60405180910390fd5b818103600160008673ffffffffffffffffffffffffffffffffffffffff1673ffffffffffffffffffffffffffffffffffffffff1681526020019081526020016000208190555081600160008573ffffffffffffffffffffffffffffffffffffffff1673ffffffffffffffffffffffffffffffffffffffff168152602001908152602001600020600082825401925050819055508273ffffffffffffffffffffffffffffffffffffffff168473ffffffffffffffffffffffffffffffffffffffff167fddf252ad1be2c89b69c2b068fc378daa952ba7f163c4a11628f55a4df523b3ef846040516113099190612810565b60405180910390a361131c848484611be3565b50505050565b6113338161132e610e48565b611be8565b50565b6113408282610af0565b6114135760016006600084815260200190815260200160002060000160008373ffffffffffffffffffffffffffffffffffffffff1673ffffffffffffffffffffffffffffffffffffffff16815260200190815260200160002060006101000a81548160ff0219169083151502179055506113b8610e48565b73ffffffffffffffffffffffffffffffffffffffff168173ffffffffffffffffffffffffffffffffffffffff16837f2f8788117e7eff1d82e926ec794901d17c78024a50270940304540a733656f0d60405160405180910390a45b5050565b6114218282610af0565b156114f55760006006600084815260200190815260200160002060000160008373ffffffffffffffffffffffffffffffffffffffff1673ffffffffffffffffffffffffffffffffffffffff16815260200190815260200160002060006101000a81548160ff02191690831515021790555061149a610e48565b73ffffffffffffffffffffffffffffffffffffffff168173ffffffffffffffffffffffffffffffffffffffff16837ff6391f5c32d9c69d2a47ea670b442974b53935d1edc7fd64eb21e047a839171b60405160405180910390a45b5050565b611501610e48565b73ffffffffffffffffffffffffffffffffffffffff1661151f610ac7565b73ffffffffffffffffffffffffffffffffffffffff1614611575576040517f08c379a000000000000000000000000000000000000000000000000000000000815260040161156c90612710565b60405180910390fd5b565b600073ffffffffffffffffffffffffffffffffffffffff168273ffffffffffffffffffffffffffffffffffffffff1614156115e7576040517f08c379a00000000000000000000000000000000000000000000000000000000081526004016115de906127f0565b60405180910390fd5b6115f3600083836119e7565b8060036000828254611605919061286d565b9250508190555080600160008473ffffffffffffffffffffffffffffffffffffffff1673ffffffffffffffffffffffffffffffffffffffff168152602001908152602001600020600082825401925050819055508173ffffffffffffffffffffffffffffffffffffffff16600073ffffffffffffffffffffffffffffffffffffffff167fddf252ad1be2c89b69c2b068fc378daa952ba7f163c4a11628f55a4df523b3ef836040516116b79190612810565b60405180910390a36116cb60008383611be3565b5050565b600073ffffffffffffffffffffffffffffffffffffffff168273ffffffffffffffffffffffffffffffffffffffff16141561173f576040517f08c379a000000000000000000000000000000000000000000000000000000000815260040161173690612730565b60405180910390fd5b61174b826000836119e7565b6000600160008473ffffffffffffffffffffffffffffffffffffffff1673ffffffffffffffffffffffffffffffffffffffff168152602001908152602001600020549050818110156117d2576040517f08c379a00000000000000000000000000000000000000000000000000000000081526004016117c990612610565b60405180910390fd5b818103600160008573ffffffffffffffffffffffffffffffffffffffff1673ffffffffffffffffffffffffffffffffffffffff1681526020019081526020016000208190555081600360008282540392505081905550600073ffffffffffffffffffffffffffffffffffffffff168373ffffffffffffffffffffffffffffffffffffffff167fddf252ad1be2c89b69c2b068fc378daa952ba7f163c4a11628f55a4df523b3ef846040516118869190612810565b60405180910390a361189a83600084611be3565b505050565b60008060009054906101000a900473ffffffffffffffffffffffffffffffffffffffff169050816000806101000a81548173ffffffffffffffffffffffffffffffffffffffff021916908373ffffffffffffffffffffffffffffffffffffffff1602179055508173ffffffffffffffffffffffffffffffffffffffff168173ffffffffffffffffffffffffffffffffffffffff167f8be0079c531659141344cd1fd0a4f28419497f9722a3daafe3b4186f6b6457e060405160405180910390a35050565b61196b6114f9565b600073ffffffffffffffffffffffffffffffffffffffff168173ffffffffffffffffffffffffffffffffffffffff1614156119db576040517f08c379a00000000000000000000000000000000000000000000000000000000081526004016119d290612650565b60405180910390fd5b6119e48161189f565b50565b600073ffffffffffffffffffffffffffffffffffffffff16600960009054906101000a900473ffffffffffffffffffffffffffffffffffffffff1673ffffffffffffffffffffffffffffffffffffffff161415611af557611a46610ac7565b73ffffffffffffffffffffffffffffffffffffffff168373ffffffffffffffffffffffffffffffffffffffff161480611ab15750611a82610ac7565b73ffffffffffffffffffffffffffffffffffffffff168273ffffffffffffffffffffffffffffffffffffffff16145b611af0576040517f08c379a0000000000000000000000000000000000000000000000000000000008152600401611ae790612750565b60405180910390fd5b611bde565b600960149054906101000a900460ff168015611b5e5750600960009054906101000a900473ffffffffffffffffffffffffffffffffffffffff1673ffffffffffffffffffffffffffffffffffffffff168373ffffffffffffffffffffffffffffffffffffffff16145b15611bdd5760075481611b7084610a51565b611b7a919061286d565b11158015611b9d575060085481611b9084610a51565b611b9a919061286d565b10155b611bdc576040517f08c379a0000000000000000000000000000000000000000000000000000000008152600401611bd3906126d0565b60405180910390fd5b5b5b505050565b505050565b611bf28282610af0565b611c6957611bff81611c6d565b611c0d8360001c6020611c9a565b604051602001611c1e9291906124de565b6040516020818303038152906040526040517f08c379a0000000000000000000000000000000000000000000000000000000008152600401611c6091906125ae565b60405180910390fd5b5050565b6060611c938273ffffffffffffffffffffffffffffffffffffffff16601460ff16611c9a565b9050919050565b606060006002836002611cad91906128c3565b611cb7919061286d565b67ffffffffffffffff811115611cd057611ccf612ac4565b5b6040519080825280601f01601f191660200182016040528015611d025781602001600182028036833780820191505090505b5090507f300000000000000000000000000000000000000000000000000000000000000081600081518110611d3a57611d39612a95565b5b60200101907effffffffffffffffffffffffffffffffffffffffffffffffffffffffffffff1916908160001a9053507f780000000000000000000000000000000000000000000000000000000000000081600181518110611d9e57611d9d612a95565b5b60200101907effffffffffffffffffffffffffffffffffffffffffffffffffffffffffffff1916908160001a90535060006001846002611dde91906128c3565b611de8919061286d565b90505b6001811115611e88577f3031323334353637383961626364656600000000000000000000000000000000600f861660108110611e2a57611e29612a95565b5b1a60f81b828281518110611e4157611e40612a95565b5b60200101907effffffffffffffffffffffffffffffffffffffffffffffffffffffffffffff1916908160001a905350600485901c945080611e81906129db565b9050611deb565b5060008414611ecc576040517f08c379a0000000000000000000000000000000000000000000000000000000008152600401611ec3906125d0565b60405180910390fd5b8091505092915050565b600081359050611ee581612fb9565b92915050565b600081359050611efa81612fd0565b92915050565b600081359050611f0f81612fe7565b92915050565b600081359050611f2481612ffe565b92915050565b600081359050611f3981613015565b92915050565b600060208284031215611f5557611f54612af3565b5b6000611f6384828501611ed6565b91505092915050565b60008060408385031215611f8357611f82612af3565b5b6000611f9185828601611ed6565b9250506020611fa285828601611ed6565b9150509250929050565b600080600060608486031215611fc557611fc4612af3565b5b6000611fd386828701611ed6565b9350506020611fe486828701611ed6565b9250506040611ff586828701611f2a565b9150509250925092565b6000806040838503121561201657612015612af3565b5b600061202485828601611ed6565b925050602061203585828601611f2a565b9150509250929050565b6000806000806080858703121561205957612058612af3565b5b600061206787828801611eeb565b945050602061207887828801611ed6565b935050604061208987828801611f2a565b925050606061209a87828801611f2a565b91505092959194509250565b6000602082840312156120bc576120bb612af3565b5b60006120ca84828501611f00565b91505092915050565b600080604083850312156120ea576120e9612af3565b5b60006120f885828601611f00565b925050602061210985828601611ed6565b9150509250929050565b60006020828403121561212957612128612af3565b5b600061213784828501611f15565b91505092915050565b60006020828403121561215657612155612af3565b5b600061216484828501611f2a565b91505092915050565b6121768161291d565b82525050565b6121858161292f565b82525050565b6121948161293b565b82525050565b60006121a582612846565b6121af8185612851565b93506121bf8185602086016129a8565b6121c881612af8565b840191505092915050565b60006121de82612846565b6121e88185612862565b93506121f88185602086016129a8565b80840191505092915050565b6000612211602083612851565b915061221c82612b09565b602082019050919050565b6000612234602383612851565b915061223f82612b32565b604082019050919050565b6000612257602283612851565b915061226282612b81565b604082019050919050565b600061227a601283612851565b915061228582612bd0565b602082019050919050565b600061229d602683612851565b91506122a882612bf9565b604082019050919050565b60006122c0602283612851565b91506122cb82612c48565b604082019050919050565b60006122e3601d83612851565b91506122ee82612c97565b602082019050919050565b6000612306602683612851565b915061231182612cc0565b604082019050919050565b6000612329600683612851565b915061233482612d0f565b602082019050919050565b600061234c601183612851565b915061235782612d38565b602082019050919050565b600061236f602083612851565b915061237a82612d61565b602082019050919050565b6000612392602183612851565b915061239d82612d8a565b604082019050919050565b60006123b5601683612851565b91506123c082612dd9565b602082019050919050565b60006123d8602583612851565b91506123e382612e02565b604082019050919050565b60006123fb602483612851565b915061240682612e51565b604082019050919050565b600061241e601783612862565b915061242982612ea0565b601782019050919050565b6000612441602583612851565b915061244c82612ec9565b604082019050919050565b6000612464601183612862565b915061246f82612f18565b601182019050919050565b6000612487602f83612851565b915061249282612f41565b604082019050919050565b60006124aa601f83612851565b91506124b582612f90565b602082019050919050565b6124c981612991565b82525050565b6124d88161299b565b82525050565b60006124e982612411565b91506124f582856121d3565b915061250082612457565b915061250c82846121d3565b91508190509392505050565b600060208201905061252d600083018461216d565b92915050565b6000602082019050612548600083018461217c565b92915050565b6000608082019050612563600083018761217c565b612570602083018661216d565b61257d60408301856124c0565b61258a60608301846124c0565b95945050505050565b60006020820190506125a8600083018461218b565b92915050565b600060208201905081810360008301526125c8818461219a565b905092915050565b600060208201905081810360008301526125e981612204565b9050919050565b6000602082019050818103600083015261260981612227565b9050919050565b600060208201905081810360008301526126298161224a565b9050919050565b600060208201905081810360008301526126498161226d565b9050919050565b6000602082019050818103600083015261266981612290565b9050919050565b60006020820190508181036000830152612689816122b3565b9050919050565b600060208201905081810360008301526126a9816122d6565b9050919050565b600060208201905081810360008301526126c9816122f9565b9050919050565b600060208201905081810360008301526126e98161231c565b9050919050565b600060208201905081810360008301526127098161233f565b9050919050565b6000602082019050818103600083015261272981612362565b9050919050565b6000602082019050818103600083015261274981612385565b9050919050565b60006020820190508181036000830152612769816123a8565b9050919050565b60006020820190508181036000830152612789816123cb565b9050919050565b600060208201905081810360008301526127a9816123ee565b9050919050565b600060208201905081810360008301526127c981612434565b9050919050565b600060208201905081810360008301526127e98161247a565b9050919050565b600060208201905081810360008301526128098161249d565b9050919050565b600060208201905061282560008301846124c0565b92915050565b600060208201905061284060008301846124cf565b92915050565b600081519050919050565b600082825260208201905092915050565b600081905092915050565b600061287882612991565b915061288383612991565b9250827fffffffffffffffffffffffffffffffffffffffffffffffffffffffffffffffff038211156128b8576128b7612a37565b5b828201905092915050565b60006128ce82612991565b91506128d983612991565b9250817fffffffffffffffffffffffffffffffffffffffffffffffffffffffffffffffff048311821515161561291257612911612a37565b5b828202905092915050565b600061292882612971565b9050919050565b60008115159050919050565b6000819050919050565b60007fffffffff0000000000000000000000000000000000000000000000000000000082169050919050565b600073ffffffffffffffffffffffffffffffffffffffff82169050919050565b6000819050919050565b600060ff82169050919050565b60005b838110156129c65780820151818401526020810190506129ab565b838111156129d5576000848401525b50505050565b60006129e682612991565b915060008214156129fa576129f9612a37565b5b600182039050919050565b60006002820490506001821680612a1d57607f821691505b60208210811415612a3157612a30612a66565b5b50919050565b7f4e487b7100000000000000000000000000000000000000000000000000000000600052601160045260246000fd5b7f4e487b7100000000000000000000000000000000000000000000000000000000600052602260045260246000fd5b7f4e487b7100000000000000000000000000000000000000000000000000000000600052603260045260246000fd5b7f4e487b7100000000000000000000000000000000000000000000000000000000600052604160045260246000fd5b600080fd5b6000601f19601f8301169050919050565b7f537472696e67733a20686578206c656e67746820696e73756666696369656e74600082015250565b7f45524332303a207472616e7366657220746f20746865207a65726f206164647260008201527f6573730000000000000000000000000000000000000000000000000000000000602082015250565b7f45524332303a206275726e20616d6f756e7420657863656564732062616c616e60008201527f6365000000000000000000000000000000000000000000000000000000000000602082015250565b7f546f6b656e206361702065786365656465640000000000000000000000000000600082015250565b7f4f776e61626c653a206e6577206f776e657220697320746865207a65726f206160008201527f6464726573730000000000000000000000000000000000000000000000000000602082015250565b7f45524332303a20617070726f766520746f20746865207a65726f20616464726560008201527f7373000000000000000000000000000000000000000000000000000000000000602082015250565b7f45524332303a20696e73756666696369656e7420616c6c6f77616e6365000000600082015250565b7f45524332303a207472616e7366657220616d6f756e742065786365656473206260008201527f616c616e63650000000000000000000000000000000000000000000000000000602082015250565b7f466f726269640000000000000000000000000000000000000000000000000000600082015250565b7f496e76616c6964206e6577206f776e6572000000000000000000000000000000600082015250565b7f4f776e61626c653a2063616c6c6572206973206e6f7420746865206f776e6572600082015250565b7f45524332303a206275726e2066726f6d20746865207a65726f2061646472657360008201527f7300000000000000000000000000000000000000000000000000000000000000602082015250565b7f74726164696e67206973206e6f74207374617274656400000000000000000000600082015250565b7f45524332303a207472616e736665722066726f6d20746865207a65726f20616460008201527f6472657373000000000000000000000000000000000000000000000000000000602082015250565b7f45524332303a20617070726f76652066726f6d20746865207a65726f2061646460008201527f7265737300000000000000000000000000000000000000000000000000000000602082015250565b7f416363657373436f6e74726f6c3a206163636f756e7420000000000000000000600082015250565b7f45524332303a2064656372656173656420616c6c6f77616e63652062656c6f7760008201527f207a65726f000000000000000000000000000000000000000000000000000000602082015250565b7f206973206d697373696e6720726f6c6520000000000000000000000000000000600082015250565b7f416363657373436f6e74726f6c3a2063616e206f6e6c792072656e6f756e636560008201527f20726f6c657320666f722073656c660000000000000000000000000000000000602082015250565b7f45524332303a206d696e7420746f20746865207a65726f206164647265737300600082015250565b612fc28161291d565b8114612fcd57600080fd5b50565b612fd98161292f565b8114612fe457600080fd5b50565b612ff08161293b565b8114612ffb57600080fd5b50565b61300781612945565b811461301257600080fd5b50565b61301e81612991565b811461302957600080fd5b5056fea26469706673582212201a8c70297776c0e49c43ed95163720b62ca1a322c9fbd0051da5b3314e5845fa64736f6c63430008070033",
  "immutableReferences": {},
  "source": "// SPDX-License-Identifier: MIT\npragma solidity ^0.8.0;\n\n// Importing the ERC20, Ownable, and AccessControl contracts from OpenZeppelin\nimport \"@openzeppelin/contracts/token/ERC20/ERC20.sol\";\nimport \"@openzeppelin/contracts/access/Ownable.sol\";\nimport \"@openzeppelin/contracts/access/AccessControl.sol\";\n\n// PepesOfTheGalaxyToken is a custom token that extends the ERC20, Ownable, and AccessControl contracts\ncontract PepesOfTheGalaxyToken is Ownable, ERC20, AccessControl {\n    // Public variables that can be read from outside the contract\n    uint256 public maxHoldingAmount; // The maximum amount of tokens a single address can hold\n    uint256 public minHoldingAmount; // The minimum amount of tokens a single address must hold\n    address public uniswapV2Pair; // The Uniswap v2 pair for this token\n    bool public limited; // Boolean variable to check if token transfers are limited\n    uint256 private tokenCap; // The maximum total supply of the token\n    bytes32 public constant MINTER_ROLE = keccak256(\"MINTER_ROLE\"); // A constant for the minter role\n\n    // Events\n    event RulesSet(bool _limited, address _uniswapV2Pair, uint256 _maxHoldingAmount, uint256 _minHoldingAmount);\n    event Burnt(address indexed account, uint256 value);\n    event Minted(address indexed account, uint256 amount);\n\n    // Constructor function that is called once when the contract is deployed\n    constructor(uint256 _totalSupply, uint256 _tokenCap) ERC20(\"Pepes of the Galaxy\", \"PEPEG\") {\n        _mint(msg.sender, _totalSupply); // Mint the initial total supply to the contract deployer\n        tokenCap = _tokenCap; // Set the maximum total supply of the token\n        _setupRole(DEFAULT_ADMIN_ROLE, msg.sender); // Assign the default admin role to the contract deployer\n    }\n\n    // Function to set the trading rules for the token\n    function setRule(bool _limited, address _uniswapV2Pair, uint256 _maxHoldingAmount, uint256 _minHoldingAmount) external onlyOwner {\n        limited = _limited; // Set whether token transfers are limited\n        uniswapV2Pair = _uniswapV2Pair; // Set the Uniswap v2 pair for this token\n        maxHoldingAmount = _maxHoldingAmount; // Set the maximum holding amount\n        minHoldingAmount = _minHoldingAmount; // Set the minimum holding amount\n        emit RulesSet(_limited, _uniswapV2Pair, _maxHoldingAmount, _minHoldingAmount); // Emit the RulesSet event\n    }\n\n    // Internal function that is called before any transfer of tokens\n    function _beforeTokenTransfer(address from, address to, uint256 amount) internal virtual override {\n        // If trading is not started, only allow transfers from or to the owner\n        if (uniswapV2Pair == address(0)) {\n            require(from == owner() || to == owner(), \"trading is not started\");\n            return;\n        }\n        // If token transfers are limited and tokens are being bought from Uniswap, check the holding restrictions\n        if (limited && from == uniswapV2Pair) {\n            require(super.balanceOf(to) + amount <= maxHoldingAmount && super.balanceOf(to) + amount >= minHoldingAmount, \"Forbid\");\n        }\n    }\n\n    // Function to burn tokens from the caller's balance\n    function burn(uint256 value) external {\n        _burn(msg.sender, value); // Burn the specified amount of tokens from the caller's balance\n        emit Burnt(msg.sender, value); // Emit the Burnt event\n    }\n\n    // Function to transfer the ownership of the contract\n    function transferOwnership(address newOwner) public override onlyOwner {\n        require(newOwner != address(0), \"Invalid new owner\"); // The new owner's address must not be the zero address\n        super.transferOwnership(newOwner); // Transfer the ownership to the new address\n    }\n\n    // Function to mint new tokens\n    function mint(address account, uint256 amount) external onlyRole(MINTER_ROLE) {\n        require(totalSupply() + amount <= tokenCap, \"Token cap exceeded\"); // The total supply after minting the new tokens must not exceed the token cap\n        _mint(account, amount); // Mint the new tokens to the specified account\n        emit Minted(account, amount); // Emit the Minted event\n    }\n}\n",
  "sourcePath": "/Users/caterung/token/contracts/PepesOfTheGalaxyToken.sol",
  "compiler": {
    "name": "solc",
    "version": "0.8.7+commit.e28d00a7.Emscripten.clang"
  },
  "schemaVersion": "3.4.14",
  "updatedAt": "2023-05-29T06:16:21.134Z",
  "networkType": "ethereum",
  "devdoc": {
    "kind": "dev",
    "methods": {
      "allowance(address,address)": {
        "details": "See {IERC20-allowance}."
      },
      "approve(address,uint256)": {
        "details": "See {IERC20-approve}. NOTE: If `amount` is the maximum `uint256`, the allowance is not updated on `transferFrom`. This is semantically equivalent to an infinite approval. Requirements: - `spender` cannot be the zero address."
      },
      "balanceOf(address)": {
        "details": "See {IERC20-balanceOf}."
      },
      "decimals()": {
        "details": "Returns the number of decimals used to get its user representation. For example, if `decimals` equals `2`, a balance of `505` tokens should be displayed to a user as `5.05` (`505 / 10 ** 2`). Tokens usually opt for a value of 18, imitating the relationship between Ether and Wei. This is the default value returned by this function, unless it's overridden. NOTE: This information is only used for _display_ purposes: it in no way affects any of the arithmetic of the contract, including {IERC20-balanceOf} and {IERC20-transfer}."
      },
      "decreaseAllowance(address,uint256)": {
        "details": "Atomically decreases the allowance granted to `spender` by the caller. This is an alternative to {approve} that can be used as a mitigation for problems described in {IERC20-approve}. Emits an {Approval} event indicating the updated allowance. Requirements: - `spender` cannot be the zero address. - `spender` must have allowance for the caller of at least `subtractedValue`."
      },
      "getRoleAdmin(bytes32)": {
        "details": "Returns the admin role that controls `role`. See {grantRole} and {revokeRole}. To change a role's admin, use {_setRoleAdmin}."
      },
      "grantRole(bytes32,address)": {
        "details": "Grants `role` to `account`. If `account` had not been already granted `role`, emits a {RoleGranted} event. Requirements: - the caller must have ``role``'s admin role. May emit a {RoleGranted} event."
      },
      "hasRole(bytes32,address)": {
        "details": "Returns `true` if `account` has been granted `role`."
      },
      "increaseAllowance(address,uint256)": {
        "details": "Atomically increases the allowance granted to `spender` by the caller. This is an alternative to {approve} that can be used as a mitigation for problems described in {IERC20-approve}. Emits an {Approval} event indicating the updated allowance. Requirements: - `spender` cannot be the zero address."
      },
      "name()": {
        "details": "Returns the name of the token."
      },
      "owner()": {
        "details": "Returns the address of the current owner."
      },
      "renounceOwnership()": {
        "details": "Leaves the contract without owner. It will not be possible to call `onlyOwner` functions. Can only be called by the current owner. NOTE: Renouncing ownership will leave the contract without an owner, thereby disabling any functionality that is only available to the owner."
      },
      "renounceRole(bytes32,address)": {
        "details": "Revokes `role` from the calling account. Roles are often managed via {grantRole} and {revokeRole}: this function's purpose is to provide a mechanism for accounts to lose their privileges if they are compromised (such as when a trusted device is misplaced). If the calling account had been revoked `role`, emits a {RoleRevoked} event. Requirements: - the caller must be `account`. May emit a {RoleRevoked} event."
      },
      "revokeRole(bytes32,address)": {
        "details": "Revokes `role` from `account`. If `account` had been granted `role`, emits a {RoleRevoked} event. Requirements: - the caller must have ``role``'s admin role. May emit a {RoleRevoked} event."
      },
      "supportsInterface(bytes4)": {
        "details": "See {IERC165-supportsInterface}."
      },
      "symbol()": {
        "details": "Returns the symbol of the token, usually a shorter version of the name."
      },
      "totalSupply()": {
        "details": "See {IERC20-totalSupply}."
      },
      "transfer(address,uint256)": {
        "details": "See {IERC20-transfer}. Requirements: - `to` cannot be the zero address. - the caller must have a balance of at least `amount`."
      },
      "transferFrom(address,address,uint256)": {
        "details": "See {IERC20-transferFrom}. Emits an {Approval} event indicating the updated allowance. This is not required by the EIP. See the note at the beginning of {ERC20}. NOTE: Does not update the allowance if the current allowance is the maximum `uint256`. Requirements: - `from` and `to` cannot be the zero address. - `from` must have a balance of at least `amount`. - the caller must have allowance for ``from``'s tokens of at least `amount`."
      },
      "transferOwnership(address)": {
        "details": "Transfers ownership of the contract to a new account (`newOwner`). Can only be called by the current owner."
      }
    },
    "version": 1
  },
  "userdoc": {
    "kind": "user",
    "methods": {},
    "version": 1
  }
}