{
  "contractName": "PepesOfTheGalaxyLaunchPool",
  "abi": [
    {
      "inputs": [
        {
          "internalType": "address",
          "name": "tokenAddress",
          "type": "address"
        }
      ],
      "stateMutability": "nonpayable",
      "type": "constructor"
    },
    {
      "anonymous": false,
      "inputs": [
        {
          "indexed": true,
          "internalType": "address",
          "name": "previousOwner",
          "type": "address"
        },
        {
          "indexed": true,
          "internalType": "address",
          "name": "newOwner",
          "type": "address"
        }
      ],
      "name": "OwnershipTransferred",
      "type": "event"
    },
    {
      "anonymous": false,
      "inputs": [
        {
          "indexed": false,
          "internalType": "address",
          "name": "account",
          "type": "address"
        }
      ],
      "name": "Paused",
      "type": "event"
    },
    {
      "anonymous": false,
      "inputs": [
        {
          "indexed": false,
          "internalType": "address",
          "name": "account",
          "type": "address"
        }
      ],
      "name": "Unpaused",
      "type": "event"
    },
    {
      "inputs": [],
      "name": "STAKING_PERIOD",
      "outputs": [
        {
          "internalType": "uint256",
          "name": "",
          "type": "uint256"
        }
      ],
      "stateMutability": "view",
      "type": "function"
    },
    {
      "inputs": [],
      "name": "owner",
      "outputs": [
        {
          "internalType": "address",
          "name": "",
          "type": "address"
        }
      ],
      "stateMutability": "view",
      "type": "function"
    },
    {
      "inputs": [],
      "name": "paused",
      "outputs": [
        {
          "internalType": "bool",
          "name": "",
          "type": "bool"
        }
      ],
      "stateMutability": "view",
      "type": "function"
    },
    {
      "inputs": [],
      "name": "renounceOwnership",
      "outputs": [],
      "stateMutability": "nonpayable",
      "type": "function"
    },
    {
      "inputs": [
        {
          "internalType": "address",
          "name": "",
          "type": "address"
        }
      ],
      "name": "stakeTime",
      "outputs": [
        {
          "internalType": "uint256",
          "name": "",
          "type": "uint256"
        }
      ],
      "stateMutability": "view",
      "type": "function"
    },
    {
      "inputs": [
        {
          "internalType": "address",
          "name": "",
          "type": "address"
        }
      ],
      "name": "stakes",
      "outputs": [
        {
          "internalType": "uint256",
          "name": "",
          "type": "uint256"
        }
      ],
      "stateMutability": "view",
      "type": "function"
    },
    {
      "inputs": [],
      "name": "token",
      "outputs": [
        {
          "internalType": "contract PepesOfTheGalaxyToken",
          "name": "",
          "type": "address"
        }
      ],
      "stateMutability": "view",
      "type": "function"
    },
    {
      "inputs": [],
      "name": "totalStaked",
      "outputs": [
        {
          "internalType": "uint256",
          "name": "",
          "type": "uint256"
        }
      ],
      "stateMutability": "view",
      "type": "function"
    },
    {
      "inputs": [
        {
          "internalType": "address",
          "name": "newOwner",
          "type": "address"
        }
      ],
      "name": "transferOwnership",
      "outputs": [],
      "stateMutability": "nonpayable",
      "type": "function"
    },
    {
      "inputs": [],
      "name": "stake",
      "outputs": [],
      "stateMutability": "payable",
      "type": "function"
    },
    {
      "inputs": [],
      "name": "claimAndWithdraw",
      "outputs": [],
      "stateMutability": "nonpayable",
      "type": "function"
    },
    {
      "inputs": [],
      "name": "pause",
      "outputs": [],
      "stateMutability": "nonpayable",
      "type": "function"
    },
    {
      "inputs": [],
      "name": "unpause",
      "outputs": [],
      "stateMutability": "nonpayable",
      "type": "function"
    }
  ],
  "bytecode": "0x608060405234801561001057600080fd5b50604051610adb380380610adb83398101604081905261002f916100be565b6100383361006e565b6000805460ff60a01b1916905560018055600580546001600160a01b0319166001600160a01b03929092169190911790556100ee565b600080546001600160a01b038381166001600160a01b0319831681178455604051919092169283917f8be0079c531659141344cd1fd0a4f28419497f9722a3daafe3b4186f6b6457e09190a35050565b6000602082840312156100d057600080fd5b81516001600160a01b03811681146100e757600080fd5b9392505050565b6109de806100fd6000396000f3fe6080604052600436106100c25760003560e01c8063715018a61161007f5780638da5cb5b116100595780638da5cb5b146101d4578063aead9e4714610206578063f2fde38b1461021b578063fc0c546a1461023b57600080fd5b8063715018a614610194578063817b1cd2146101a95780638456cb59146101bf57600080fd5b80630104db1b146100c757806316934fc4146100f15780632170e4721461011e5780633a4b66f11461014b5780633f4ba83a146101555780635c975abb1461016a575b600080fd5b3480156100d357600080fd5b506100de62093a8081565b6040519081526020015b60405180910390f35b3480156100fd57600080fd5b506100de61010c3660046108be565b60026020526000908152604090205481565b34801561012a57600080fd5b506100de6101393660046108be565b60036020526000908152604090205481565b61015361025b565b005b34801561016157600080fd5b50610153610317565b34801561017657600080fd5b50600054600160a01b900460ff1660405190151581526020016100e8565b3480156101a057600080fd5b50610153610327565b3480156101b557600080fd5b506100de60045481565b3480156101cb57600080fd5b50610153610339565b3480156101e057600080fd5b506000546001600160a01b03165b6040516001600160a01b0390911681526020016100e8565b34801561021257600080fd5b50610153610349565b34801561022757600080fd5b506101536102363660046108be565b6105d5565b34801561024757600080fd5b506005546101ee906001600160a01b031681565b61026361064e565b61026b61069b565b600034116102c05760405162461bcd60e51b815260206004820152601c60248201527f4d757374207374616b65206120706f73697469766520616d6f756e740000000060448201526064015b60405180910390fd5b336000908152600260205260409020546102da90346106f5565b336000908152600260205260409020556004546102f790346106f5565b60045533600090815260036020526040902042905561031560018055565b565b61031f610708565b610315610762565b61032f610708565b61031560006107b7565b610341610708565b610315610807565b61035161064e565b61035961069b565b336000908152600360205260409020546103779062093a8090610922565b4210156103c65760405162461bcd60e51b815260206004820152601b60248201527f5374616b696e6720706572696f64206e6f7420796574206f766572000000000060448201526064016102b7565b33600090815260026020526040902054806104175760405162461bcd60e51b81526020600482015260116024820152704e6f207374616b6520746f20636c61696d60781b60448201526064016102b7565b600480546005546040516370a0823160e01b815230938101939093526000926104b092916104aa9186916001600160a01b0316906370a082319060240160206040518083038186803b15801561046c57600080fd5b505afa158015610480573d6000803e3d6000fd5b505050506040513d601f19601f820116820180604052508101906104a49190610909565b9061084a565b90610856565b33600090815260036020526040812054919250906104cf904290610862565b905060006104e462093a806104aa858561084a565b90506104f083826106f5565b336000908152600260205260408120556004549093506105109085610862565b600490815560055460405163a9059cbb60e01b81523392810192909252602482018590526001600160a01b03169063a9059cbb90604401602060405180830381600087803b15801561056157600080fd5b505af1158015610575573d6000803e3d6000fd5b505050506040513d601f19601f8201168201806040525081019061059991906108e7565b50604051339085156108fc029086906000818181858888f193505050501580156105c7573d6000803e3d6000fd5b505050505061031560018055565b6105dd610708565b6001600160a01b0381166106425760405162461bcd60e51b815260206004820152602660248201527f4f776e61626c653a206e6577206f776e657220697320746865207a65726f206160448201526564647265737360d01b60648201526084016102b7565b61064b816107b7565b50565b600054600160a01b900460ff16156103155760405162461bcd60e51b815260206004820152601060248201526f14185d5cd8589b194e881c185d5cd95960821b60448201526064016102b7565b600260015414156106ee5760405162461bcd60e51b815260206004820152601f60248201527f5265656e7472616e637947756172643a207265656e7472616e742063616c6c0060448201526064016102b7565b6002600155565b60006107018284610922565b9392505050565b6000546001600160a01b031633146103155760405162461bcd60e51b815260206004820181905260248201527f4f776e61626c653a2063616c6c6572206973206e6f7420746865206f776e657260448201526064016102b7565b61076a61086e565b6000805460ff60a01b191690557f5db9ee0a495bf2e6ff9c91a7834c1ba4fdd244a5e8aa4e537bd38aeae4b073aa335b6040516001600160a01b03909116815260200160405180910390a1565b600080546001600160a01b038381166001600160a01b0319831681178455604051919092169283917f8be0079c531659141344cd1fd0a4f28419497f9722a3daafe3b4186f6b6457e09190a35050565b61080f61064e565b6000805460ff60a01b1916600160a01b1790557f62e78cea01bee320cd4e420270b5ea74000d11b0c9f74754ebdbfc544b05a25861079a3390565b6000610701828461095c565b6000610701828461093a565b6000610701828461097b565b600054600160a01b900460ff166103155760405162461bcd60e51b815260206004820152601460248201527314185d5cd8589b194e881b9bdd081c185d5cd95960621b60448201526064016102b7565b6000602082840312156108d057600080fd5b81356001600160a01b038116811461070157600080fd5b6000602082840312156108f957600080fd5b8151801515811461070157600080fd5b60006020828403121561091b57600080fd5b5051919050565b6000821982111561093557610935610992565b500190565b60008261095757634e487b7160e01b600052601260045260246000fd5b500490565b600081600019048311821515161561097657610976610992565b500290565b60008282101561098d5761098d610992565b500390565b634e487b7160e01b600052601160045260246000fdfea26469706673582212203916b411adbb34e1ace20466d78e427693ac1821a769d12e0e0c60f12e466da764736f6c63430008070033",
  "immutableReferences": {},
  "source": "// SPDX-License-Identifier: MIT\npragma solidity ^0.8.0;\n\nimport \"./PepesOfTheGalaxyToken.sol\";\nimport \"@openzeppelin/contracts/security/Pausable.sol\";\nimport \"@openzeppelin/contracts/access/Ownable.sol\";\nimport \"@openzeppelin/contracts/security/ReentrancyGuard.sol\";\nimport \"@openzeppelin/contracts/utils/math/SafeMath.sol\";\n\ncontract PepesOfTheGalaxyLaunchPool is Ownable, Pausable, ReentrancyGuard {\n    using SafeMath for uint256;\n\n    mapping(address => uint256) public stakes;\n    mapping(address => uint256) public stakeTime;\n    uint256 public totalStaked;\n    PepesOfTheGalaxyToken public token;\n    uint256 public constant STAKING_PERIOD = 7 days;\n\n    constructor(address tokenAddress) {\n        token = PepesOfTheGalaxyToken(tokenAddress);\n    }\n\n    function stake() public payable whenNotPaused nonReentrant {\n        require(msg.value > 0, \"Must stake a positive amount\");\n\n        // Update the staker's stake and the total staked amount\n        stakes[msg.sender] = stakes[msg.sender].add(msg.value);\n        totalStaked = totalStaked.add(msg.value);\n\n        // Update the staker's stake time\n        stakeTime[msg.sender] = block.timestamp;\n    }\n\nfunction claimAndWithdraw() public whenNotPaused nonReentrant {\n    require(block.timestamp >= stakeTime[msg.sender] + STAKING_PERIOD, \"Staking period not yet over\");\n\n    uint256 userStake = stakes[msg.sender];\n    require(userStake > 0, \"No stake to claim\");\n\n    // Calculate the staker's share of the PEP\n    uint256 reward = token.balanceOf(address(this)).mul(userStake).div(totalStaked);\n\n    // Apply a bonus based on the time staked using a bonding curve\n    uint256 timeStaked = block.timestamp.sub(stakeTime[msg.sender]);\n    uint256 bonus = reward.mul(timeStaked).div(STAKING_PERIOD);\n    reward = reward.add(bonus);\n\n    // Update the staker's stake and the total staked amount\n    stakes[msg.sender] = 0;\n    totalStaked = totalStaked.sub(userStake);\n\n    // Transfer the reward to the staker\n    token.transfer(msg.sender, reward);\n\n    // Transfer the staked BNB back to the staker\n    payable(msg.sender).transfer(userStake);\n}\n\n    function pause() public onlyOwner {\n        _pause();\n    }\n\n    function unpause() public onlyOwner {\n        _unpause();\n    }\n}",
  "sourcePath": "/Users/brendanplayford/smart-contracts/contracts/PepesOfTheGalaxyLaunchPool.sol",
  "compiler": {
    "name": "solc",
    "version": "0.8.7+commit.e28d00a7.Emscripten.clang"
  },
  "schemaVersion": "3.4.15",
  "updatedAt": "2023-11-06T22:05:38.010Z",
  "devdoc": {
    "kind": "dev",
    "methods": {
      "owner()": {
        "details": "Returns the address of the current owner."
      },
      "paused()": {
        "details": "Returns true if the contract is paused, and false otherwise."
      },
      "renounceOwnership()": {
        "details": "Leaves the contract without owner. It will not be possible to call `onlyOwner` functions. Can only be called by the current owner. NOTE: Renouncing ownership will leave the contract without an owner, thereby disabling any functionality that is only available to the owner."
      },
      "transferOwnership(address)": {
        "details": "Transfers ownership of the contract to a new account (`newOwner`). Can only be called by the current owner."
      }
    },
    "version": 1
  },
  "userdoc": {
    "kind": "user",
    "methods": {},
    "version": 1
  }
}