{
  "contractName": "PepesOfTheGalaxyNFT",
  "abi": [
    {
      "inputs": [
        {
          "internalType": "address payable",
          "name": "_gnosisMultisigWallet",
          "type": "address"
        }
      ],
      "stateMutability": "nonpayable",
      "type": "constructor"
    },
    {
      "anonymous": false,
      "inputs": [
        {
          "indexed": true,
          "internalType": "address",
          "name": "owner",
          "type": "address"
        },
        {
          "indexed": true,
          "internalType": "address",
          "name": "approved",
          "type": "address"
        },
        {
          "indexed": true,
          "internalType": "uint256",
          "name": "tokenId",
          "type": "uint256"
        }
      ],
      "name": "Approval",
      "type": "event"
    },
    {
      "anonymous": false,
      "inputs": [
        {
          "indexed": true,
          "internalType": "address",
          "name": "owner",
          "type": "address"
        },
        {
          "indexed": true,
          "internalType": "address",
          "name": "operator",
          "type": "address"
        },
        {
          "indexed": false,
          "internalType": "bool",
          "name": "approved",
          "type": "bool"
        }
      ],
      "name": "ApprovalForAll",
      "type": "event"
    },
    {
      "anonymous": false,
      "inputs": [
        {
          "indexed": false,
          "internalType": "uint256",
          "name": "_fromTokenId",
          "type": "uint256"
        },
        {
          "indexed": false,
          "internalType": "uint256",
          "name": "_toTokenId",
          "type": "uint256"
        }
      ],
      "name": "BatchMetadataUpdate",
      "type": "event"
    },
    {
      "anonymous": false,
      "inputs": [
        {
          "indexed": true,
          "internalType": "uint256",
          "name": "pepeId",
          "type": "uint256"
        },
        {
          "indexed": false,
          "internalType": "uint256",
          "name": "experience",
          "type": "uint256"
        }
      ],
      "name": "ExperienceUpdated",
      "type": "event"
    },
    {
      "anonymous": false,
      "inputs": [
        {
          "indexed": false,
          "internalType": "uint256",
          "name": "_tokenId",
          "type": "uint256"
        }
      ],
      "name": "MetadataUpdate",
      "type": "event"
    },
    {
      "anonymous": false,
      "inputs": [
        {
          "indexed": true,
          "internalType": "uint256",
          "name": "pepeId",
          "type": "uint256"
        },
        {
          "indexed": true,
          "internalType": "address",
          "name": "player",
          "type": "address"
        },
        {
          "indexed": false,
          "internalType": "string",
          "name": "tokenURI",
          "type": "string"
        }
      ],
      "name": "NewPepe",
      "type": "event"
    },
    {
      "anonymous": false,
      "inputs": [
        {
          "indexed": true,
          "internalType": "bytes32",
          "name": "role",
          "type": "bytes32"
        },
        {
          "indexed": true,
          "internalType": "bytes32",
          "name": "previousAdminRole",
          "type": "bytes32"
        },
        {
          "indexed": true,
          "internalType": "bytes32",
          "name": "newAdminRole",
          "type": "bytes32"
        }
      ],
      "name": "RoleAdminChanged",
      "type": "event"
    },
    {
      "anonymous": false,
      "inputs": [
        {
          "indexed": true,
          "internalType": "bytes32",
          "name": "role",
          "type": "bytes32"
        },
        {
          "indexed": true,
          "internalType": "address",
          "name": "account",
          "type": "address"
        },
        {
          "indexed": true,
          "internalType": "address",
          "name": "sender",
          "type": "address"
        }
      ],
      "name": "RoleGranted",
      "type": "event"
    },
    {
      "anonymous": false,
      "inputs": [
        {
          "indexed": true,
          "internalType": "bytes32",
          "name": "role",
          "type": "bytes32"
        },
        {
          "indexed": true,
          "internalType": "address",
          "name": "account",
          "type": "address"
        },
        {
          "indexed": true,
          "internalType": "address",
          "name": "sender",
          "type": "address"
        }
      ],
      "name": "RoleRevoked",
      "type": "event"
    },
    {
      "anonymous": false,
      "inputs": [
        {
          "indexed": true,
          "internalType": "address",
          "name": "from",
          "type": "address"
        },
        {
          "indexed": true,
          "internalType": "address",
          "name": "to",
          "type": "address"
        },
        {
          "indexed": true,
          "internalType": "uint256",
          "name": "tokenId",
          "type": "uint256"
        }
      ],
      "name": "Transfer",
      "type": "event"
    },
    {
      "inputs": [],
      "name": "DEFAULT_ADMIN_ROLE",
      "outputs": [
        {
          "internalType": "bytes32",
          "name": "",
          "type": "bytes32"
        }
      ],
      "stateMutability": "view",
      "type": "function"
    },
    {
      "inputs": [],
      "name": "EXPERIENCE_UPDATER_ROLE",
      "outputs": [
        {
          "internalType": "bytes32",
          "name": "",
          "type": "bytes32"
        }
      ],
      "stateMutability": "view",
      "type": "function"
    },
    {
      "inputs": [
        {
          "internalType": "address",
          "name": "to",
          "type": "address"
        },
        {
          "internalType": "uint256",
          "name": "tokenId",
          "type": "uint256"
        }
      ],
      "name": "approve",
      "outputs": [],
      "stateMutability": "nonpayable",
      "type": "function"
    },
    {
      "inputs": [
        {
          "internalType": "address",
          "name": "owner",
          "type": "address"
        }
      ],
      "name": "balanceOf",
      "outputs": [
        {
          "internalType": "uint256",
          "name": "",
          "type": "uint256"
        }
      ],
      "stateMutability": "view",
      "type": "function"
    },
    {
      "inputs": [
        {
          "internalType": "uint256",
          "name": "tokenId",
          "type": "uint256"
        }
      ],
      "name": "getApproved",
      "outputs": [
        {
          "internalType": "address",
          "name": "",
          "type": "address"
        }
      ],
      "stateMutability": "view",
      "type": "function"
    },
    {
      "inputs": [
        {
          "internalType": "bytes32",
          "name": "role",
          "type": "bytes32"
        }
      ],
      "name": "getRoleAdmin",
      "outputs": [
        {
          "internalType": "bytes32",
          "name": "",
          "type": "bytes32"
        }
      ],
      "stateMutability": "view",
      "type": "function"
    },
    {
      "inputs": [
        {
          "internalType": "bytes32",
          "name": "role",
          "type": "bytes32"
        },
        {
          "internalType": "address",
          "name": "account",
          "type": "address"
        }
      ],
      "name": "grantRole",
      "outputs": [],
      "stateMutability": "nonpayable",
      "type": "function"
    },
    {
      "inputs": [
        {
          "internalType": "bytes32",
          "name": "role",
          "type": "bytes32"
        },
        {
          "internalType": "address",
          "name": "account",
          "type": "address"
        }
      ],
      "name": "hasRole",
      "outputs": [
        {
          "internalType": "bool",
          "name": "",
          "type": "bool"
        }
      ],
      "stateMutability": "view",
      "type": "function"
    },
    {
      "inputs": [
        {
          "internalType": "address",
          "name": "owner",
          "type": "address"
        },
        {
          "internalType": "address",
          "name": "operator",
          "type": "address"
        }
      ],
      "name": "isApprovedForAll",
      "outputs": [
        {
          "internalType": "bool",
          "name": "",
          "type": "bool"
        }
      ],
      "stateMutability": "view",
      "type": "function"
    },
    {
      "inputs": [],
      "name": "name",
      "outputs": [
        {
          "internalType": "string",
          "name": "",
          "type": "string"
        }
      ],
      "stateMutability": "view",
      "type": "function"
    },
    {
      "inputs": [
        {
          "internalType": "uint256",
          "name": "tokenId",
          "type": "uint256"
        }
      ],
      "name": "ownerOf",
      "outputs": [
        {
          "internalType": "address",
          "name": "",
          "type": "address"
        }
      ],
      "stateMutability": "view",
      "type": "function"
    },
    {
      "inputs": [
        {
          "internalType": "bytes32",
          "name": "role",
          "type": "bytes32"
        },
        {
          "internalType": "address",
          "name": "account",
          "type": "address"
        }
      ],
      "name": "renounceRole",
      "outputs": [],
      "stateMutability": "nonpayable",
      "type": "function"
    },
    {
      "inputs": [
        {
          "internalType": "bytes32",
          "name": "role",
          "type": "bytes32"
        },
        {
          "internalType": "address",
          "name": "account",
          "type": "address"
        }
      ],
      "name": "revokeRole",
      "outputs": [],
      "stateMutability": "nonpayable",
      "type": "function"
    },
    {
      "inputs": [
        {
          "internalType": "address",
          "name": "from",
          "type": "address"
        },
        {
          "internalType": "address",
          "name": "to",
          "type": "address"
        },
        {
          "internalType": "uint256",
          "name": "tokenId",
          "type": "uint256"
        }
      ],
      "name": "safeTransferFrom",
      "outputs": [],
      "stateMutability": "nonpayable",
      "type": "function"
    },
    {
      "inputs": [
        {
          "internalType": "address",
          "name": "from",
          "type": "address"
        },
        {
          "internalType": "address",
          "name": "to",
          "type": "address"
        },
        {
          "internalType": "uint256",
          "name": "tokenId",
          "type": "uint256"
        },
        {
          "internalType": "bytes",
          "name": "data",
          "type": "bytes"
        }
      ],
      "name": "safeTransferFrom",
      "outputs": [],
      "stateMutability": "nonpayable",
      "type": "function"
    },
    {
      "inputs": [
        {
          "internalType": "address",
          "name": "operator",
          "type": "address"
        },
        {
          "internalType": "bool",
          "name": "approved",
          "type": "bool"
        }
      ],
      "name": "setApprovalForAll",
      "outputs": [],
      "stateMutability": "nonpayable",
      "type": "function"
    },
    {
      "inputs": [],
      "name": "symbol",
      "outputs": [
        {
          "internalType": "string",
          "name": "",
          "type": "string"
        }
      ],
      "stateMutability": "view",
      "type": "function"
    },
    {
      "inputs": [
        {
          "internalType": "uint256",
          "name": "",
          "type": "uint256"
        }
      ],
      "name": "tokenMetadata",
      "outputs": [
        {
          "internalType": "uint256",
          "name": "appearance",
          "type": "uint256"
        },
        {
          "internalType": "uint256",
          "name": "accessories",
          "type": "uint256"
        },
        {
          "internalType": "uint256",
          "name": "experience",
          "type": "uint256"
        }
      ],
      "stateMutability": "view",
      "type": "function"
    },
    {
      "inputs": [
        {
          "internalType": "uint256",
          "name": "tokenId",
          "type": "uint256"
        }
      ],
      "name": "tokenURI",
      "outputs": [
        {
          "internalType": "string",
          "name": "",
          "type": "string"
        }
      ],
      "stateMutability": "view",
      "type": "function"
    },
    {
      "inputs": [
        {
          "internalType": "address",
          "name": "from",
          "type": "address"
        },
        {
          "internalType": "address",
          "name": "to",
          "type": "address"
        },
        {
          "internalType": "uint256",
          "name": "tokenId",
          "type": "uint256"
        }
      ],
      "name": "transferFrom",
      "outputs": [],
      "stateMutability": "nonpayable",
      "type": "function"
    },
    {
      "inputs": [
        {
          "internalType": "address",
          "name": "player",
          "type": "address"
        },
        {
          "internalType": "string",
          "name": "tokenURI",
          "type": "string"
        },
        {
          "internalType": "uint256",
          "name": "appearance",
          "type": "uint256"
        },
        {
          "internalType": "uint256",
          "name": "accessories",
          "type": "uint256"
        }
      ],
      "name": "mintPepe",
      "outputs": [
        {
          "internalType": "uint256",
          "name": "",
          "type": "uint256"
        }
      ],
      "stateMutability": "payable",
      "type": "function"
    },
    {
      "inputs": [
        {
          "internalType": "uint256",
          "name": "_tokenId",
          "type": "uint256"
        }
      ],
      "name": "getPepeAttributes",
      "outputs": [
        {
          "internalType": "uint256",
          "name": "appearance",
          "type": "uint256"
        },
        {
          "internalType": "uint256",
          "name": "accessories",
          "type": "uint256"
        },
        {
          "internalType": "uint256",
          "name": "experience",
          "type": "uint256"
        }
      ],
      "stateMutability": "view",
      "type": "function"
    },
    {
      "inputs": [
        {
          "internalType": "uint256",
          "name": "_tokenId",
          "type": "uint256"
        },
        {
          "internalType": "uint256",
          "name": "experience",
          "type": "uint256"
        }
      ],
      "name": "addExperience",
      "outputs": [],
      "stateMutability": "nonpayable",
      "type": "function"
    },
    {
      "inputs": [
        {
          "internalType": "bytes4",
          "name": "interfaceId",
          "type": "bytes4"
        }
      ],
      "name": "supportsInterface",
      "outputs": [
        {
          "internalType": "bool",
          "name": "",
          "type": "bool"
        }
      ],
      "stateMutability": "view",
      "type": "function"
    }
  ],
  "bytecode": "0x60806040523480156200001157600080fd5b506040516200233a3803806200233a83398101604081905262000034916200022a565b604080518082018252601081526f50657065734f6654686547616c61787960801b602080830191825283518085019094526004845263504f544760e01b908401528151919291620000889160009162000184565b5080516200009e90600190602084019062000184565b5050600980546001600160a01b0319166001600160a01b03841617905550620000c9600033620000d0565b5062000299565b620000dc8282620000e0565b5050565b60008281526007602090815260408083206001600160a01b038516845290915290205460ff16620000dc5760008281526007602090815260408083206001600160a01b03851684529091529020805460ff19166001179055620001403390565b6001600160a01b0316816001600160a01b0316837f2f8788117e7eff1d82e926ec794901d17c78024a50270940304540a733656f0d60405160405180910390a45050565b82805462000192906200025c565b90600052602060002090601f016020900481019282620001b6576000855562000201565b82601f10620001d157805160ff191683800117855562000201565b8280016001018555821562000201579182015b8281111562000201578251825591602001919060010190620001e4565b506200020f92915062000213565b5090565b5b808211156200020f576000815560010162000214565b6000602082840312156200023d57600080fd5b81516001600160a01b03811681146200025557600080fd5b9392505050565b600181811c908216806200027157607f821691505b602082108114156200029357634e487b7160e01b600052602260045260246000fd5b50919050565b61209180620002a96000396000f3fe60806040526004361061014b5760003560e01c80636352211e116100b6578063a22cb4651161006f578063a22cb465146103f3578063b88d4fde14610413578063c87b56dd14610433578063d280427e14610453578063d547741f14610487578063e985e9c5146104a757600080fd5b80636352211e1461032d5780636914db601461034d57806370a082311461038957806391d14854146103a957806395d89b41146103c9578063a217fddf146103de57600080fd5b8063248a9ca311610108578063248a9ca3146102425780632f2ff15d1461027257806336568abe1461029257806342842e0e146102b257806351a15cad146102d25780635d240c581461030d57600080fd5b806301ffc9a71461015057806306fdde0314610185578063081812fc146101a7578063095ea7b3146101df5780630fea15fd1461020157806323b872dd14610222575b600080fd5b34801561015c57600080fd5b5061017061016b366004611cee565b6104f0565b60405190151581526020015b60405180910390f35b34801561019157600080fd5b5061019a610501565b60405161017c9190611e57565b3480156101b357600080fd5b506101c76101c2366004611cb2565b610593565b6040516001600160a01b03909116815260200161017c565b3480156101eb57600080fd5b506101ff6101fa366004611c88565b6105ba565b005b61021461020f366004611c16565b6106d5565b60405190815260200161017c565b34801561022e57600080fd5b506101ff61023d366004611b22565b61081d565b34801561024e57600080fd5b5061021461025d366004611cb2565b60009081526007602052604090206001015490565b34801561027e57600080fd5b506101ff61028d366004611ccb565b61084e565b34801561029e57600080fd5b506101ff6102ad366004611ccb565b610873565b3480156102be57600080fd5b506101ff6102cd366004611b22565b6108f1565b3480156102de57600080fd5b506102f26102ed366004611cb2565b61090c565b6040805193845260208401929092529082015260600161017c565b34801561031957600080fd5b506101ff610328366004611d28565b61098c565b34801561033957600080fd5b506101c7610348366004611cb2565b610a7c565b34801561035957600080fd5b506102f2610368366004611cb2565b600a6020526000908152604090208054600182015460029092015490919083565b34801561039557600080fd5b506102146103a4366004611ad4565b610adc565b3480156103b557600080fd5b506101706103c4366004611ccb565b610b62565b3480156103d557600080fd5b5061019a610b8d565b3480156103ea57600080fd5b50610214600081565b3480156103ff57600080fd5b506101ff61040e366004611bda565b610b9c565b34801561041f57600080fd5b506101ff61042e366004611b5e565b610ba7565b34801561043f57600080fd5b5061019a61044e366004611cb2565b610bdf565b34801561045f57600080fd5b506102147f74474da40d78a9d31be9eeadd7713f3e472d110a04ea4c73c3d9d19c1755e1a481565b34801561049357600080fd5b506101ff6104a2366004611ccb565b610ce8565b3480156104b357600080fd5b506101706104c2366004611aef565b6001600160a01b03918216600090815260056020908152604080832093909416825291909152205460ff1690565b60006104fb82610d0d565b92915050565b60606000805461051090611fc8565b80601f016020809104026020016040519081016040528092919081815260200182805461053c90611fc8565b80156105895780601f1061055e57610100808354040283529160200191610589565b820191906000526020600020905b81548152906001019060200180831161056c57829003601f168201915b5050505050905090565b600061059e82610d32565b506000908152600460205260409020546001600160a01b031690565b60006105c582610a7c565b9050806001600160a01b0316836001600160a01b031614156106385760405162461bcd60e51b815260206004820152602160248201527f4552433732313a20617070726f76616c20746f2063757272656e74206f776e656044820152603960f91b60648201526084015b60405180910390fd5b336001600160a01b0382161480610654575061065481336104c2565b6106c65760405162461bcd60e51b815260206004820152603d60248201527f4552433732313a20617070726f76652063616c6c6572206973206e6f7420746f60448201527f6b656e206f776e6572206f7220617070726f76656420666f7220616c6c000000606482015260840161062f565b6106d08383610d94565b505050565b60003466b1a2bc2ec500001461072d5760405162461bcd60e51b815260206004820152601d60248201527f4d696e74696e672061205065706520636f737473203530204d41544943000000604482015260640161062f565b61073b600880546001019055565b600061074660085490565b90506107528682610e02565b61075c8186610f8d565b6040805160608101825285815260208082018681526000838501818152868252600a9093528490209251835551600183015551600290910155516001600160a01b0387169082907f57127cee8a440dcd5e8345145f313bdf563774589c9c3aa2ecf23b62ac3f74d1906107d0908990611e57565b60405180910390a36009546040516001600160a01b03909116903480156108fc02916000818181858888f19350505050158015610811573d6000803e3d6000fd5b5090505b949350505050565b610827338261105f565b6108435760405162461bcd60e51b815260040161062f90611e6a565b6106d08383836110dd565b60008281526007602052604090206001015461086981611241565b6106d0838361124b565b6001600160a01b03811633146108e35760405162461bcd60e51b815260206004820152602f60248201527f416363657373436f6e74726f6c3a2063616e206f6e6c792072656e6f756e636560448201526e103937b632b9903337b91039b2b63360891b606482015260840161062f565b6108ed82826112d1565b5050565b6106d083838360405180602001604052806000815250610ba7565b600081815260026020526040812054819081906001600160a01b031661096a5760405162461bcd60e51b815260206004820152601360248201527214195c1948191bd95cc81b9bdd08195e1a5cdd606a1b604482015260640161062f565b5050506000908152600a60205260409020805460018201546002909201549092565b6109b67f74474da40d78a9d31be9eeadd7713f3e472d110a04ea4c73c3d9d19c1755e1a433610b62565b610a155760405162461bcd60e51b815260206004820152602a60248201527f43616c6c6572206973206e6f7420616c6c6f77656420746f2075706461746520604482015269657870657269656e636560b01b606482015260840161062f565b6000828152600a6020526040812060028101805491928492610a38908490611f4e565b9091555050600281015460405190815283907f8bea1eb60a318372d9e3564615953ccdd27cd425790c16889c29330837733dfb9060200160405180910390a2505050565b6000818152600260205260408120546001600160a01b0316806104fb5760405162461bcd60e51b8152602060048201526018602482015277115490cdcc8c4e881a5b9d985b1a59081d1bdad95b88125160421b604482015260640161062f565b60006001600160a01b038216610b465760405162461bcd60e51b815260206004820152602960248201527f4552433732313a2061646472657373207a65726f206973206e6f7420612076616044820152683634b21037bbb732b960b91b606482015260840161062f565b506001600160a01b031660009081526003602052604090205490565b60009182526007602090815260408084206001600160a01b0393909316845291905290205460ff1690565b60606001805461051090611fc8565b6108ed338383611338565b610bb1338361105f565b610bcd5760405162461bcd60e51b815260040161062f90611e6a565b610bd984848484611407565b50505050565b6060610bea82610d32565b60008281526006602052604081208054610c0390611fc8565b80601f0160208091040260200160405190810160405280929190818152602001828054610c2f90611fc8565b8015610c7c5780601f10610c5157610100808354040283529160200191610c7c565b820191906000526020600020905b815481529060010190602001808311610c5f57829003601f168201915b505050505090506000610c9a60408051602081019091526000815290565b9050805160001415610cad575092915050565b815115610cdf578082604051602001610cc7929190611d76565b60405160208183030381529060405292505050919050565b6108158461143a565b600082815260076020526040902060010154610d0381611241565b6106d083836112d1565b60006001600160e01b03198216637965db0b60e01b14806104fb57506104fb826114ae565b6000818152600260205260409020546001600160a01b0316610d915760405162461bcd60e51b8152602060048201526018602482015277115490cdcc8c4e881a5b9d985b1a59081d1bdad95b88125160421b604482015260640161062f565b50565b600081815260046020526040902080546001600160a01b0319166001600160a01b0384169081179091558190610dc982610a7c565b6001600160a01b03167f8c5be1e5ebec7d5bd14f71427d1e84f3dd0314c0f7b2291e5b200ac8c7c3b92560405160405180910390a45050565b6001600160a01b038216610e585760405162461bcd60e51b815260206004820181905260248201527f4552433732313a206d696e7420746f20746865207a65726f2061646472657373604482015260640161062f565b6000818152600260205260409020546001600160a01b031615610ebd5760405162461bcd60e51b815260206004820152601c60248201527f4552433732313a20746f6b656e20616c7265616479206d696e74656400000000604482015260640161062f565b6000818152600260205260409020546001600160a01b031615610f225760405162461bcd60e51b815260206004820152601c60248201527f4552433732313a20746f6b656e20616c7265616479206d696e74656400000000604482015260640161062f565b6001600160a01b038216600081815260036020908152604080832080546001019055848352600290915280822080546001600160a01b0319168417905551839291907fddf252ad1be2c89b69c2b068fc378daa952ba7f163c4a11628f55a4df523b3ef908290a45050565b6000828152600260205260409020546001600160a01b03166110085760405162461bcd60e51b815260206004820152602e60248201527f45524337323155524953746f726167653a2055524920736574206f66206e6f6e60448201526d32bc34b9ba32b73a103a37b5b2b760911b606482015260840161062f565b60008281526006602090815260409091208251611027928401906119a9565b506040518281527ff8e1a15aba9398e019f0b49df1a4fde98ee17ae345cb5f6b5e2c27f5033e8ce79060200160405180910390a15050565b60008061106b83610a7c565b9050806001600160a01b0316846001600160a01b031614806110b257506001600160a01b0380821660009081526005602090815260408083209388168352929052205460ff165b806108155750836001600160a01b03166110cb84610593565b6001600160a01b031614949350505050565b826001600160a01b03166110f082610a7c565b6001600160a01b0316146111165760405162461bcd60e51b815260040161062f90611f09565b6001600160a01b0382166111785760405162461bcd60e51b8152602060048201526024808201527f4552433732313a207472616e7366657220746f20746865207a65726f206164646044820152637265737360e01b606482015260840161062f565b826001600160a01b031661118b82610a7c565b6001600160a01b0316146111b15760405162461bcd60e51b815260040161062f90611f09565b600081815260046020908152604080832080546001600160a01b03199081169091556001600160a01b0387811680865260038552838620805460001901905590871680865283862080546001019055868652600290945282852080549092168417909155905184937fddf252ad1be2c89b69c2b068fc378daa952ba7f163c4a11628f55a4df523b3ef91a4505050565b610d9181336114d3565b6112558282610b62565b6108ed5760008281526007602090815260408083206001600160a01b03851684529091529020805460ff1916600117905561128d3390565b6001600160a01b0316816001600160a01b0316837f2f8788117e7eff1d82e926ec794901d17c78024a50270940304540a733656f0d60405160405180910390a45050565b6112db8282610b62565b156108ed5760008281526007602090815260408083206001600160a01b0385168085529252808320805460ff1916905551339285917ff6391f5c32d9c69d2a47ea670b442974b53935d1edc7fd64eb21e047a839171b9190a45050565b816001600160a01b0316836001600160a01b0316141561139a5760405162461bcd60e51b815260206004820152601960248201527f4552433732313a20617070726f766520746f2063616c6c657200000000000000604482015260640161062f565b6001600160a01b03838116600081815260056020908152604080832094871680845294825291829020805460ff191686151590811790915591519182527f17307eab39ab6107e8899845ad3d59bd9653f200f220920489ca2b5937696c31910160405180910390a3505050565b6114128484846110dd565b61141e8484848461152c565b610bd95760405162461bcd60e51b815260040161062f90611eb7565b606061144582610d32565b600061145c60408051602081019091526000815290565b9050600081511161147c57604051806020016040528060008152506114a7565b8061148684611636565b604051602001611497929190611d76565b6040516020818303038152906040525b9392505050565b60006001600160e01b03198216632483248360e11b14806104fb57506104fb826116d3565b6114dd8282610b62565b6108ed576114ea81611723565b6114f5836020611735565b604051602001611506929190611da5565b60408051601f198184030181529082905262461bcd60e51b825261062f91600401611e57565b60006001600160a01b0384163b1561162e57604051630a85bd0160e11b81526001600160a01b0385169063150b7a0290611570903390899088908890600401611e1a565b602060405180830381600087803b15801561158a57600080fd5b505af19250505080156115ba575060408051601f3d908101601f191682019092526115b791810190611d0b565b60015b611614573d8080156115e8576040519150601f19603f3d011682016040523d82523d6000602084013e6115ed565b606091505b50805161160c5760405162461bcd60e51b815260040161062f90611eb7565b805181602001fd5b6001600160e01b031916630a85bd0160e11b149050610815565b506001610815565b60606000611643836118d1565b600101905060008167ffffffffffffffff8111156116635761166361202f565b6040519080825280601f01601f19166020018201604052801561168d576020820181803683370190505b5090508181016020015b600019016f181899199a1a9b1b9c1cb0b131b232b360811b600a86061a8153600a85049450846116c6576116cb565b611697565b509392505050565b60006001600160e01b031982166380ac58cd60e01b148061170457506001600160e01b03198216635b5e139f60e01b145b806104fb57506301ffc9a760e01b6001600160e01b03198316146104fb565b60606104fb6001600160a01b03831660145b60606000611744836002611f66565b61174f906002611f4e565b67ffffffffffffffff8111156117675761176761202f565b6040519080825280601f01601f191660200182016040528015611791576020820181803683370190505b509050600360fc1b816000815181106117ac576117ac612019565b60200101906001600160f81b031916908160001a905350600f60fb1b816001815181106117db576117db612019565b60200101906001600160f81b031916908160001a90535060006117ff846002611f66565b61180a906001611f4e565b90505b6001811115611882576f181899199a1a9b1b9c1cb0b131b232b360811b85600f166010811061183e5761183e612019565b1a60f81b82828151811061185457611854612019565b60200101906001600160f81b031916908160001a90535060049490941c9361187b81611fb1565b905061180d565b5083156114a75760405162461bcd60e51b815260206004820181905260248201527f537472696e67733a20686578206c656e67746820696e73756666696369656e74604482015260640161062f565b60008072184f03e93ff9f4daa797ed6e38ed64bf6a1f0160401b83106119105772184f03e93ff9f4daa797ed6e38ed64bf6a1f0160401b830492506040015b6d04ee2d6d415b85acef8100000000831061193c576d04ee2d6d415b85acef8100000000830492506020015b662386f26fc10000831061195a57662386f26fc10000830492506010015b6305f5e1008310611972576305f5e100830492506008015b612710831061198657612710830492506004015b60648310611998576064830492506002015b600a83106104fb5760010192915050565b8280546119b590611fc8565b90600052602060002090601f0160209004810192826119d75760008555611a1d565b82601f106119f057805160ff1916838001178555611a1d565b82800160010185558215611a1d579182015b82811115611a1d578251825591602001919060010190611a02565b50611a29929150611a2d565b5090565b5b80821115611a295760008155600101611a2e565b600067ffffffffffffffff80841115611a5d57611a5d61202f565b604051601f8501601f19908116603f01168101908282118183101715611a8557611a8561202f565b81604052809350858152868686011115611a9e57600080fd5b858560208301376000602087830101525050509392505050565b80356001600160a01b0381168114611acf57600080fd5b919050565b600060208284031215611ae657600080fd5b6114a782611ab8565b60008060408385031215611b0257600080fd5b611b0b83611ab8565b9150611b1960208401611ab8565b90509250929050565b600080600060608486031215611b3757600080fd5b611b4084611ab8565b9250611b4e60208501611ab8565b9150604084013590509250925092565b60008060008060808587031215611b7457600080fd5b611b7d85611ab8565b9350611b8b60208601611ab8565b925060408501359150606085013567ffffffffffffffff811115611bae57600080fd5b8501601f81018713611bbf57600080fd5b611bce87823560208401611a42565b91505092959194509250565b60008060408385031215611bed57600080fd5b611bf683611ab8565b915060208301358015158114611c0b57600080fd5b809150509250929050565b60008060008060808587031215611c2c57600080fd5b611c3585611ab8565b9350602085013567ffffffffffffffff811115611c5157600080fd5b8501601f81018713611c6257600080fd5b611c7187823560208401611a42565b949794965050505060408301359260600135919050565b60008060408385031215611c9b57600080fd5b611ca483611ab8565b946020939093013593505050565b600060208284031215611cc457600080fd5b5035919050565b60008060408385031215611cde57600080fd5b82359150611b1960208401611ab8565b600060208284031215611d0057600080fd5b81356114a781612045565b600060208284031215611d1d57600080fd5b81516114a781612045565b60008060408385031215611d3b57600080fd5b50508035926020909101359150565b60008151808452611d62816020860160208601611f85565b601f01601f19169290920160200192915050565b60008351611d88818460208801611f85565b835190830190611d9c818360208801611f85565b01949350505050565b7f416363657373436f6e74726f6c3a206163636f756e7420000000000000000000815260008351611ddd816017850160208801611f85565b7001034b99036b4b9b9b4b733903937b6329607d1b6017918401918201528351611e0e816028840160208801611f85565b01602801949350505050565b6001600160a01b0385811682528416602082015260408101839052608060608201819052600090611e4d90830184611d4a565b9695505050505050565b6020815260006114a76020830184611d4a565b6020808252602d908201527f4552433732313a2063616c6c6572206973206e6f7420746f6b656e206f776e6560408201526c1c881bdc88185c1c1c9bdd9959609a1b606082015260800190565b60208082526032908201527f4552433732313a207472616e7366657220746f206e6f6e20455243373231526560408201527131b2b4bb32b91034b6b83632b6b2b73a32b960711b606082015260800190565b60208082526025908201527f4552433732313a207472616e736665722066726f6d20696e636f72726563742060408201526437bbb732b960d91b606082015260800190565b60008219821115611f6157611f61612003565b500190565b6000816000190483118215151615611f8057611f80612003565b500290565b60005b83811015611fa0578181015183820152602001611f88565b83811115610bd95750506000910152565b600081611fc057611fc0612003565b506000190190565b600181811c90821680611fdc57607f821691505b60208210811415611ffd57634e487b7160e01b600052602260045260246000fd5b50919050565b634e487b7160e01b600052601160045260246000fd5b634e487b7160e01b600052603260045260246000fd5b634e487b7160e01b600052604160045260246000fd5b6001600160e01b031981168114610d9157600080fdfea26469706673582212203bb4b802fcb5dda42a75db05bebf28c2a7aafd545266cad48128ec2cf78785bf64736f6c63430008070033",
  "immutableReferences": {},
  "source": "// SPDX-License-Identifier: MIT\npragma solidity ^0.8.0;\n\nimport \"@openzeppelin/contracts/access/AccessControl.sol\";\nimport \"@openzeppelin/contracts/token/ERC721/extensions/ERC721URIStorage.sol\";\nimport \"@openzeppelin/contracts/utils/Counters.sol\";\n\ncontract PepesOfTheGalaxyNFT is ERC721URIStorage, AccessControl {\n    using Counters for Counters.Counter;\n    Counters.Counter private _tokenIds;\n\n    bytes32 public constant EXPERIENCE_UPDATER_ROLE = keccak256(\"EXPERIENCE_UPDATER_ROLE\");\n    address payable private gnosisMultisigWallet;\n\n    struct PepeMetadata {\n        uint256 appearance;\n        uint256 accessories;\n        uint256 experience;\n    }\n\n    mapping(uint256 => PepeMetadata) public tokenMetadata;\n\n    event NewPepe(uint256 indexed pepeId, address indexed player, string tokenURI);\n    event ExperienceUpdated(uint256 indexed pepeId, uint256 experience); // Added event\n\n    constructor(address payable _gnosisMultisigWallet) ERC721(\"PepesOfTheGalaxy\", \"POTG\") {\n        gnosisMultisigWallet = _gnosisMultisigWallet;\n        _setupRole(DEFAULT_ADMIN_ROLE, msg.sender);\n    }\n\n    function mintPepe(address player, string memory tokenURI, uint256 appearance, uint256 accessories) public payable returns (uint256) {\n        require(msg.value == 0.05 ether, \"Minting a Pepe costs 50 MATIC\");\n        _tokenIds.increment();\n        uint256 newPepeId = _tokenIds.current();\n        _mint(player, newPepeId);\n        _setTokenURI(newPepeId, tokenURI);\n        tokenMetadata[newPepeId] = PepeMetadata({\n            appearance: appearance,\n            accessories: accessories,\n            experience: 0\n        });\n        emit NewPepe(newPepeId, player, tokenURI);\n        gnosisMultisigWallet.transfer(msg.value);\n        return newPepeId;\n    }\n\n    function getPepeAttributes(uint256 _tokenId) public view returns (uint256 appearance, uint256 accessories, uint256 experience) {\n    require(_exists(_tokenId), \"Pepe does not exist\");\n    PepeMetadata storage metadata = tokenMetadata[_tokenId];\n    return (metadata.appearance, metadata.accessories, metadata.experience);\n    }\n\n    function addExperience(uint256 _tokenId, uint256 experience) public {\n        require(hasRole(EXPERIENCE_UPDATER_ROLE, msg.sender), \"Caller is not allowed to update experience\");\n        PepeMetadata storage metadata = tokenMetadata[_tokenId];\n        metadata.experience += experience;\n        emit ExperienceUpdated(_tokenId, metadata.experience); // Emit the event when experience is updated\n    }\n\n    function supportsInterface(bytes4 interfaceId) public view override(ERC721URIStorage, AccessControl) returns (bool) {\n        return super.supportsInterface(interfaceId);\n    }\n}",
  "sourcePath": "/Users/brendanplayford/smart-contracts/contracts/PepesOfTheGalaxyNFT.sol",
  "compiler": {
    "name": "solc",
    "version": "0.8.7+commit.e28d00a7.Emscripten.clang"
  },
  "schemaVersion": "3.4.15",
  "updatedAt": "2023-11-06T21:37:35.172Z",
  "devdoc": {
    "kind": "dev",
    "methods": {
      "approve(address,uint256)": {
        "details": "See {IERC721-approve}."
      },
      "balanceOf(address)": {
        "details": "See {IERC721-balanceOf}."
      },
      "getApproved(uint256)": {
        "details": "See {IERC721-getApproved}."
      },
      "getRoleAdmin(bytes32)": {
        "details": "Returns the admin role that controls `role`. See {grantRole} and {revokeRole}. To change a role's admin, use {_setRoleAdmin}."
      },
      "grantRole(bytes32,address)": {
        "details": "Grants `role` to `account`. If `account` had not been already granted `role`, emits a {RoleGranted} event. Requirements: - the caller must have ``role``'s admin role. May emit a {RoleGranted} event."
      },
      "hasRole(bytes32,address)": {
        "details": "Returns `true` if `account` has been granted `role`."
      },
      "isApprovedForAll(address,address)": {
        "details": "See {IERC721-isApprovedForAll}."
      },
      "name()": {
        "details": "See {IERC721Metadata-name}."
      },
      "ownerOf(uint256)": {
        "details": "See {IERC721-ownerOf}."
      },
      "renounceRole(bytes32,address)": {
        "details": "Revokes `role` from the calling account. Roles are often managed via {grantRole} and {revokeRole}: this function's purpose is to provide a mechanism for accounts to lose their privileges if they are compromised (such as when a trusted device is misplaced). If the calling account had been revoked `role`, emits a {RoleRevoked} event. Requirements: - the caller must be `account`. May emit a {RoleRevoked} event."
      },
      "revokeRole(bytes32,address)": {
        "details": "Revokes `role` from `account`. If `account` had been granted `role`, emits a {RoleRevoked} event. Requirements: - the caller must have ``role``'s admin role. May emit a {RoleRevoked} event."
      },
      "safeTransferFrom(address,address,uint256)": {
        "details": "See {IERC721-safeTransferFrom}."
      },
      "safeTransferFrom(address,address,uint256,bytes)": {
        "details": "See {IERC721-safeTransferFrom}."
      },
      "setApprovalForAll(address,bool)": {
        "details": "See {IERC721-setApprovalForAll}."
      },
      "symbol()": {
        "details": "See {IERC721Metadata-symbol}."
      },
      "tokenURI(uint256)": {
        "details": "See {IERC721Metadata-tokenURI}."
      },
      "transferFrom(address,address,uint256)": {
        "details": "See {IERC721-transferFrom}."
      }
    },
    "version": 1
  },
  "userdoc": {
    "kind": "user",
    "methods": {},
    "version": 1
  }
}