{
  "contractName": "PepesOfTheGalaxyBattle",
  "abi": [
    {
      "inputs": [
        {
          "internalType": "address",
          "name": "_pepeNFT",
          "type": "address"
        },
        {
          "internalType": "address",
          "name": "_pepeToken",
          "type": "address"
        }
      ],
      "stateMutability": "nonpayable",
      "type": "constructor"
    },
    {
      "anonymous": false,
      "inputs": [
        {
          "indexed": true,
          "internalType": "address",
          "name": "player1",
          "type": "address"
        },
        {
          "indexed": true,
          "internalType": "address",
          "name": "player2",
          "type": "address"
        },
        {
          "indexed": false,
          "internalType": "uint256",
          "name": "pepe1Id",
          "type": "uint256"
        },
        {
          "indexed": false,
          "internalType": "uint256",
          "name": "pepe2Id",
          "type": "uint256"
        },
        {
          "indexed": false,
          "internalType": "uint256",
          "name": "winnerId",
          "type": "uint256"
        }
      ],
      "name": "BattleOutcome",
      "type": "event"
    },
    {
      "anonymous": false,
      "inputs": [
        {
          "indexed": true,
          "internalType": "address",
          "name": "previousOwner",
          "type": "address"
        },
        {
          "indexed": true,
          "internalType": "address",
          "name": "newOwner",
          "type": "address"
        }
      ],
      "name": "OwnershipTransferred",
      "type": "event"
    },
    {
      "anonymous": false,
      "inputs": [
        {
          "indexed": true,
          "internalType": "uint256",
          "name": "pepeId",
          "type": "uint256"
        },
        {
          "indexed": false,
          "internalType": "uint256",
          "name": "amount",
          "type": "uint256"
        },
        {
          "indexed": true,
          "internalType": "address",
          "name": "player",
          "type": "address"
        }
      ],
      "name": "StakedForBattle",
      "type": "event"
    },
    {
      "anonymous": false,
      "inputs": [
        {
          "indexed": true,
          "internalType": "address",
          "name": "from",
          "type": "address"
        },
        {
          "indexed": true,
          "internalType": "address",
          "name": "to",
          "type": "address"
        },
        {
          "indexed": false,
          "internalType": "uint256",
          "name": "amount",
          "type": "uint256"
        }
      ],
      "name": "Transfer",
      "type": "event"
    },
    {
      "anonymous": false,
      "inputs": [
        {
          "indexed": false,
          "internalType": "bool",
          "name": "success",
          "type": "bool"
        }
      ],
      "name": "TransferSucceeded",
      "type": "event"
    },
    {
      "inputs": [
        {
          "internalType": "uint256",
          "name": "",
          "type": "uint256"
        }
      ],
      "name": "battleRequests",
      "outputs": [
        {
          "internalType": "uint256",
          "name": "pepeId",
          "type": "uint256"
        },
        {
          "internalType": "uint256",
          "name": "amount",
          "type": "uint256"
        },
        {
          "internalType": "address",
          "name": "player",
          "type": "address"
        }
      ],
      "stateMutability": "view",
      "type": "function"
    },
    {
      "inputs": [],
      "name": "owner",
      "outputs": [
        {
          "internalType": "address",
          "name": "",
          "type": "address"
        }
      ],
      "stateMutability": "view",
      "type": "function"
    },
    {
      "inputs": [],
      "name": "pepeNFT",
      "outputs": [
        {
          "internalType": "contract IPepesOfTheGalaxyNFT",
          "name": "",
          "type": "address"
        }
      ],
      "stateMutability": "view",
      "type": "function"
    },
    {
      "inputs": [],
      "name": "pepeToken",
      "outputs": [
        {
          "internalType": "contract IERC20",
          "name": "",
          "type": "address"
        }
      ],
      "stateMutability": "view",
      "type": "function"
    },
    {
      "inputs": [],
      "name": "renounceOwnership",
      "outputs": [],
      "stateMutability": "nonpayable",
      "type": "function"
    },
    {
      "inputs": [
        {
          "internalType": "address",
          "name": "newOwner",
          "type": "address"
        }
      ],
      "name": "transferOwnership",
      "outputs": [],
      "stateMutability": "nonpayable",
      "type": "function"
    },
    {
      "inputs": [
        {
          "internalType": "uint256",
          "name": "_pepeId",
          "type": "uint256"
        },
        {
          "internalType": "uint256",
          "name": "_amount",
          "type": "uint256"
        }
      ],
      "name": "stake",
      "outputs": [],
      "stateMutability": "nonpayable",
      "type": "function"
    },
    {
      "inputs": [],
      "name": "battle",
      "outputs": [],
      "stateMutability": "nonpayable",
      "type": "function"
    },
    {
      "inputs": [],
      "name": "numPlayers",
      "outputs": [
        {
          "internalType": "uint256",
          "name": "",
          "type": "uint256"
        }
      ],
      "stateMutability": "view",
      "type": "function"
    }
  ],
  "bytecode": "0x608060405234801561001057600080fd5b5060405161113838038061113883398101604081905261002f916100d5565b61003833610069565b600180546001600160a01b039384166001600160a01b03199182161790915560028054929093169116179055610108565b600080546001600160a01b038381166001600160a01b0319831681178455604051919092169283917f8be0079c531659141344cd1fd0a4f28419497f9722a3daafe3b4186f6b6457e09190a35050565b80516001600160a01b03811681146100d057600080fd5b919050565b600080604083850312156100e857600080fd5b6100f1836100b9565b91506100ff602084016100b9565b90509250929050565b611021806101176000396000f3fe608060405234801561001057600080fd5b50600436106100935760003560e01c80637b0472f0116100665780637b0472f0146100ed5780638d7c3ec7146101005780638da5cb5b1461013757806397b2f55614610148578063f2fde38b1461015957600080fd5b806321cc4c3f1461009857806344e44545146100c8578063715018a6146100d25780637592fc01146100da575b600080fd5b6002546100ab906001600160a01b031681565b6040516001600160a01b0390911681526020015b60405180910390f35b6100d061016c565b005b6100d0610972565b6001546100ab906001600160a01b031681565b6100d06100fb366004610ef7565b610986565b61011361010e366004610ec5565b610d14565b6040805193845260208401929092526001600160a01b0316908201526060016100bf565b6000546001600160a01b03166100ab565b6003546040519081526020016100bf565b6100d0610167366004610e73565b610d50565b600354600211156101b95760405162461bcd60e51b81526020600482015260126024820152714e6f7420656e6f75676820706c617965727360701b60448201526064015b60405180910390fd5b600060036000815481106101cf576101cf610fd5565b600091825260208083206040805160608101825260039485029092018054835260018082015494840194909452600201546001600160a01b0316908201528254909450811061022057610220610fd5565b600091825260208083206040805160608101825260039094029091018054845260018082015493850193909352600201546001600160a01b03908116848301529154865191516351a15cad60e01b815293955084939216916351a15cad9161028e9160040190815260200190565b604080518083038186803b1580156102a557600080fd5b505afa1580156102b9573d6000803e3d6000fd5b505050506040513d601f19601f820116820180604052508101906102dd9190610f19565b60015485516040516351a15cad60e01b8152600481019190915292945090925060009182916001600160a01b0316906351a15cad90602401604080518083038186803b15801561032c57600080fd5b505afa158015610340573d6000803e3d6000fd5b505050506040513d601f19601f820116820180604052508101906103649190610f19565b6040808901518951895192519496509294506000936103b1934293909160200193845260609290921b6bffffffffffffffffffffffff191660208401526034830152605482015260740190565b60408051601f198184030181529190528051602090910120905060006103d8600b83610f87565b90506103e48187610f3d565b95506103f08185610f3d565b93506000806103ff8587610f3d565b610409888a610f3d565b111561059557895160025460408c01516020808d0151908e01519395506001600160a01b039092169263a9059cbb9261044191610f3d565b6040516001600160e01b031960e085901b1681526001600160a01b0390921660048301526024820152604401602060405180830381600087803b15801561048757600080fd5b505af115801561049b573d6000803e3d6000fd5b505050506040513d601f19601f820116820180604052508101906104bf9190610ea3565b6001548b51604051630ba4818b60e31b81526004810191909152600260248201529192506001600160a01b031690635d240c5890604401600060405180830381600087803b15801561051057600080fd5b505af1158015610524573d6000803e3d6000fd5b5050600180548c51604051630ba4818b60e31b8152600481019190915260248101929092526001600160a01b03169250635d240c589150604401600060405180830381600087803b15801561057857600080fd5b505af115801561058c573d6000803e3d6000fd5b50505050610717565b885160025460408b01516020808d0151908e01519395506001600160a01b039092169263a9059cbb926105c791610f3d565b6040516001600160e01b031960e085901b1681526001600160a01b0390921660048301526024820152604401602060405180830381600087803b15801561060d57600080fd5b505af1158015610621573d6000803e3d6000fd5b505050506040513d601f19601f820116820180604052508101906106459190610ea3565b6001548a51604051630ba4818b60e31b81526004810191909152600260248201529192506001600160a01b031690635d240c5890604401600060405180830381600087803b15801561069657600080fd5b505af11580156106aa573d6000803e3d6000fd5b5050600180548d51604051630ba4818b60e31b8152600481019190915260248101929092526001600160a01b03169250635d240c589150604401600060405180830381600087803b1580156106fe57600080fd5b505af1158015610712573d6000803e3d6000fd5b505050505b6040808a01518b8201518c518c51845191825260208201529283018590526001600160a01b03918216929116907f4a16815524b461e12c89f69d64937b8c12396d885bbc7bdf78e7984d0e7faf5f9060600160405180910390a360405181151581527fd91a1399afd791a5a11f20e350db34e9b12c72af5ea01ef9c854a883167805d79060200160405180910390a160036000815481106107ba576107ba610fd5565b60009182526020822060039182020182815560018082019390935560020180546001600160a01b0319169055805490919081106107f9576107f9610fd5565b6000918252602082206003909102018181556001810182905560020180546001600160a01b03191690555b60035461083390600290610f55565b8110156108ce576003610847826002610f3d565b8154811061085757610857610fd5565b90600052602060002090600302016003828154811061087857610878610fd5565b60009182526020909120825460039092020190815560018083015490820155600291820154910180546001600160a01b0319166001600160a01b03909216919091179055806108c681610f6c565b915050610824565b50600354600110156109665760038054806108eb576108eb610fbf565b60008281526020812060036000199093018381029091018281556001810192909255600290910180546001600160a01b031916905590915580548061093257610932610fbf565b600082815260208120600360001990930192830201818155600181019190915560020180546001600160a01b031916905590555b50505050505050505050565b61097a610dc9565b6109846000610e23565b565b6002546040516370a0823160e01b815233600482015282916001600160a01b0316906370a082319060240160206040518083038186803b1580156109c957600080fd5b505afa1580156109dd573d6000803e3d6000fd5b505050506040513d601f19601f82011682018060405250810190610a019190610ede565b1015610a465760405162461bcd60e51b8152602060048201526014602482015273496e73756666696369656e742062616c616e636560601b60448201526064016101b0565b600254604051636eb1769f60e11b815233600482015230602482015282916001600160a01b03169063dd62ed3e9060440160206040518083038186803b158015610a8f57600080fd5b505afa158015610aa3573d6000803e3d6000fd5b505050506040513d601f19601f82011682018060405250810190610ac79190610ede565b1015610b0e5760405162461bcd60e51b8152602060048201526016602482015275496e73756666696369656e7420616c6c6f77616e636560501b60448201526064016101b0565b6002546040516323b872dd60e01b8152336004820152306024820152604481018390526001600160a01b03909116906323b872dd90606401602060405180830381600087803b158015610b6057600080fd5b505af1158015610b74573d6000803e3d6000fd5b505050506040513d601f19601f82011682018060405250810190610b989190610ea3565b610bdc5760405162461bcd60e51b8152602060048201526015602482015274151bdad95b881d1c985b9cd9995c8819985a5b1959605a1b60448201526064016101b0565b610c096040518060600160405280600081526020016000815260200160006001600160a01b031681525090565b82815260208101828152336040808401828152600380546001810182556000829052865191027fc2575a0e9e593c00f959f8c92f12db2869c3395a3b0502d05e2516446f71f85b81019190915593517fc2575a0e9e593c00f959f8c92f12db2869c3395a3b0502d05e2516446f71f85c850155517fc2575a0e9e593c00f959f8c92f12db2869c3395a3b0502d05e2516446f71f85d90930180546001600160a01b03949094166001600160a01b031990941693909317909255905184907f1401a470dfc846f3d1826f7d6d29126526b69a9b09f87599ff058047251b060290610cf59086815260200190565b60405180910390a3600354600211610d0f57610d0f61016c565b505050565b60038181548110610d2457600080fd5b60009182526020909120600390910201805460018201546002909201549092506001600160a01b031683565b610d58610dc9565b6001600160a01b038116610dbd5760405162461bcd60e51b815260206004820152602660248201527f4f776e61626c653a206e6577206f776e657220697320746865207a65726f206160448201526564647265737360d01b60648201526084016101b0565b610dc681610e23565b50565b6000546001600160a01b031633146109845760405162461bcd60e51b815260206004820181905260248201527f4f776e61626c653a2063616c6c6572206973206e6f7420746865206f776e657260448201526064016101b0565b600080546001600160a01b038381166001600160a01b0319831681178455604051919092169283917f8be0079c531659141344cd1fd0a4f28419497f9722a3daafe3b4186f6b6457e09190a35050565b600060208284031215610e8557600080fd5b81356001600160a01b0381168114610e9c57600080fd5b9392505050565b600060208284031215610eb557600080fd5b81518015158114610e9c57600080fd5b600060208284031215610ed757600080fd5b5035919050565b600060208284031215610ef057600080fd5b5051919050565b60008060408385031215610f0a57600080fd5b50508035926020909101359150565b60008060408385031215610f2c57600080fd5b505080516020909101519092909150565b60008219821115610f5057610f50610fa9565b500190565b600082821015610f6757610f67610fa9565b500390565b6000600019821415610f8057610f80610fa9565b5060010190565b600082610fa457634e487b7160e01b600052601260045260246000fd5b500690565b634e487b7160e01b600052601160045260246000fd5b634e487b7160e01b600052603160045260246000fd5b634e487b7160e01b600052603260045260246000fdfea2646970667358221220c50d2f8e02a246982f02a5b02adb07a3f022bd2f85bed93bc15e4be410920d4c64736f6c63430008070033",
  "immutableReferences": {},
  "source": "// SPDX-License-Identifier: MIT\npragma solidity ^0.8.0;\n\nimport \"@openzeppelin/contracts/token/ERC20/IERC20.sol\";\nimport \"@openzeppelin/contracts/access/Ownable.sol\";\n\n// Interface for the PepesOfTheGalaxyNFT contract (ERC721)\ninterface IPepesOfTheGalaxyNFT {\n    function getPepeAttributes(uint256 _tokenId) external view returns (uint256 appearance, uint256 accessories);\n    function addExperience(uint256 _tokenId, uint256 experience) external; \n}\n\ncontract PepesOfTheGalaxyBattle is Ownable {\n    // Establish connection with PepesOfTheGalaxyNFT contract\n    IPepesOfTheGalaxyNFT public pepeNFT;\n    // Establish connection with the token contract\n    IERC20 public pepeToken;\n\n    // Structure for a battle request\n    struct BattleRequest {\n        uint256 pepeId;\n        uint256 amount;\n        address player;\n    }\n\n    // Array to keep track of battle requests\n    BattleRequest[] public battleRequests;\n\n    // Events for staking, battle outcome and transfer\n    event StakedForBattle(uint256 indexed pepeId, uint256 amount, address indexed player);\n    event BattleOutcome(address indexed player1, address indexed player2, uint256 pepe1Id, uint256 pepe2Id, uint256 winnerId);\n    event Transfer(address indexed from, address indexed to, uint256 amount);\n    event TransferSucceeded(bool success);\n\n    constructor(address _pepeNFT, address _pepeToken) {\n        pepeNFT = IPepesOfTheGalaxyNFT(_pepeNFT);\n        pepeToken = IERC20(_pepeToken);\n    }\n\n    // Stake a specific amount of tokens with a specific NFT\n    function stake(uint256 _pepeId, uint256 _amount) public {\n        // Check the player's balance\n        require(pepeToken.balanceOf(msg.sender) >= _amount, \"Insufficient balance\");\n\n        // Check the player's allowance for the battle contract\n        require(pepeToken.allowance(msg.sender, address(this)) >= _amount, \"Insufficient allowance\");\n\n        // Transfer tokens to this contract\n        require(pepeToken.transferFrom(msg.sender, address(this), _amount), \"Token transfer failed\");\n\n        // Add battle request\n        BattleRequest memory newRequest;\n        newRequest.pepeId = _pepeId;\n        newRequest.amount = _amount;\n        newRequest.player = msg.sender;\n        battleRequests.push(newRequest);\n\n        emit StakedForBattle(_pepeId, _amount, msg.sender);\n\n        // Automatically start a battle if there are at least two players\n        if (battleRequests.length >= 2) {\n            battle();\n        }\n    }\n\n    // Battle function\n    function battle() public {\n    require(battleRequests.length >= 2, \"Not enough players\");\n\n    // Get the first two players\n    BattleRequest memory player1 = battleRequests[0];\n    BattleRequest memory player2 = battleRequests[1];\n\n    // Get the attributes of the two pepes\n    (uint256 p1Attr1, uint256 p1Attr2) = pepeNFT.getPepeAttributes(player1.pepeId);\n    (uint256 p2Attr1, uint256 p2Attr2) = pepeNFT.getPepeAttributes(player2.pepeId);\n\n    // Calculate luck factor\n    uint256 randNonce = uint256(keccak256(abi.encodePacked(block.timestamp, player1.player, player1.pepeId, player2.pepeId)));\n    uint256 luckFactor = randNonce % 11;\n    p1Attr1 += luckFactor;\n    p2Attr1 += luckFactor;\n\n    // Determine the winner\n    uint256 winnerId;\n    bool transferSucceeded;\n    if (p1Attr1 + p1Attr2 > p2Attr1 + p2Attr2) {\n        winnerId = player1.pepeId;\n        transferSucceeded = pepeToken.transfer(player1.player, player1.amount + player2.amount);\n        pepeNFT.addExperience(player1.pepeId, 2);\n        pepeNFT.addExperience(player2.pepeId, 1);\n    } else {\n        winnerId = player2.pepeId;\n        transferSucceeded = pepeToken.transfer(player2.player, player1.amount + player2.amount);\n        pepeNFT.addExperience(player2.pepeId, 2);\n        pepeNFT.addExperience(player1.pepeId, 1);\n    }\n\n    // Emit the battle outcome event with the winner and their attributes\n    emit BattleOutcome(player1.player, player2.player, player1.pepeId, player2.pepeId, winnerId);\n\n    // Log the outcome of the transfer\n    emit TransferSucceeded(transferSucceeded);\n\n    // Remove the two players from the battle requests array\n    delete battleRequests[0];\n    delete battleRequests[1];\n\n    // Shift array to left by 2 positions\n    for (uint256 i = 0; i < battleRequests.length - 2; i++) {\n        battleRequests[i] = battleRequests[i + 2];\n    }\n\n    // Pop last 2 elements\n    if (battleRequests.length > 1) {\n        battleRequests.pop();\n        battleRequests.pop();\n    }\n  }\n    function numPlayers() public view returns (uint256) {\n        return battleRequests.length;\n    }\n}",
  "sourcePath": "/Users/brendanplayford/smart-contracts/contracts/PepesOfTheGalaxyBattle.sol",
  "compiler": {
    "name": "solc",
    "version": "0.8.7+commit.e28d00a7.Emscripten.clang"
  },
  "schemaVersion": "3.4.14",
  "updatedAt": "2023-07-30T21:20:50.547Z",
  "devdoc": {
    "kind": "dev",
    "methods": {
      "owner()": {
        "details": "Returns the address of the current owner."
      },
      "renounceOwnership()": {
        "details": "Leaves the contract without owner. It will not be possible to call `onlyOwner` functions. Can only be called by the current owner. NOTE: Renouncing ownership will leave the contract without an owner, thereby disabling any functionality that is only available to the owner."
      },
      "transferOwnership(address)": {
        "details": "Transfers ownership of the contract to a new account (`newOwner`). Can only be called by the current owner."
      }
    },
    "version": 1
  },
  "userdoc": {
    "kind": "user",
    "methods": {},
    "version": 1
  }
}