{
  "contractName": "PepesOfTheGalaxyBattle",
  "abi": [
    {
      "inputs": [
        {
          "internalType": "address",
          "name": "_pepeNFT",
          "type": "address"
        },
        {
          "internalType": "address",
          "name": "_pepeToken",
          "type": "address"
        }
      ],
      "stateMutability": "nonpayable",
      "type": "constructor"
    },
    {
      "anonymous": false,
      "inputs": [
        {
          "indexed": true,
          "internalType": "address",
          "name": "player1",
          "type": "address"
        },
        {
          "indexed": true,
          "internalType": "address",
          "name": "player2",
          "type": "address"
        },
        {
          "indexed": false,
          "internalType": "uint256",
          "name": "pepe1Id",
          "type": "uint256"
        },
        {
          "indexed": false,
          "internalType": "uint256",
          "name": "pepe2Id",
          "type": "uint256"
        },
        {
          "indexed": false,
          "internalType": "uint256",
          "name": "winnerId",
          "type": "uint256"
        }
      ],
      "name": "BattleOutcome",
      "type": "event"
    },
    {
      "anonymous": false,
      "inputs": [
        {
          "indexed": true,
          "internalType": "address",
          "name": "previousOwner",
          "type": "address"
        },
        {
          "indexed": true,
          "internalType": "address",
          "name": "newOwner",
          "type": "address"
        }
      ],
      "name": "OwnershipTransferred",
      "type": "event"
    },
    {
      "anonymous": false,
      "inputs": [
        {
          "indexed": true,
          "internalType": "uint256",
          "name": "pepeId",
          "type": "uint256"
        },
        {
          "indexed": false,
          "internalType": "uint256",
          "name": "amount",
          "type": "uint256"
        },
        {
          "indexed": true,
          "internalType": "address",
          "name": "player",
          "type": "address"
        }
      ],
      "name": "StakedForBattle",
      "type": "event"
    },
    {
      "inputs": [],
      "name": "owner",
      "outputs": [
        {
          "internalType": "address",
          "name": "",
          "type": "address"
        }
      ],
      "stateMutability": "view",
      "type": "function"
    },
    {
      "inputs": [],
      "name": "pepeNFT",
      "outputs": [
        {
          "internalType": "contract IPepesOfTheGalaxyNFT",
          "name": "",
          "type": "address"
        }
      ],
      "stateMutability": "view",
      "type": "function"
    },
    {
      "inputs": [],
      "name": "pepeToken",
      "outputs": [
        {
          "internalType": "contract IERC20",
          "name": "",
          "type": "address"
        }
      ],
      "stateMutability": "view",
      "type": "function"
    },
    {
      "inputs": [],
      "name": "renounceOwnership",
      "outputs": [],
      "stateMutability": "nonpayable",
      "type": "function"
    },
    {
      "inputs": [
        {
          "internalType": "address",
          "name": "newOwner",
          "type": "address"
        }
      ],
      "name": "transferOwnership",
      "outputs": [],
      "stateMutability": "nonpayable",
      "type": "function"
    },
    {
      "inputs": [
        {
          "internalType": "uint256",
          "name": "_pepeId",
          "type": "uint256"
        },
        {
          "internalType": "uint256",
          "name": "_amount",
          "type": "uint256"
        }
      ],
      "name": "stake",
      "outputs": [],
      "stateMutability": "nonpayable",
      "type": "function"
    }
  ],
  "bytecode": "0x60806040526000600455600060055534801561001a57600080fd5b50604051610cd6380380610cd6833981016040819052610039916100df565b61004233610073565b600180546001600160a01b039384166001600160a01b03199182161790915560028054929093169116179055610112565b600080546001600160a01b038381166001600160a01b0319831681178455604051919092169283917f8be0079c531659141344cd1fd0a4f28419497f9722a3daafe3b4186f6b6457e09190a35050565b80516001600160a01b03811681146100da57600080fd5b919050565b600080604083850312156100f257600080fd5b6100fb836100c3565b9150610109602084016100c3565b90509250929050565b610bb5806101216000396000f3fe608060405234801561001057600080fd5b50600436106100625760003560e01c806321cc4c3f14610067578063715018a6146100965780637592fc01146100a05780637b0472f0146100b35780638da5cb5b146100c6578063f2fde38b146100d7575b600080fd5b60025461007a906001600160a01b031681565b6040516001600160a01b03909116815260200160405180910390f35b61009e6100ea565b005b60015461007a906001600160a01b031681565b61009e6100c1366004610aa1565b6100fe565b6000546001600160a01b031661007a565b61009e6100e5366004610a36565b610510565b6100f2610589565b6100fc60006105e3565b565b6002546040516370a0823160e01b815233600482015282916001600160a01b0316906370a082319060240160206040518083038186803b15801561014157600080fd5b505afa158015610155573d6000803e3d6000fd5b505050506040513d601f19601f820116820180604052508101906101799190610a88565b10156101c35760405162461bcd60e51b8152602060048201526014602482015273496e73756666696369656e742062616c616e636560601b60448201526064015b60405180910390fd5b600254604051636eb1769f60e11b815233600482015230602482015282916001600160a01b03169063dd62ed3e9060440160206040518083038186803b15801561020c57600080fd5b505afa158015610220573d6000803e3d6000fd5b505050506040513d601f19601f820116820180604052508101906102449190610a88565b101561028b5760405162461bcd60e51b8152602060048201526016602482015275496e73756666696369656e7420616c6c6f77616e636560501b60448201526064016101ba565b6002546040516323b872dd60e01b8152336004820152306024820152604481018390526001600160a01b03909116906323b872dd90606401602060405180830381600087803b1580156102dd57600080fd5b505af11580156102f1573d6000803e3d6000fd5b505050506040513d601f19601f820116820180604052508101906103159190610a66565b6103595760405162461bcd60e51b8152602060048201526015602482015274151bdad95b881d1c985b9cd9995c8819985a5b1959605a1b60448201526064016101ba565b60035460055414156104275760408051606081018252838152602081018381523392820192835260038054600181018255600082905292517fc2575a0e9e593c00f959f8c92f12db2869c3395a3b0502d05e2516446f71f85b9390910292830155517fc2575a0e9e593c00f959f8c92f12db2869c3395a3b0502d05e2516446f71f85c82015590517fc2575a0e9e593c00f959f8c92f12db2869c3395a3b0502d05e2516446f71f85d90910180546001600160a01b0319166001600160a01b039092169190911790556104a9565b6040518060600160405280838152602001828152602001336001600160a01b031681525060036005548154811061046057610460610b69565b6000918252602091829020835160039290920201908155908201516001820155604090910151600290910180546001600160a01b0319166001600160a01b039092169190911790555b600580549060006104b983610b16565b9091555050604051818152339083907f1401a470dfc846f3d1826f7d6d29126526b69a9b09f87599ff058047251b06029060200160405180910390a360026104ff610633565b1061050c5761050c61064a565b5050565b610518610589565b6001600160a01b03811661057d5760405162461bcd60e51b815260206004820152602660248201527f4f776e61626c653a206e6577206f776e657220697320746865207a65726f206160448201526564647265737360d01b60648201526084016101ba565b610586816105e3565b50565b6000546001600160a01b031633146100fc5760405162461bcd60e51b815260206004820181905260248201527f4f776e61626c653a2063616c6c6572206973206e6f7420746865206f776e657260448201526064016101ba565b600080546001600160a01b038381166001600160a01b0319831681178455604051919092169283917f8be0079c531659141344cd1fd0a4f28419497f9722a3daafe3b4186f6b6457e09190a35050565b60006004546005546106459190610aff565b905090565b6002610654610633565b10156106975760405162461bcd60e51b81526020600482015260126024820152714e6f7420656e6f75676820706c617965727360701b60448201526064016101ba565b60006003600454815481106106ae576106ae610b69565b600091825260208083206040805160608101825260039485029092018054835260018082015494840194909452600201546001600160a01b0316908201526004549094506106fb91610ae7565b8154811061070b5761070b610b69565b600091825260208083206040805160608101825260039094029091018054845260018082015493850193909352600201546001600160a01b03908116848301529154865191516351a15cad60e01b815293955084939216916351a15cad916107799160040190815260200190565b604080518083038186803b15801561079057600080fd5b505afa1580156107a4573d6000803e3d6000fd5b505050506040513d601f19601f820116820180604052508101906107c89190610ac3565b60015485516040516351a15cad60e01b8152600481019190915292945090925060009182916001600160a01b0316906351a15cad90602401604080518083038186803b15801561081757600080fd5b505afa15801561082b573d6000803e3d6000fd5b505050506040513d601f19601f8201168201806040525081019061084f9190610ac3565b60408089015189518951925194965092945060009361089c934293909160200193845260609290921b6bffffffffffffffffffffffff191660208401526034830152605482015260740190565b60408051601f198184030181529190528051602090910120905060006108c3600b83610b31565b90506108cf8187610ae7565b95506108db8185610ae7565b9350600080600089602001518b602001516108f69190610ae7565b90506109028688610ae7565b61090c898b610ae7565b11156109235760408b01518b519093509150610930565b60408a01518a5190935091505b6002600460008282546109439190610ae7565b909155505060025460405163a9059cbb60e01b81526001600160a01b038581166004830152602482018490529091169063a9059cbb90604401602060405180830381600087803b15801561099657600080fd5b505af11580156109aa573d6000803e3d6000fd5b505050506040513d601f19601f820116820180604052508101906109ce9190610a66565b506040808b01518c8201518d518d51845191825260208201529283018590526001600160a01b03918216929116907f4a16815524b461e12c89f69d64937b8c12396d885bbc7bdf78e7984d0e7faf5f9060600160405180910390a35050505050505050505050565b600060208284031215610a4857600080fd5b81356001600160a01b0381168114610a5f57600080fd5b9392505050565b600060208284031215610a7857600080fd5b81518015158114610a5f57600080fd5b600060208284031215610a9a57600080fd5b5051919050565b60008060408385031215610ab457600080fd5b50508035926020909101359150565b60008060408385031215610ad657600080fd5b505080516020909101519092909150565b60008219821115610afa57610afa610b53565b500190565b600082821015610b1157610b11610b53565b500390565b6000600019821415610b2a57610b2a610b53565b5060010190565b600082610b4e57634e487b7160e01b600052601260045260246000fd5b500690565b634e487b7160e01b600052601160045260246000fd5b634e487b7160e01b600052603260045260246000fdfea2646970667358221220218d6fb511156f50c0e28f1088beb29de3335ec139e830ff936df9f09e47a7d164736f6c63430008070033",
  "immutableReferences": {},
  "source": "// SPDX-License-Identifier: MIT\npragma solidity ^0.8.0;\n\nimport \"@openzeppelin/contracts/token/ERC20/IERC20.sol\";\nimport \"@openzeppelin/contracts/access/Ownable.sol\";\n\ninterface IPepesOfTheGalaxyNFT {\n    function getPepeAttributes(uint256 _tokenId) external view returns (uint256 appearance, uint256 accessories);\n    function addExperience(uint256 _tokenId, uint256 experience) external; \n}\n\ncontract PepesOfTheGalaxyBattle is Ownable {\n    IPepesOfTheGalaxyNFT public pepeNFT;\n    IERC20 public pepeToken;\n\n    struct BattleRequest {\n        uint256 pepeId;\n        uint256 amount;\n        address player;\n    }\n\n    BattleRequest[] private battleQueue;\n    uint256 private front = 0;\n    uint256 private rear = 0;\n\n    event StakedForBattle(uint256 indexed pepeId, uint256 amount, address indexed player);\n    event BattleOutcome(address indexed player1, address indexed player2, uint256 pepe1Id, uint256 pepe2Id, uint256 winnerId);\n\n    constructor(address _pepeNFT, address _pepeToken) {\n        pepeNFT = IPepesOfTheGalaxyNFT(_pepeNFT);\n        pepeToken = IERC20(_pepeToken);\n    }\n\n    function stake(uint256 _pepeId, uint256 _amount) public {\n        require(pepeToken.balanceOf(msg.sender) >= _amount, \"Insufficient balance\");\n        require(pepeToken.allowance(msg.sender, address(this)) >= _amount, \"Insufficient allowance\");\n        require(pepeToken.transferFrom(msg.sender, address(this), _amount), \"Token transfer failed\");\n\n        // Enqueue\n        if(rear == battleQueue.length) {\n            battleQueue.push(BattleRequest(_pepeId, _amount, msg.sender));\n        } else {\n            battleQueue[rear] = BattleRequest(_pepeId, _amount, msg.sender);\n        }\n        rear++;\n\n        emit StakedForBattle(_pepeId, _amount, msg.sender);\n\n        if (queueLength() >= 2) {\n            battle();\n        }\n    }\n\n    function battle() private {\n        require(queueLength() >= 2, \"Not enough players\");\n\n        BattleRequest memory player1 = battleQueue[front];\n        BattleRequest memory player2 = battleQueue[front + 1];\n\n        (uint256 p1Attr1, uint256 p1Attr2) = pepeNFT.getPepeAttributes(player1.pepeId);\n        (uint256 p2Attr1, uint256 p2Attr2) = pepeNFT.getPepeAttributes(player2.pepeId);\n\n        // Calculate luck factor (for production use Chainlink VRF for critical randomness)\n        uint256 randNonce = uint256(keccak256(abi.encodePacked(block.timestamp, player1.player, player1.pepeId, player2.pepeId)));\n        uint256 luckFactor = randNonce % 11;\n        p1Attr1 += luckFactor;\n        p2Attr1 += luckFactor;\n\n        // Determine the winner\n        address winner;\n        uint256 winnerPepeId;\n        uint256 totalAmount = player1.amount + player2.amount;\n        if (p1Attr1 + p1Attr2 > p2Attr1 + p2Attr2) {\n            winner = player1.player;\n            winnerPepeId = player1.pepeId;\n        } else {\n            winner = player2.player;\n            winnerPepeId = player2.pepeId;\n        }\n\n        // Dequeue and Shift array (efficient dequeue)\n        front += 2;\n\n        // Interact with external contract after state changes\n        pepeToken.transfer(winner, totalAmount);\n\n        emit BattleOutcome(player1.player, player2.player, player1.pepeId, player2.pepeId, winnerPepeId);\n    }\n\n    function queueLength() private view returns (uint256) {\n        return rear - front;\n    }\n}\n",
  "sourcePath": "/Users/brendanplayford/smart-contracts/contracts/PepesOfTheGalaxyBattle.sol",
  "compiler": {
    "name": "solc",
    "version": "0.8.7+commit.e28d00a7.Emscripten.clang"
  },
  "schemaVersion": "3.4.15",
  "updatedAt": "2023-11-06T21:37:35.168Z",
  "devdoc": {
    "kind": "dev",
    "methods": {
      "owner()": {
        "details": "Returns the address of the current owner."
      },
      "renounceOwnership()": {
        "details": "Leaves the contract without owner. It will not be possible to call `onlyOwner` functions. Can only be called by the current owner. NOTE: Renouncing ownership will leave the contract without an owner, thereby disabling any functionality that is only available to the owner."
      },
      "transferOwnership(address)": {
        "details": "Transfers ownership of the contract to a new account (`newOwner`). Can only be called by the current owner."
      }
    },
    "version": 1
  },
  "userdoc": {
    "kind": "user",
    "methods": {},
    "version": 1
  }
}