{
  "contractName": "PepesOfTheGalaxyLaunchPool",
  "abi": [
    {
      "inputs": [
        {
          "internalType": "address",
          "name": "tokenAddress",
          "type": "address"
        },
        {
          "internalType": "uint256",
          "name": "_stakingStart",
          "type": "uint256"
        },
        {
          "internalType": "address payable",
          "name": "_feeRecipient",
          "type": "address"
        }
      ],
      "stateMutability": "nonpayable",
      "type": "constructor"
    },
    {
      "anonymous": false,
      "inputs": [
        {
          "indexed": true,
          "internalType": "address",
          "name": "previousOwner",
          "type": "address"
        },
        {
          "indexed": true,
          "internalType": "address",
          "name": "newOwner",
          "type": "address"
        }
      ],
      "name": "OwnershipTransferred",
      "type": "event"
    },
    {
      "anonymous": false,
      "inputs": [
        {
          "indexed": false,
          "internalType": "address",
          "name": "account",
          "type": "address"
        }
      ],
      "name": "Paused",
      "type": "event"
    },
    {
      "anonymous": false,
      "inputs": [
        {
          "indexed": true,
          "internalType": "address",
          "name": "user",
          "type": "address"
        },
        {
          "indexed": false,
          "internalType": "uint256",
          "name": "reward",
          "type": "uint256"
        }
      ],
      "name": "RewardPaid",
      "type": "event"
    },
    {
      "anonymous": false,
      "inputs": [
        {
          "indexed": true,
          "internalType": "address",
          "name": "user",
          "type": "address"
        },
        {
          "indexed": false,
          "internalType": "uint256",
          "name": "amount",
          "type": "uint256"
        }
      ],
      "name": "Staked",
      "type": "event"
    },
    {
      "anonymous": false,
      "inputs": [
        {
          "indexed": false,
          "internalType": "address",
          "name": "account",
          "type": "address"
        }
      ],
      "name": "Unpaused",
      "type": "event"
    },
    {
      "anonymous": false,
      "inputs": [
        {
          "indexed": true,
          "internalType": "address",
          "name": "user",
          "type": "address"
        },
        {
          "indexed": false,
          "internalType": "uint256",
          "name": "amount",
          "type": "uint256"
        },
        {
          "indexed": false,
          "internalType": "uint256",
          "name": "reward",
          "type": "uint256"
        }
      ],
      "name": "Withdrawn",
      "type": "event"
    },
    {
      "inputs": [],
      "name": "FEE_PERCENT",
      "outputs": [
        {
          "internalType": "uint256",
          "name": "",
          "type": "uint256"
        }
      ],
      "stateMutability": "view",
      "type": "function"
    },
    {
      "inputs": [],
      "name": "STAKING_PERIOD",
      "outputs": [
        {
          "internalType": "uint256",
          "name": "",
          "type": "uint256"
        }
      ],
      "stateMutability": "view",
      "type": "function"
    },
    {
      "inputs": [],
      "name": "feeRecipient",
      "outputs": [
        {
          "internalType": "address payable",
          "name": "",
          "type": "address"
        }
      ],
      "stateMutability": "view",
      "type": "function"
    },
    {
      "inputs": [],
      "name": "owner",
      "outputs": [
        {
          "internalType": "address",
          "name": "",
          "type": "address"
        }
      ],
      "stateMutability": "view",
      "type": "function"
    },
    {
      "inputs": [],
      "name": "paused",
      "outputs": [
        {
          "internalType": "bool",
          "name": "",
          "type": "bool"
        }
      ],
      "stateMutability": "view",
      "type": "function"
    },
    {
      "inputs": [],
      "name": "renounceOwnership",
      "outputs": [],
      "stateMutability": "nonpayable",
      "type": "function"
    },
    {
      "inputs": [
        {
          "internalType": "address",
          "name": "",
          "type": "address"
        }
      ],
      "name": "stakeTime",
      "outputs": [
        {
          "internalType": "uint256",
          "name": "",
          "type": "uint256"
        }
      ],
      "stateMutability": "view",
      "type": "function"
    },
    {
      "inputs": [
        {
          "internalType": "address",
          "name": "",
          "type": "address"
        }
      ],
      "name": "stakes",
      "outputs": [
        {
          "internalType": "uint256",
          "name": "",
          "type": "uint256"
        }
      ],
      "stateMutability": "view",
      "type": "function"
    },
    {
      "inputs": [],
      "name": "stakingEnd",
      "outputs": [
        {
          "internalType": "uint256",
          "name": "",
          "type": "uint256"
        }
      ],
      "stateMutability": "view",
      "type": "function"
    },
    {
      "inputs": [],
      "name": "stakingStart",
      "outputs": [
        {
          "internalType": "uint256",
          "name": "",
          "type": "uint256"
        }
      ],
      "stateMutability": "view",
      "type": "function"
    },
    {
      "inputs": [],
      "name": "token",
      "outputs": [
        {
          "internalType": "contract PepesOfTheGalaxyToken",
          "name": "",
          "type": "address"
        }
      ],
      "stateMutability": "view",
      "type": "function"
    },
    {
      "inputs": [],
      "name": "totalStaked",
      "outputs": [
        {
          "internalType": "uint256",
          "name": "",
          "type": "uint256"
        }
      ],
      "stateMutability": "view",
      "type": "function"
    },
    {
      "inputs": [
        {
          "internalType": "address",
          "name": "newOwner",
          "type": "address"
        }
      ],
      "name": "transferOwnership",
      "outputs": [],
      "stateMutability": "nonpayable",
      "type": "function"
    },
    {
      "inputs": [],
      "name": "stake",
      "outputs": [],
      "stateMutability": "payable",
      "type": "function"
    },
    {
      "inputs": [],
      "name": "claimAndWithdraw",
      "outputs": [],
      "stateMutability": "nonpayable",
      "type": "function"
    },
    {
      "inputs": [],
      "name": "pause",
      "outputs": [],
      "stateMutability": "nonpayable",
      "type": "function"
    },
    {
      "inputs": [],
      "name": "unpause",
      "outputs": [],
      "stateMutability": "nonpayable",
      "type": "function"
    }
  ],
  "bytecode": "0x608060405234801561001057600080fd5b50604051610da6380380610da683398101604081905261002f9161010f565b610038336100ac565b6000805460ff60a01b1916905560018055600580546001600160a01b0319166001600160a01b03851617905560068290556100818262093a806100fc602090811b61087717901c565b600755600880546001600160a01b0319166001600160a01b0392909216919091179055506101909050565b600080546001600160a01b038381166001600160a01b0319831681178455604051919092169283917f8be0079c531659141344cd1fd0a4f28419497f9722a3daafe3b4186f6b6457e09190a35050565b60006101088284610152565b9392505050565b60008060006060848603121561012457600080fd5b835161012f81610178565b60208501516040860151919450925061014781610178565b809150509250925092565b6000821982111561017357634e487b7160e01b600052601160045260246000fd5b500190565b6001600160a01b038116811461018d57600080fd5b50565b610c078061019f6000396000f3fe6080604052600436106100fe5760003560e01c8063715018a611610095578063aead9e4711610064578063aead9e471461027c578063d771b0a614610291578063eaf98d23146102a7578063f2fde38b146102bc578063fc0c546a146102dc57600080fd5b8063715018a61461021e578063817b1cd2146102335780638456cb59146102495780638da5cb5b1461025e57600080fd5b80633f4ba83a116100d15780633f4ba83a1461019157806346904840146101a6578063517d0411146101de5780635c975abb146101f457600080fd5b80630104db1b1461010357806316934fc41461012d5780632170e4721461015a5780633a4b66f114610187575b600080fd5b34801561010f57600080fd5b5061011a62093a8081565b6040519081526020015b60405180910390f35b34801561013957600080fd5b5061011a610148366004610ae7565b60026020526000908152604090205481565b34801561016657600080fd5b5061011a610175366004610ae7565b60036020526000908152604090205481565b61018f6102fc565b005b34801561019d57600080fd5b5061018f6104f1565b3480156101b257600080fd5b506008546101c6906001600160a01b031681565b6040516001600160a01b039091168152602001610124565b3480156101ea57600080fd5b5061011a60075481565b34801561020057600080fd5b50600054600160a01b900460ff166040519015158152602001610124565b34801561022a57600080fd5b5061018f610501565b34801561023f57600080fd5b5061011a60045481565b34801561025557600080fd5b5061018f610513565b34801561026a57600080fd5b506000546001600160a01b03166101c6565b34801561028857600080fd5b5061018f610523565b34801561029d57600080fd5b5061011a60065481565b3480156102b357600080fd5b5061011a60fa81565b3480156102c857600080fd5b5061018f6102d7366004610ae7565b6107fe565b3480156102e857600080fd5b506005546101c6906001600160a01b031681565b61030461088a565b61030c6108d7565b6006544210156103635760405162461bcd60e51b815260206004820152601a60248201527f5374616b696e6720706572696f64206e6f74207374617274656400000000000060448201526064015b60405180910390fd5b60075442106103ab5760405162461bcd60e51b815260206004820152601460248201527314dd185ada5b99c81c195c9a5bd908195b99195960621b604482015260640161035a565b600034116103fb5760405162461bcd60e51b815260206004820152601c60248201527f4d757374207374616b65206120706f73697469766520616d6f756e7400000000604482015260640161035a565b600061041461271061040e3460fa610931565b9061093d565b905060006104223483610949565b6008546040519192506001600160a01b03169083156108fc029084906000818181858888f1935050505015801561045d573d6000803e3d6000fd5b50336000908152600260205260409020546104789082610877565b336000908152600260205260409020556004546104959082610877565b6004553360008181526003602052604090819020429055517f9e71bc8eea02a63969f509818f2dafb9254532904319f9dbda79b67bd34a5f3d906104dc9084815260200190565b60405180910390a250506104ef60018055565b565b6104f9610955565b6104ef6109af565b610509610955565b6104ef6000610a04565b61051b610955565b6104ef610a54565b61052b61088a565b6105336108d7565b6007544210156105855760405162461bcd60e51b815260206004820152601b60248201527f5374616b696e6720706572696f64206e6f7420796574206f7665720000000000604482015260640161035a565b33600090815260026020526040902054806105d65760405162461bcd60e51b81526020600482015260116024820152704e6f207374616b6520746f20636c61696d60781b604482015260640161035a565b600480546005546040516370a0823160e01b81523093810193909352600092610669929161040e9186916001600160a01b0316906370a082319060240160206040518083038186803b15801561062b57600080fd5b505afa15801561063f573d6000803e3d6000fd5b505050506040513d601f19601f820116820180604052508101906106639190610b32565b90610931565b3360009081526003602052604081205491925090610688904290610949565b9050600061069d62093a8061040e8585610931565b90506106a98382610877565b336000908152600260205260408120556004549093506106c99085610949565b600490815560055460405163a9059cbb60e01b81523392810192909252602482018590526001600160a01b03169063a9059cbb90604401602060405180830381600087803b15801561071a57600080fd5b505af115801561072e573d6000803e3d6000fd5b505050506040513d601f19601f820116820180604052508101906107529190610b10565b50604051339085156108fc029086906000818181858888f19350505050158015610780573d6000803e3d6000fd5b50604080518581526020810185905233917f92ccf450a286a957af52509bc1c9939d1a6a481783e142e41e2499f0bb66ebc6910160405180910390a260405183815233907fe2403640ba68fed3a2f88b7557551d1993f84b99bb10ff833f0cf8db0c5e04869060200160405180910390a2505050506104ef60018055565b610806610955565b6001600160a01b03811661086b5760405162461bcd60e51b815260206004820152602660248201527f4f776e61626c653a206e6577206f776e657220697320746865207a65726f206160448201526564647265737360d01b606482015260840161035a565b61087481610a04565b50565b60006108838284610b4b565b9392505050565b600054600160a01b900460ff16156104ef5760405162461bcd60e51b815260206004820152601060248201526f14185d5cd8589b194e881c185d5cd95960821b604482015260640161035a565b6002600154141561092a5760405162461bcd60e51b815260206004820152601f60248201527f5265656e7472616e637947756172643a207265656e7472616e742063616c6c00604482015260640161035a565b6002600155565b60006108838284610b85565b60006108838284610b63565b60006108838284610ba4565b6000546001600160a01b031633146104ef5760405162461bcd60e51b815260206004820181905260248201527f4f776e61626c653a2063616c6c6572206973206e6f7420746865206f776e6572604482015260640161035a565b6109b7610a97565b6000805460ff60a01b191690557f5db9ee0a495bf2e6ff9c91a7834c1ba4fdd244a5e8aa4e537bd38aeae4b073aa335b6040516001600160a01b03909116815260200160405180910390a1565b600080546001600160a01b038381166001600160a01b0319831681178455604051919092169283917f8be0079c531659141344cd1fd0a4f28419497f9722a3daafe3b4186f6b6457e09190a35050565b610a5c61088a565b6000805460ff60a01b1916600160a01b1790557f62e78cea01bee320cd4e420270b5ea74000d11b0c9f74754ebdbfc544b05a2586109e73390565b600054600160a01b900460ff166104ef5760405162461bcd60e51b815260206004820152601460248201527314185d5cd8589b194e881b9bdd081c185d5cd95960621b604482015260640161035a565b600060208284031215610af957600080fd5b81356001600160a01b038116811461088357600080fd5b600060208284031215610b2257600080fd5b8151801515811461088357600080fd5b600060208284031215610b4457600080fd5b5051919050565b60008219821115610b5e57610b5e610bbb565b500190565b600082610b8057634e487b7160e01b600052601260045260246000fd5b500490565b6000816000190483118215151615610b9f57610b9f610bbb565b500290565b600082821015610bb657610bb6610bbb565b500390565b634e487b7160e01b600052601160045260246000fdfea2646970667358221220b31a3c23494a7999eb84947525ab5d2b3b98fb78f34f4a272c999addc7a4ffae64736f6c63430008070033",
  "immutableReferences": {},
  "source": "// SPDX-License-Identifier: MIT\npragma solidity ^0.8.0;\n\nimport \"./PepesOfTheGalaxyToken.sol\";\nimport \"@openzeppelin/contracts/security/Pausable.sol\";\nimport \"@openzeppelin/contracts/access/Ownable.sol\";\nimport \"@openzeppelin/contracts/security/ReentrancyGuard.sol\";\nimport \"@openzeppelin/contracts/utils/math/SafeMath.sol\";\n\ncontract PepesOfTheGalaxyLaunchPool is Ownable, Pausable, ReentrancyGuard {\n    using SafeMath for uint256;\n\n    mapping(address => uint256) public stakes;\n    mapping(address => uint256) public stakeTime;\n    uint256 public totalStaked;\n    PepesOfTheGalaxyToken public token;\n    uint256 public constant STAKING_PERIOD = 7 days;\n    uint256 public stakingStart;\n    uint256 public stakingEnd;\n    uint256 public constant FEE_PERCENT = 250; // 2.5% due to smallest unit of number 1 Wei // we divide by 1000 later in contract to get correct %\n    address payable public feeRecipient;\n\n    event Staked(address indexed user, uint256 amount);\n    event Withdrawn(address indexed user, uint256 amount, uint256 reward);\n    event RewardPaid(address indexed user, uint256 reward);\n\n    constructor(address tokenAddress, uint256 _stakingStart, address payable _feeRecipient) {\n        token = PepesOfTheGalaxyToken(tokenAddress);\n        stakingStart = _stakingStart;\n        stakingEnd = stakingStart.add(STAKING_PERIOD);\n        feeRecipient = _feeRecipient;\n    }\n\n    function stake() public payable whenNotPaused nonReentrant {\n        require(block.timestamp >= stakingStart, \"Staking period not started\");\n        require(block.timestamp < stakingEnd, \"Staking period ended\");\n        require(msg.value > 0, \"Must stake a positive amount\");\n\n        uint256 fee = msg.value.mul(FEE_PERCENT).div(10000); // Calculate the fee\n        uint256 amountAfterFee = msg.value.sub(fee); // Subtract the fee from the staked amount\n\n        // Transfer the fee to the fee recipient\n        feeRecipient.transfer(fee);\n\n        // Update the staker's stake and the total staked amount\n        stakes[msg.sender] = stakes[msg.sender].add(amountAfterFee);\n        totalStaked = totalStaked.add(amountAfterFee);\n\n        // Update the staker's stake time\n        stakeTime[msg.sender] = block.timestamp;\n\n        emit Staked(msg.sender, amountAfterFee);\n    }\n\n    function claimAndWithdraw() public whenNotPaused nonReentrant {\n        require(block.timestamp >= stakingEnd, \"Staking period not yet over\");\n\n        uint256 userStake = stakes[msg.sender];\n        require(userStake > 0, \"No stake to claim\");\n\n        // Calculate the staker's share of the PEPEOG\n        uint256 reward = token.balanceOf(address(this)).mul(userStake).div(totalStaked);\n\n        // Apply a bonus based on the time staked using a bonding curve\n        uint256 timeStaked = block.timestamp.sub(stakeTime[msg.sender]);\n        uint256 bonus = reward.mul(timeStaked).div(STAKING_PERIOD);\n        reward = reward.add(bonus);\n\n        // Update the staker's stake and the total staked amount\n                stakes[msg.sender] = 0;\n        totalStaked = totalStaked.sub(userStake);\n\n        // Transfer the reward to the staker\n        token.transfer(msg.sender, reward);\n\n        // Transfer the staked BNB back to the staker\n        payable(msg.sender).transfer(userStake);\n\n        emit Withdrawn(msg.sender, userStake, reward);\n        emit RewardPaid(msg.sender, reward);\n    }\n\n    function pause() public onlyOwner {\n        _pause();\n    }\n\n    function unpause() public onlyOwner {\n        _unpause();\n    }\n}",
  "sourcePath": "/Users/brendanplayford/smart-contracts/contracts/PepesOfTheGalaxyLaunchPool.sol",
  "compiler": {
    "name": "solc",
    "version": "0.8.7+commit.e28d00a7.Emscripten.clang"
  },
  "schemaVersion": "3.4.15",
  "updatedAt": "2023-11-11T17:48:01.129Z",
  "devdoc": {
    "kind": "dev",
    "methods": {
      "owner()": {
        "details": "Returns the address of the current owner."
      },
      "paused()": {
        "details": "Returns true if the contract is paused, and false otherwise."
      },
      "renounceOwnership()": {
        "details": "Leaves the contract without owner. It will not be possible to call `onlyOwner` functions. Can only be called by the current owner. NOTE: Renouncing ownership will leave the contract without an owner, thereby disabling any functionality that is only available to the owner."
      },
      "transferOwnership(address)": {
        "details": "Transfers ownership of the contract to a new account (`newOwner`). Can only be called by the current owner."
      }
    },
    "version": 1
  },
  "userdoc": {
    "kind": "user",
    "methods": {},
    "version": 1
  }
}