{
  "contractName": "PepesOfTheGalaxyLaunchPool",
  "abi": [
    {
      "inputs": [
        {
          "internalType": "address",
          "name": "tokenAddress",
          "type": "address"
        },
        {
          "internalType": "uint256",
          "name": "_stakingStart",
          "type": "uint256"
        }
      ],
      "stateMutability": "nonpayable",
      "type": "constructor"
    },
    {
      "anonymous": false,
      "inputs": [
        {
          "indexed": true,
          "internalType": "address",
          "name": "previousOwner",
          "type": "address"
        },
        {
          "indexed": true,
          "internalType": "address",
          "name": "newOwner",
          "type": "address"
        }
      ],
      "name": "OwnershipTransferred",
      "type": "event"
    },
    {
      "anonymous": false,
      "inputs": [
        {
          "indexed": false,
          "internalType": "address",
          "name": "account",
          "type": "address"
        }
      ],
      "name": "Paused",
      "type": "event"
    },
    {
      "anonymous": false,
      "inputs": [
        {
          "indexed": false,
          "internalType": "address",
          "name": "account",
          "type": "address"
        }
      ],
      "name": "Unpaused",
      "type": "event"
    },
    {
      "inputs": [],
      "name": "STAKING_PERIOD",
      "outputs": [
        {
          "internalType": "uint256",
          "name": "",
          "type": "uint256"
        }
      ],
      "stateMutability": "view",
      "type": "function"
    },
    {
      "inputs": [],
      "name": "owner",
      "outputs": [
        {
          "internalType": "address",
          "name": "",
          "type": "address"
        }
      ],
      "stateMutability": "view",
      "type": "function"
    },
    {
      "inputs": [],
      "name": "paused",
      "outputs": [
        {
          "internalType": "bool",
          "name": "",
          "type": "bool"
        }
      ],
      "stateMutability": "view",
      "type": "function"
    },
    {
      "inputs": [],
      "name": "renounceOwnership",
      "outputs": [],
      "stateMutability": "nonpayable",
      "type": "function"
    },
    {
      "inputs": [
        {
          "internalType": "address",
          "name": "",
          "type": "address"
        }
      ],
      "name": "stakes",
      "outputs": [
        {
          "internalType": "uint256",
          "name": "",
          "type": "uint256"
        }
      ],
      "stateMutability": "view",
      "type": "function"
    },
    {
      "inputs": [],
      "name": "stakingEnd",
      "outputs": [
        {
          "internalType": "uint256",
          "name": "",
          "type": "uint256"
        }
      ],
      "stateMutability": "view",
      "type": "function"
    },
    {
      "inputs": [],
      "name": "stakingStart",
      "outputs": [
        {
          "internalType": "uint256",
          "name": "",
          "type": "uint256"
        }
      ],
      "stateMutability": "view",
      "type": "function"
    },
    {
      "inputs": [],
      "name": "token",
      "outputs": [
        {
          "internalType": "contract PepesOfTheGalaxyToken",
          "name": "",
          "type": "address"
        }
      ],
      "stateMutability": "view",
      "type": "function"
    },
    {
      "inputs": [],
      "name": "totalStaked",
      "outputs": [
        {
          "internalType": "uint256",
          "name": "",
          "type": "uint256"
        }
      ],
      "stateMutability": "view",
      "type": "function"
    },
    {
      "inputs": [
        {
          "internalType": "address",
          "name": "newOwner",
          "type": "address"
        }
      ],
      "name": "transferOwnership",
      "outputs": [],
      "stateMutability": "nonpayable",
      "type": "function"
    },
    {
      "inputs": [],
      "name": "stake",
      "outputs": [],
      "stateMutability": "payable",
      "type": "function"
    },
    {
      "inputs": [],
      "name": "claimAndWithdraw",
      "outputs": [],
      "stateMutability": "nonpayable",
      "type": "function"
    },
    {
      "inputs": [],
      "name": "pause",
      "outputs": [],
      "stateMutability": "nonpayable",
      "type": "function"
    },
    {
      "inputs": [],
      "name": "unpause",
      "outputs": [],
      "stateMutability": "nonpayable",
      "type": "function"
    }
  ],
  "bytecode": "0x608060405234801561001057600080fd5b50604051610b81380380610b8183398101604081905261002f916100ef565b6100383361008c565b6000805460ff60a01b1916905560018055600480546001600160a01b0319166001600160a01b03841617905560058190556100818162093a806100dc602090811b61069317901c565b6006555061014f9050565b600080546001600160a01b038381166001600160a01b0319831681178455604051919092169283917f8be0079c531659141344cd1fd0a4f28419497f9722a3daafe3b4186f6b6457e09190a35050565b60006100e88284610129565b9392505050565b6000806040838503121561010257600080fd5b82516001600160a01b038116811461011957600080fd5b6020939093015192949293505050565b6000821982111561014a57634e487b7160e01b600052601160045260246000fd5b500190565b610a238061015e6000396000f3fe6080604052600436106100dd5760003560e01c8063817b1cd21161007f578063aead9e4711610059578063aead9e471461020a578063d771b0a61461021f578063f2fde38b14610235578063fc0c546a1461025557600080fd5b8063817b1cd2146101ad5780638456cb59146101c35780638da5cb5b146101d857600080fd5b80633f4ba83a116100bb5780633f4ba83a14610143578063517d0411146101585780635c975abb1461016e578063715018a61461019857600080fd5b80630104db1b146100e257806316934fc41461010c5780633a4b66f114610139575b600080fd5b3480156100ee57600080fd5b506100f962093a8081565b6040519081526020015b60405180910390f35b34801561011857600080fd5b506100f9610127366004610903565b60026020526000908152604090205481565b610141610275565b005b34801561014f57600080fd5b506101416103b9565b34801561016457600080fd5b506100f960065481565b34801561017a57600080fd5b50600054600160a01b900460ff166040519015158152602001610103565b3480156101a457600080fd5b506101416103c9565b3480156101b957600080fd5b506100f960035481565b3480156101cf57600080fd5b506101416103db565b3480156101e457600080fd5b506000546001600160a01b03165b6040516001600160a01b039091168152602001610103565b34801561021657600080fd5b506101416103eb565b34801561022b57600080fd5b506100f960055481565b34801561024157600080fd5b50610141610250366004610903565b61061a565b34801561026157600080fd5b506004546101f2906001600160a01b031681565b61027d6106a6565b6102856106f3565b6005544210156102dc5760405162461bcd60e51b815260206004820152601a60248201527f5374616b696e6720706572696f64206e6f74207374617274656400000000000060448201526064015b60405180910390fd5b60065442106103245760405162461bcd60e51b815260206004820152601460248201527314dd185ada5b99c81c195c9a5bd908195b99195960621b60448201526064016102d3565b600034116103745760405162461bcd60e51b815260206004820152601c60248201527f4d757374207374616b65206120706f73697469766520616d6f756e740000000060448201526064016102d3565b3360009081526002602052604090205461038e9034610693565b336000908152600260205260409020556003546103ab9034610693565b6003556103b760018055565b565b6103c161074d565b6103b76107a7565b6103d161074d565b6103b760006107fc565b6103e361074d565b6103b761084c565b6103f36106a6565b6103fb6106f3565b60065442101561044d5760405162461bcd60e51b815260206004820152601b60248201527f5374616b696e6720706572696f64206e6f7420796574206f766572000000000060448201526064016102d3565b336000908152600260205260409020548061049e5760405162461bcd60e51b81526020600482015260116024820152704e6f207374616b6520746f20636c61696d60781b60448201526064016102d3565b600354600480546040516370a0823160e01b815230928101929092526000926105389290916105329186916001600160a01b0316906370a082319060240160206040518083038186803b1580156104f457600080fd5b505afa158015610508573d6000803e3d6000fd5b505050506040513d601f19601f8201168201806040525081019061052c919061094e565b9061088f565b9061089b565b3360009081526002602052604081205560035490915061055890836108a7565b6003556004805460405163a9059cbb60e01b81523392810192909252602482018390526001600160a01b03169063a9059cbb90604401602060405180830381600087803b1580156105a857600080fd5b505af11580156105bc573d6000803e3d6000fd5b505050506040513d601f19601f820116820180604052508101906105e0919061092c565b50604051339083156108fc029084906000818181858888f1935050505015801561060e573d6000803e3d6000fd5b5050506103b760018055565b61062261074d565b6001600160a01b0381166106875760405162461bcd60e51b815260206004820152602660248201527f4f776e61626c653a206e6577206f776e657220697320746865207a65726f206160448201526564647265737360d01b60648201526084016102d3565b610690816107fc565b50565b600061069f8284610967565b9392505050565b600054600160a01b900460ff16156103b75760405162461bcd60e51b815260206004820152601060248201526f14185d5cd8589b194e881c185d5cd95960821b60448201526064016102d3565b600260015414156107465760405162461bcd60e51b815260206004820152601f60248201527f5265656e7472616e637947756172643a207265656e7472616e742063616c6c0060448201526064016102d3565b6002600155565b6000546001600160a01b031633146103b75760405162461bcd60e51b815260206004820181905260248201527f4f776e61626c653a2063616c6c6572206973206e6f7420746865206f776e657260448201526064016102d3565b6107af6108b3565b6000805460ff60a01b191690557f5db9ee0a495bf2e6ff9c91a7834c1ba4fdd244a5e8aa4e537bd38aeae4b073aa335b6040516001600160a01b03909116815260200160405180910390a1565b600080546001600160a01b038381166001600160a01b0319831681178455604051919092169283917f8be0079c531659141344cd1fd0a4f28419497f9722a3daafe3b4186f6b6457e09190a35050565b6108546106a6565b6000805460ff60a01b1916600160a01b1790557f62e78cea01bee320cd4e420270b5ea74000d11b0c9f74754ebdbfc544b05a2586107df3390565b600061069f82846109a1565b600061069f828461097f565b600061069f82846109c0565b600054600160a01b900460ff166103b75760405162461bcd60e51b815260206004820152601460248201527314185d5cd8589b194e881b9bdd081c185d5cd95960621b60448201526064016102d3565b60006020828403121561091557600080fd5b81356001600160a01b038116811461069f57600080fd5b60006020828403121561093e57600080fd5b8151801515811461069f57600080fd5b60006020828403121561096057600080fd5b5051919050565b6000821982111561097a5761097a6109d7565b500190565b60008261099c57634e487b7160e01b600052601260045260246000fd5b500490565b60008160001904831182151516156109bb576109bb6109d7565b500290565b6000828210156109d2576109d26109d7565b500390565b634e487b7160e01b600052601160045260246000fdfea264697066735822122058b72683229d464e47b855fce8d8ce6fdb5d65ca3bd4f2531c5e75f8d680794464736f6c63430008070033",
  "immutableReferences": {},
  "source": "// SPDX-License-Identifier: MIT\npragma solidity ^0.8.0;\n\nimport \"./PepesOfTheGalaxyToken.sol\";\nimport \"@openzeppelin/contracts/security/Pausable.sol\";\nimport \"@openzeppelin/contracts/access/Ownable.sol\";\nimport \"@openzeppelin/contracts/security/ReentrancyGuard.sol\";\nimport \"@openzeppelin/contracts/utils/math/SafeMath.sol\";\n\ncontract PepesOfTheGalaxyLaunchPool is Ownable, Pausable, ReentrancyGuard {\n    using SafeMath for uint256;\n\n    mapping(address => uint256) public stakes;\n    uint256 public totalStaked;\n    PepesOfTheGalaxyToken public token;\n    uint256 public constant STAKING_PERIOD = 7 days;\n    uint256 public stakingStart;\n    uint256 public stakingEnd;\n\n    constructor(address tokenAddress, uint256 _stakingStart) {\n        token = PepesOfTheGalaxyToken(tokenAddress);\n        stakingStart = _stakingStart;\n        stakingEnd = stakingStart.add(STAKING_PERIOD);\n    }\n\n    function stake() public payable whenNotPaused nonReentrant {\n        require(block.timestamp >= stakingStart, \"Staking period not started\");\n        require(block.timestamp < stakingEnd, \"Staking period ended\");\n        require(msg.value > 0, \"Must stake a positive amount\");\n\n        // Update the staker's stake and the total staked amount\n        stakes[msg.sender] = stakes[msg.sender].add(msg.value);\n        totalStaked = totalStaked.add(msg.value);\n    }\n\n    function claimAndWithdraw() public whenNotPaused nonReentrant {\n        require(block.timestamp >= stakingEnd, \"Staking period not yet over\");\n\n        uint256 userStake = stakes[msg.sender];\n        require(userStake > 0, \"No stake to claim\");\n\n        // Calculate the staker's share of the PEP\n        uint256 reward = token.balanceOf(address(this)).mul(userStake).div(totalStaked);\n\n        // Update the staker's stake and the total staked amount\n        stakes[msg.sender] = 0;\n        totalStaked = totalStaked.sub(userStake);\n\n        // Transfer the reward to the staker\n        token.transfer(msg.sender, reward);\n\n        // Transfer the staked BNB back to the staker\n        payable(msg.sender).transfer(userStake);\n    }\n\n    function pause() public onlyOwner {\n        _pause();\n    }\n\n    function unpause() public onlyOwner {\n        _unpause();\n    }\n}",
  "sourcePath": "/Users/brendanplayford/smart-contracts/contracts/PepesOfTheGalaxyLaunchPool.sol",
  "compiler": {
    "name": "solc",
    "version": "0.8.7+commit.e28d00a7.Emscripten.clang"
  },
  "schemaVersion": "3.4.15",
  "updatedAt": "2023-11-11T16:47:46.251Z",
  "devdoc": {
    "kind": "dev",
    "methods": {
      "owner()": {
        "details": "Returns the address of the current owner."
      },
      "paused()": {
        "details": "Returns true if the contract is paused, and false otherwise."
      },
      "renounceOwnership()": {
        "details": "Leaves the contract without owner. It will not be possible to call `onlyOwner` functions. Can only be called by the current owner. NOTE: Renouncing ownership will leave the contract without an owner, thereby disabling any functionality that is only available to the owner."
      },
      "transferOwnership(address)": {
        "details": "Transfers ownership of the contract to a new account (`newOwner`). Can only be called by the current owner."
      }
    },
    "version": 1
  },
  "userdoc": {
    "kind": "user",
    "methods": {},
    "version": 1
  }
}