{
  "contractName": "PepesOfTheGalaxyLaunchPool",
  "abi": [
    {
      "inputs": [
        {
          "internalType": "address",
          "name": "tokenAddress",
          "type": "address"
        }
      ],
      "stateMutability": "nonpayable",
      "type": "constructor"
    },
    {
      "anonymous": false,
      "inputs": [
        {
          "indexed": true,
          "internalType": "address",
          "name": "previousOwner",
          "type": "address"
        },
        {
          "indexed": true,
          "internalType": "address",
          "name": "newOwner",
          "type": "address"
        }
      ],
      "name": "OwnershipTransferred",
      "type": "event"
    },
    {
      "anonymous": false,
      "inputs": [
        {
          "indexed": false,
          "internalType": "address",
          "name": "account",
          "type": "address"
        }
      ],
      "name": "Paused",
      "type": "event"
    },
    {
      "anonymous": false,
      "inputs": [
        {
          "indexed": false,
          "internalType": "address",
          "name": "account",
          "type": "address"
        }
      ],
      "name": "Unpaused",
      "type": "event"
    },
    {
      "inputs": [],
      "name": "STAKING_PERIOD",
      "outputs": [
        {
          "internalType": "uint256",
          "name": "",
          "type": "uint256"
        }
      ],
      "stateMutability": "view",
      "type": "function"
    },
    {
      "inputs": [],
      "name": "owner",
      "outputs": [
        {
          "internalType": "address",
          "name": "",
          "type": "address"
        }
      ],
      "stateMutability": "view",
      "type": "function"
    },
    {
      "inputs": [],
      "name": "paused",
      "outputs": [
        {
          "internalType": "bool",
          "name": "",
          "type": "bool"
        }
      ],
      "stateMutability": "view",
      "type": "function"
    },
    {
      "inputs": [],
      "name": "renounceOwnership",
      "outputs": [],
      "stateMutability": "nonpayable",
      "type": "function"
    },
    {
      "inputs": [
        {
          "internalType": "address",
          "name": "",
          "type": "address"
        }
      ],
      "name": "stakeTime",
      "outputs": [
        {
          "internalType": "uint256",
          "name": "",
          "type": "uint256"
        }
      ],
      "stateMutability": "view",
      "type": "function"
    },
    {
      "inputs": [
        {
          "internalType": "address",
          "name": "",
          "type": "address"
        }
      ],
      "name": "stakes",
      "outputs": [
        {
          "internalType": "uint256",
          "name": "",
          "type": "uint256"
        }
      ],
      "stateMutability": "view",
      "type": "function"
    },
    {
      "inputs": [],
      "name": "token",
      "outputs": [
        {
          "internalType": "contract PepesOfTheGalaxyToken",
          "name": "",
          "type": "address"
        }
      ],
      "stateMutability": "view",
      "type": "function"
    },
    {
      "inputs": [],
      "name": "totalStaked",
      "outputs": [
        {
          "internalType": "uint256",
          "name": "",
          "type": "uint256"
        }
      ],
      "stateMutability": "view",
      "type": "function"
    },
    {
      "inputs": [
        {
          "internalType": "address",
          "name": "newOwner",
          "type": "address"
        }
      ],
      "name": "transferOwnership",
      "outputs": [],
      "stateMutability": "nonpayable",
      "type": "function"
    },
    {
      "inputs": [],
      "name": "stake",
      "outputs": [],
      "stateMutability": "payable",
      "type": "function"
    },
    {
      "inputs": [],
      "name": "claim",
      "outputs": [],
      "stateMutability": "nonpayable",
      "type": "function"
    },
    {
      "inputs": [],
      "name": "pause",
      "outputs": [],
      "stateMutability": "nonpayable",
      "type": "function"
    },
    {
      "inputs": [],
      "name": "unpause",
      "outputs": [],
      "stateMutability": "nonpayable",
      "type": "function"
    }
  ],
  "bytecode": "0x608060405234801561001057600080fd5b5060405161098038038061098083398101604081905261002f916100ba565b6100383361006a565b6000805460ff60a01b19169055600480546001600160a01b0319166001600160a01b03929092169190911790556100ea565b600080546001600160a01b038381166001600160a01b0319831681178455604051919092169283917f8be0079c531659141344cd1fd0a4f28419497f9722a3daafe3b4186f6b6457e09190a35050565b6000602082840312156100cc57600080fd5b81516001600160a01b03811681146100e357600080fd5b9392505050565b610887806100f96000396000f3fe6080604052600436106100c25760003560e01c80635c975abb1161007f5780638456cb59116100595780638456cb59146101d45780638da5cb5b146101e9578063f2fde38b1461021b578063fc0c546a1461023b57600080fd5b80635c975abb1461017f578063715018a6146101a9578063817b1cd2146101be57600080fd5b80630104db1b146100c757806316934fc4146100f15780632170e4721461011e5780633a4b66f11461014b5780633f4ba83a146101555780634e71d92d1461016a575b600080fd5b3480156100d357600080fd5b506100de62093a8081565b6040519081526020015b60405180910390f35b3480156100fd57600080fd5b506100de61010c366004610760565b60016020526000908152604090205481565b34801561012a57600080fd5b506100de610139366004610760565b60026020526000908152604090205481565b61015361025b565b005b34801561016157600080fd5b506101536102b4565b34801561017657600080fd5b506101536102c6565b34801561018b57600080fd5b50600054600160a01b900460ff1660405190151581526020016100e8565b3480156101b557600080fd5b506101536104e6565b3480156101ca57600080fd5b506100de60035481565b3480156101e057600080fd5b506101536104f8565b3480156101f557600080fd5b506000546001600160a01b03165b6040516001600160a01b0390911681526020016100e8565b34801561022757600080fd5b50610153610236366004610760565b610508565b34801561024757600080fd5b50600454610203906001600160a01b031681565b610263610581565b33600090815260016020526040812080543492906102829084906107cb565b92505081905550346003600082825461029b91906107cb565b9091555050336000908152600260205260409020429055565b6102bc6105ce565b6102c4610628565b565b6102ce610581565b336000908152600260205260409020546102ec9062093a80906107cb565b4210156103405760405162461bcd60e51b815260206004820152601b60248201527f5374616b696e6720706572696f64206e6f7420796574206f766572000000000060448201526064015b60405180910390fd5b60035433600090815260016020526040808220546004805492516370a0823160e01b8152309181019190915292939290916001600160a01b0316906370a082319060240160206040518083038186803b15801561039c57600080fd5b505afa1580156103b0573d6000803e3d6000fd5b505050506040513d601f19601f820116820180604052508101906103d491906107b2565b6103de9190610805565b6103e891906107e3565b33600090815260026020526040812054919250906104069042610824565b9050600062093a806104188385610805565b61042291906107e3565b905061042e81846107cb565b3360009081526001602052604081208190556003805492955090918290610456908290610824565b90915550506004805460405163a9059cbb60e01b81523392810192909252602482018590526001600160a01b03169063a9059cbb90604401602060405180830381600087803b1580156104a857600080fd5b505af11580156104bc573d6000803e3d6000fd5b505050506040513d601f19601f820116820180604052508101906104e09190610790565b50505050565b6104ee6105ce565b6102c4600061067d565b6105006105ce565b6102c46106cd565b6105106105ce565b6001600160a01b0381166105755760405162461bcd60e51b815260206004820152602660248201527f4f776e61626c653a206e6577206f776e657220697320746865207a65726f206160448201526564647265737360d01b6064820152608401610337565b61057e8161067d565b50565b600054600160a01b900460ff16156102c45760405162461bcd60e51b815260206004820152601060248201526f14185d5cd8589b194e881c185d5cd95960821b6044820152606401610337565b6000546001600160a01b031633146102c45760405162461bcd60e51b815260206004820181905260248201527f4f776e61626c653a2063616c6c6572206973206e6f7420746865206f776e65726044820152606401610337565b610630610710565b6000805460ff60a01b191690557f5db9ee0a495bf2e6ff9c91a7834c1ba4fdd244a5e8aa4e537bd38aeae4b073aa335b6040516001600160a01b03909116815260200160405180910390a1565b600080546001600160a01b038381166001600160a01b0319831681178455604051919092169283917f8be0079c531659141344cd1fd0a4f28419497f9722a3daafe3b4186f6b6457e09190a35050565b6106d5610581565b6000805460ff60a01b1916600160a01b1790557f62e78cea01bee320cd4e420270b5ea74000d11b0c9f74754ebdbfc544b05a2586106603390565b600054600160a01b900460ff166102c45760405162461bcd60e51b815260206004820152601460248201527314185d5cd8589b194e881b9bdd081c185d5cd95960621b6044820152606401610337565b60006020828403121561077257600080fd5b81356001600160a01b038116811461078957600080fd5b9392505050565b6000602082840312156107a257600080fd5b8151801515811461078957600080fd5b6000602082840312156107c457600080fd5b5051919050565b600082198211156107de576107de61083b565b500190565b60008261080057634e487b7160e01b600052601260045260246000fd5b500490565b600081600019048311821515161561081f5761081f61083b565b500290565b6000828210156108365761083661083b565b500390565b634e487b7160e01b600052601160045260246000fdfea2646970667358221220a935fc4249026bac7c143053627190775629a504fdac744e0e0e3b2c2ea75f9164736f6c63430008070033",
  "immutableReferences": {},
  "source": "// SPDX-License-Identifier: MIT\npragma solidity ^0.8.0;\n\nimport \"./PepesOfTheGalaxyToken.sol\";\nimport \"@openzeppelin/contracts/security/Pausable.sol\";\nimport \"@openzeppelin/contracts/access/Ownable.sol\";\n\ncontract PepesOfTheGalaxyLaunchPool is Ownable, Pausable {\n    mapping(address => uint256) public stakes;\n    mapping(address => uint256) public stakeTime;\n    uint256 public totalStaked;\n    PepesOfTheGalaxyToken public token;\n    uint256 public constant STAKING_PERIOD = 7 days;\n\n    constructor(address tokenAddress) {\n        token = PepesOfTheGalaxyToken(tokenAddress);\n    }\n\n    function stake() public payable whenNotPaused {\n        // Update the staker's stake and the total staked amount\n        stakes[msg.sender] += msg.value;\n        totalStaked += msg.value;\n\n        // Update the staker's stake time\n        stakeTime[msg.sender] = block.timestamp;\n    }\n\n    function claim() public whenNotPaused {\n        require(block.timestamp >= stakeTime[msg.sender] + STAKING_PERIOD, \"Staking period not yet over\");\n\n        // Calculate the staker's share of the PEPEOG tokens in the pool\n        uint256 reward = token.balanceOf(address(this)) * stakes[msg.sender] / totalStaked;\n\n        // Apply a bonus based on the time staked using a bonding curve\n        uint256 timeStaked = block.timestamp - stakeTime[msg.sender];\n        uint256 bonus = reward * timeStaked / STAKING_PERIOD;\n        reward += bonus;\n\n        // Update the staker's stake and the total staked amount\n        stakes[msg.sender] = 0;\n        totalStaked -= stakes[msg.sender];\n\n        // Transfer the reward to the staker\n        token.transfer(msg.sender, reward);\n    }\n\n    function pause() public onlyOwner {\n        _pause();\n    }\n\n    function unpause() public onlyOwner {\n        _unpause();\n    }\n}",
  "sourcePath": "/Users/brendanplayford/smart-contracts/contracts/PepesOfTheGalaxyLaunchPool.sol",
  "compiler": {
    "name": "solc",
    "version": "0.8.7+commit.e28d00a7.Emscripten.clang"
  },
  "schemaVersion": "3.4.15",
  "updatedAt": "2023-11-06T21:37:35.171Z",
  "devdoc": {
    "kind": "dev",
    "methods": {
      "owner()": {
        "details": "Returns the address of the current owner."
      },
      "paused()": {
        "details": "Returns true if the contract is paused, and false otherwise."
      },
      "renounceOwnership()": {
        "details": "Leaves the contract without owner. It will not be possible to call `onlyOwner` functions. Can only be called by the current owner. NOTE: Renouncing ownership will leave the contract without an owner, thereby disabling any functionality that is only available to the owner."
      },
      "transferOwnership(address)": {
        "details": "Transfers ownership of the contract to a new account (`newOwner`). Can only be called by the current owner."
      }
    },
    "version": 1
  },
  "userdoc": {
    "kind": "user",
    "methods": {},
    "version": 1
  }
}