{
  "contractName": "PepesOfTheGalaxyLaunchPool",
  "abi": [
    {
      "inputs": [
        {
          "internalType": "address",
          "name": "tokenAddress",
          "type": "address"
        },
        {
          "internalType": "uint256",
          "name": "_stakingStart",
          "type": "uint256"
        },
        {
          "internalType": "address payable",
          "name": "_feeRecipient",
          "type": "address"
        }
      ],
      "stateMutability": "nonpayable",
      "type": "constructor"
    },
    {
      "anonymous": false,
      "inputs": [
        {
          "indexed": true,
          "internalType": "address",
          "name": "previousOwner",
          "type": "address"
        },
        {
          "indexed": true,
          "internalType": "address",
          "name": "newOwner",
          "type": "address"
        }
      ],
      "name": "OwnershipTransferred",
      "type": "event"
    },
    {
      "anonymous": false,
      "inputs": [
        {
          "indexed": false,
          "internalType": "address",
          "name": "account",
          "type": "address"
        }
      ],
      "name": "Paused",
      "type": "event"
    },
    {
      "anonymous": false,
      "inputs": [
        {
          "indexed": true,
          "internalType": "address",
          "name": "user",
          "type": "address"
        },
        {
          "indexed": false,
          "internalType": "uint256",
          "name": "reward",
          "type": "uint256"
        }
      ],
      "name": "RewardPaid",
      "type": "event"
    },
    {
      "anonymous": false,
      "inputs": [
        {
          "indexed": true,
          "internalType": "address",
          "name": "user",
          "type": "address"
        },
        {
          "indexed": false,
          "internalType": "uint256",
          "name": "amount",
          "type": "uint256"
        }
      ],
      "name": "Staked",
      "type": "event"
    },
    {
      "anonymous": false,
      "inputs": [
        {
          "indexed": false,
          "internalType": "address",
          "name": "account",
          "type": "address"
        }
      ],
      "name": "Unpaused",
      "type": "event"
    },
    {
      "anonymous": false,
      "inputs": [
        {
          "indexed": true,
          "internalType": "address",
          "name": "user",
          "type": "address"
        },
        {
          "indexed": false,
          "internalType": "uint256",
          "name": "amount",
          "type": "uint256"
        },
        {
          "indexed": false,
          "internalType": "uint256",
          "name": "reward",
          "type": "uint256"
        }
      ],
      "name": "Withdrawn",
      "type": "event"
    },
    {
      "inputs": [],
      "name": "FEE_PERCENT",
      "outputs": [
        {
          "internalType": "uint256",
          "name": "",
          "type": "uint256"
        }
      ],
      "stateMutability": "view",
      "type": "function"
    },
    {
      "inputs": [],
      "name": "STAKING_PERIOD",
      "outputs": [
        {
          "internalType": "uint256",
          "name": "",
          "type": "uint256"
        }
      ],
      "stateMutability": "view",
      "type": "function"
    },
    {
      "inputs": [],
      "name": "feeRecipient",
      "outputs": [
        {
          "internalType": "address payable",
          "name": "",
          "type": "address"
        }
      ],
      "stateMutability": "view",
      "type": "function"
    },
    {
      "inputs": [],
      "name": "owner",
      "outputs": [
        {
          "internalType": "address",
          "name": "",
          "type": "address"
        }
      ],
      "stateMutability": "view",
      "type": "function"
    },
    {
      "inputs": [],
      "name": "paused",
      "outputs": [
        {
          "internalType": "bool",
          "name": "",
          "type": "bool"
        }
      ],
      "stateMutability": "view",
      "type": "function"
    },
    {
      "inputs": [],
      "name": "renounceOwnership",
      "outputs": [],
      "stateMutability": "nonpayable",
      "type": "function"
    },
    {
      "inputs": [
        {
          "internalType": "address",
          "name": "",
          "type": "address"
        }
      ],
      "name": "stakes",
      "outputs": [
        {
          "internalType": "uint256",
          "name": "",
          "type": "uint256"
        }
      ],
      "stateMutability": "view",
      "type": "function"
    },
    {
      "inputs": [],
      "name": "stakingEnd",
      "outputs": [
        {
          "internalType": "uint256",
          "name": "",
          "type": "uint256"
        }
      ],
      "stateMutability": "view",
      "type": "function"
    },
    {
      "inputs": [],
      "name": "stakingStart",
      "outputs": [
        {
          "internalType": "uint256",
          "name": "",
          "type": "uint256"
        }
      ],
      "stateMutability": "view",
      "type": "function"
    },
    {
      "inputs": [],
      "name": "token",
      "outputs": [
        {
          "internalType": "contract PepesOfTheGalaxyToken",
          "name": "",
          "type": "address"
        }
      ],
      "stateMutability": "view",
      "type": "function"
    },
    {
      "inputs": [],
      "name": "totalStaked",
      "outputs": [
        {
          "internalType": "uint256",
          "name": "",
          "type": "uint256"
        }
      ],
      "stateMutability": "view",
      "type": "function"
    },
    {
      "inputs": [
        {
          "internalType": "address",
          "name": "newOwner",
          "type": "address"
        }
      ],
      "name": "transferOwnership",
      "outputs": [],
      "stateMutability": "nonpayable",
      "type": "function"
    },
    {
      "inputs": [],
      "name": "stake",
      "outputs": [],
      "stateMutability": "payable",
      "type": "function"
    },
    {
      "inputs": [],
      "name": "claimAndWithdraw",
      "outputs": [],
      "stateMutability": "nonpayable",
      "type": "function"
    },
    {
      "inputs": [],
      "name": "pause",
      "outputs": [],
      "stateMutability": "nonpayable",
      "type": "function"
    },
    {
      "inputs": [],
      "name": "unpause",
      "outputs": [],
      "stateMutability": "nonpayable",
      "type": "function"
    }
  ],
  "bytecode": "0x608060405234801561001057600080fd5b50604051610d69380380610d6983398101604081905261002f9161010f565b610038336100ac565b6000805460ff60a01b1916905560018055600480546001600160a01b0319166001600160a01b03851617905560058290556100818262093a806100fc602090811b61083f17901c565b600655600780546001600160a01b0319166001600160a01b0392909216919091179055506101909050565b600080546001600160a01b038381166001600160a01b0319831681178455604051919092169283917f8be0079c531659141344cd1fd0a4f28419497f9722a3daafe3b4186f6b6457e09190a35050565b60006101088284610152565b9392505050565b60008060006060848603121561012457600080fd5b835161012f81610178565b60208501516040860151919450925061014781610178565b809150509250925092565b6000821982111561017357634e487b7160e01b600052601160045260246000fd5b500190565b6001600160a01b038116811461018d57600080fd5b50565b610bca8061019f6000396000f3fe6080604052600436106100f35760003560e01c8063817b1cd21161008a578063d771b0a611610059578063d771b0a614610259578063eaf98d231461026f578063f2fde38b14610284578063fc0c546a146102a457600080fd5b8063817b1cd2146101fb5780638456cb59146102115780638da5cb5b14610226578063aead9e471461024457600080fd5b806346904840116100c6578063469048401461016e578063517d0411146101a65780635c975abb146101bc578063715018a6146101e657600080fd5b80630104db1b146100f857806316934fc4146101225780633a4b66f11461014f5780633f4ba83a14610159575b600080fd5b34801561010457600080fd5b5061010f62093a8081565b6040519081526020015b60405180910390f35b34801561012e57600080fd5b5061010f61013d366004610aaa565b60026020526000908152604090205481565b6101576102c4565b005b34801561016557600080fd5b506101576104a3565b34801561017a57600080fd5b5060075461018e906001600160a01b031681565b6040516001600160a01b039091168152602001610119565b3480156101b257600080fd5b5061010f60065481565b3480156101c857600080fd5b50600054600160a01b900460ff166040519015158152602001610119565b3480156101f257600080fd5b506101576104e9565b34801561020757600080fd5b5061010f60035481565b34801561021d57600080fd5b506101576104fb565b34801561023257600080fd5b506000546001600160a01b031661018e565b34801561025057600080fd5b5061015761053b565b34801561026557600080fd5b5061010f60055481565b34801561027b57600080fd5b5061010f60fa81565b34801561029057600080fd5b5061015761029f366004610aaa565b6107c6565b3480156102b057600080fd5b5060045461018e906001600160a01b031681565b6102cc610852565b6102d461089f565b60055442101561032b5760405162461bcd60e51b815260206004820152601a60248201527f5374616b696e6720706572696f64206e6f74207374617274656400000000000060448201526064015b60405180910390fd5b60065442106103735760405162461bcd60e51b815260206004820152601460248201527314dd185ada5b99c81c195c9a5bd908195b99195960621b6044820152606401610322565b600034116103c35760405162461bcd60e51b815260206004820152601c60248201527f4d757374207374616b65206120706f73697469766520616d6f756e74000000006044820152606401610322565b60006103dc6127106103d63460fa6108f9565b90610905565b905060006103ea3483610911565b6007546040519192506001600160a01b03169083156108fc029084906000818181858888f19350505050158015610425573d6000803e3d6000fd5b5033600090815260026020526040902054610440908261083f565b3360009081526002602052604090205560035461045d908261083f565b60035560405181815233907f9e71bc8eea02a63969f509818f2dafb9254532904319f9dbda79b67bd34a5f3d906020015b60405180910390a250506104a160018055565b565b6104ab61091d565b6104b3610977565b6040513381527f5db9ee0a495bf2e6ff9c91a7834c1ba4fdd244a5e8aa4e537bd38aeae4b073aa906020015b60405180910390a1565b6104f161091d565b6104a160006109c7565b61050361091d565b61050b610a17565b6040513381527f62e78cea01bee320cd4e420270b5ea74000d11b0c9f74754ebdbfc544b05a258906020016104df565b610543610852565b61054b61089f565b60065442101561059d5760405162461bcd60e51b815260206004820152601b60248201527f5374616b696e6720706572696f64206e6f7420796574206f76657200000000006044820152606401610322565b33600090815260026020526040902054806105ee5760405162461bcd60e51b81526020600482015260116024820152704e6f207374616b6520746f20636c61696d60781b6044820152606401610322565b600354600480546040516370a0823160e01b815230928101929092526000926106829290916103d69186916001600160a01b0316906370a082319060240160206040518083038186803b15801561064457600080fd5b505afa158015610658573d6000803e3d6000fd5b505050506040513d601f19601f8201168201806040525081019061067c9190610af5565b906108f9565b336000908152600260205260408120556003549091506106a29083610911565b6003556004805460405163a9059cbb60e01b81523392810192909252602482018390526001600160a01b03169063a9059cbb90604401602060405180830381600087803b1580156106f257600080fd5b505af1158015610706573d6000803e3d6000fd5b505050506040513d601f19601f8201168201806040525081019061072a9190610ad3565b50604051339083156108fc029084906000818181858888f19350505050158015610758573d6000803e3d6000fd5b50604080518381526020810183905233917f92ccf450a286a957af52509bc1c9939d1a6a481783e142e41e2499f0bb66ebc6910160405180910390a260405181815233907fe2403640ba68fed3a2f88b7557551d1993f84b99bb10ff833f0cf8db0c5e04869060200161048e565b6107ce61091d565b6001600160a01b0381166108335760405162461bcd60e51b815260206004820152602660248201527f4f776e61626c653a206e6577206f776e657220697320746865207a65726f206160448201526564647265737360d01b6064820152608401610322565b61083c816109c7565b50565b600061084b8284610b0e565b9392505050565b600054600160a01b900460ff16156104a15760405162461bcd60e51b815260206004820152601060248201526f14185d5cd8589b194e881c185d5cd95960821b6044820152606401610322565b600260015414156108f25760405162461bcd60e51b815260206004820152601f60248201527f5265656e7472616e637947756172643a207265656e7472616e742063616c6c006044820152606401610322565b6002600155565b600061084b8284610b48565b600061084b8284610b26565b600061084b8284610b67565b6000546001600160a01b031633146104a15760405162461bcd60e51b815260206004820181905260248201527f4f776e61626c653a2063616c6c6572206973206e6f7420746865206f776e65726044820152606401610322565b61097f610a5a565b6000805460ff60a01b191690557f5db9ee0a495bf2e6ff9c91a7834c1ba4fdd244a5e8aa4e537bd38aeae4b073aa335b6040516001600160a01b0390911681526020016104df565b600080546001600160a01b038381166001600160a01b0319831681178455604051919092169283917f8be0079c531659141344cd1fd0a4f28419497f9722a3daafe3b4186f6b6457e09190a35050565b610a1f610852565b6000805460ff60a01b1916600160a01b1790557f62e78cea01bee320cd4e420270b5ea74000d11b0c9f74754ebdbfc544b05a2586109af3390565b600054600160a01b900460ff166104a15760405162461bcd60e51b815260206004820152601460248201527314185d5cd8589b194e881b9bdd081c185d5cd95960621b6044820152606401610322565b600060208284031215610abc57600080fd5b81356001600160a01b038116811461084b57600080fd5b600060208284031215610ae557600080fd5b8151801515811461084b57600080fd5b600060208284031215610b0757600080fd5b5051919050565b60008219821115610b2157610b21610b7e565b500190565b600082610b4357634e487b7160e01b600052601260045260246000fd5b500490565b6000816000190483118215151615610b6257610b62610b7e565b500290565b600082821015610b7957610b79610b7e565b500390565b634e487b7160e01b600052601160045260246000fdfea26469706673582212201e5bcb716d58d0306e43803c35bda6850942aa680d8f4113eba68c5aa807f2a564736f6c63430008070033",
  "immutableReferences": {},
  "source": "// SPDX-License-Identifier: MIT\npragma solidity ^0.8.0;\n\nimport \"./PepesOfTheGalaxyToken.sol\";\nimport \"@openzeppelin/contracts/security/Pausable.sol\";\nimport \"@openzeppelin/contracts/access/Ownable.sol\";\nimport \"@openzeppelin/contracts/security/ReentrancyGuard.sol\";\nimport \"@openzeppelin/contracts/utils/math/SafeMath.sol\";\n\ncontract PepesOfTheGalaxyLaunchPool is Ownable, Pausable, ReentrancyGuard {\n    using SafeMath for uint256;\n\n    mapping(address => uint256) public stakes;\n    uint256 public totalStaked;\n    PepesOfTheGalaxyToken public token;\n    uint256 public constant STAKING_PERIOD = 7 days;\n    uint256 public stakingStart;\n    uint256 public stakingEnd;\n    uint256 public constant FEE_PERCENT = 250; // 2.5% due to smallest unit of number 1 Wei // we divide by 1000 later in contract to get correct %\n    address payable public feeRecipient;\n\n    event Staked(address indexed user, uint256 amount);\n    event Withdrawn(address indexed user, uint256 amount, uint256 reward);\n    event RewardPaid(address indexed user, uint256 reward);\n\n    constructor(address tokenAddress, uint256 _stakingStart, address payable _feeRecipient) {\n        token = PepesOfTheGalaxyToken(tokenAddress);\n        stakingStart = _stakingStart;\n        stakingEnd = stakingStart.add(STAKING_PERIOD);\n        feeRecipient = _feeRecipient;\n    }\n\n    function stake() public payable whenNotPaused nonReentrant {\n        require(block.timestamp >= stakingStart, \"Staking period not started\");\n        require(block.timestamp < stakingEnd, \"Staking period ended\");\n        require(msg.value > 0, \"Must stake a positive amount\");\n\n        uint256 fee = msg.value.mul(FEE_PERCENT).div(10000); // Calculate the fee\n        uint256 amountAfterFee = msg.value.sub(fee); // Subtract the fee from the staked amount\n\n        // Transfer the fee to the fee recipient\n        feeRecipient.transfer(fee);\n\n        // Update the staker's stake and the total staked amount\n        stakes[msg.sender] = stakes[msg.sender].add(amountAfterFee);\n        totalStaked = totalStaked.add(amountAfterFee);\n\n        emit Staked(msg.sender, amountAfterFee);\n    }\n\n    function claimAndWithdraw() public whenNotPaused nonReentrant {\n        require(block.timestamp >= stakingEnd, \"Staking period not yet over\");\n\n        uint256 userStake = stakes[msg.sender];\n        require(userStake > 0, \"No stake to claim\");\n\n        // Calculate the staker's share of the PEPEOG\n        uint256 reward = token.balanceOf(address(this)).mul(userStake).div(totalStaked);\n\n        // Update the staker's stake and the total staked amount\n        stakes[msg.sender] = 0;\n        totalStaked = totalStaked.sub(userStake);\n\n        // Transfer the reward to the staker\n        token.transfer(msg.sender, reward);\n\n        // Transfer the staked BNB back to the staker\n        payable(msg.sender).transfer(userStake);\n\n        emit Withdrawn(msg.sender, userStake, reward);\n        emit RewardPaid(msg.sender, reward);\n    }\n\n    function pause() public onlyOwner {\n        _pause();\n        emit Paused(msg.sender);\n    }\n\n    function unpause() public onlyOwner {\n        _unpause();\n        emit Unpaused(msg.sender);\n    }\n}",
  "sourcePath": "/Users/brendanplayford/smart-contracts/contracts/PepesOfTheGalaxyLaunchPool.sol",
  "compiler": {
    "name": "solc",
    "version": "0.8.7+commit.e28d00a7.Emscripten.clang"
  },
  "schemaVersion": "3.4.15",
  "updatedAt": "2023-11-11T17:43:39.913Z",
  "devdoc": {
    "kind": "dev",
    "methods": {
      "owner()": {
        "details": "Returns the address of the current owner."
      },
      "paused()": {
        "details": "Returns true if the contract is paused, and false otherwise."
      },
      "renounceOwnership()": {
        "details": "Leaves the contract without owner. It will not be possible to call `onlyOwner` functions. Can only be called by the current owner. NOTE: Renouncing ownership will leave the contract without an owner, thereby disabling any functionality that is only available to the owner."
      },
      "transferOwnership(address)": {
        "details": "Transfers ownership of the contract to a new account (`newOwner`). Can only be called by the current owner."
      }
    },
    "version": 1
  },
  "userdoc": {
    "kind": "user",
    "methods": {},
    "version": 1
  }
}