{
  "contractName": "PepesOfTheGalaxyBattle",
  "abi": [
    {
      "inputs": [
        {
          "internalType": "address",
          "name": "_pepeNFT",
          "type": "address"
        },
        {
          "internalType": "address",
          "name": "_pepeToken",
          "type": "address"
        }
      ],
      "stateMutability": "nonpayable",
      "type": "constructor"
    },
    {
      "anonymous": false,
      "inputs": [
        {
          "indexed": true,
          "internalType": "address",
          "name": "player1",
          "type": "address"
        },
        {
          "indexed": true,
          "internalType": "address",
          "name": "player2",
          "type": "address"
        },
        {
          "indexed": false,
          "internalType": "uint256",
          "name": "pepe1Id",
          "type": "uint256"
        },
        {
          "indexed": false,
          "internalType": "uint256",
          "name": "pepe2Id",
          "type": "uint256"
        },
        {
          "indexed": false,
          "internalType": "uint256",
          "name": "winnerId",
          "type": "uint256"
        }
      ],
      "name": "BattleOutcome",
      "type": "event"
    },
    {
      "anonymous": false,
      "inputs": [
        {
          "indexed": true,
          "internalType": "address",
          "name": "previousOwner",
          "type": "address"
        },
        {
          "indexed": true,
          "internalType": "address",
          "name": "newOwner",
          "type": "address"
        }
      ],
      "name": "OwnershipTransferred",
      "type": "event"
    },
    {
      "anonymous": false,
      "inputs": [
        {
          "indexed": true,
          "internalType": "uint256",
          "name": "pepeId",
          "type": "uint256"
        },
        {
          "indexed": false,
          "internalType": "uint256",
          "name": "amount",
          "type": "uint256"
        },
        {
          "indexed": true,
          "internalType": "address",
          "name": "player",
          "type": "address"
        }
      ],
      "name": "StakedForBattle",
      "type": "event"
    },
    {
      "anonymous": false,
      "inputs": [
        {
          "indexed": true,
          "internalType": "address",
          "name": "from",
          "type": "address"
        },
        {
          "indexed": true,
          "internalType": "address",
          "name": "to",
          "type": "address"
        },
        {
          "indexed": false,
          "internalType": "uint256",
          "name": "amount",
          "type": "uint256"
        }
      ],
      "name": "Transfer",
      "type": "event"
    },
    {
      "inputs": [
        {
          "internalType": "uint256",
          "name": "",
          "type": "uint256"
        }
      ],
      "name": "battleRequests",
      "outputs": [
        {
          "internalType": "uint256",
          "name": "pepeId",
          "type": "uint256"
        },
        {
          "internalType": "uint256",
          "name": "amount",
          "type": "uint256"
        },
        {
          "internalType": "address",
          "name": "player",
          "type": "address"
        }
      ],
      "stateMutability": "view",
      "type": "function",
      "constant": true
    },
    {
      "inputs": [],
      "name": "owner",
      "outputs": [
        {
          "internalType": "address",
          "name": "",
          "type": "address"
        }
      ],
      "stateMutability": "view",
      "type": "function",
      "constant": true
    },
    {
      "inputs": [],
      "name": "pepeNFT",
      "outputs": [
        {
          "internalType": "contract IPepesOfTheGalaxyNFT",
          "name": "",
          "type": "address"
        }
      ],
      "stateMutability": "view",
      "type": "function",
      "constant": true
    },
    {
      "inputs": [],
      "name": "pepeToken",
      "outputs": [
        {
          "internalType": "contract IERC20",
          "name": "",
          "type": "address"
        }
      ],
      "stateMutability": "view",
      "type": "function",
      "constant": true
    },
    {
      "inputs": [],
      "name": "renounceOwnership",
      "outputs": [],
      "stateMutability": "nonpayable",
      "type": "function"
    },
    {
      "inputs": [
        {
          "internalType": "address",
          "name": "newOwner",
          "type": "address"
        }
      ],
      "name": "transferOwnership",
      "outputs": [],
      "stateMutability": "nonpayable",
      "type": "function"
    },
    {
      "inputs": [
        {
          "internalType": "uint256",
          "name": "_pepeId",
          "type": "uint256"
        },
        {
          "internalType": "uint256",
          "name": "_amount",
          "type": "uint256"
        }
      ],
      "name": "stake",
      "outputs": [],
      "stateMutability": "nonpayable",
      "type": "function"
    },
    {
      "inputs": [],
      "name": "battle",
      "outputs": [],
      "stateMutability": "nonpayable",
      "type": "function"
    }
  ],
  "bytecode": "0x608060405234801561001057600080fd5b50604051610ca0380380610ca083398101604081905261002f916100d5565b61003833610069565b600180546001600160a01b039384166001600160a01b03199182161790915560028054929093169116179055610108565b600080546001600160a01b038381166001600160a01b0319831681178455604051919092169283917f8be0079c531659141344cd1fd0a4f28419497f9722a3daafe3b4186f6b6457e09190a35050565b80516001600160a01b03811681146100d057600080fd5b919050565b600080604083850312156100e857600080fd5b6100f1836100b9565b91506100ff602084016100b9565b90509250929050565b610b89806101176000396000f3fe608060405234801561001057600080fd5b50600436106100885760003560e01c80637b0472f01161005b5780637b0472f0146100e25780638d7c3ec7146100f55780638da5cb5b1461012c578063f2fde38b1461013d57600080fd5b806321cc4c3f1461008d57806344e44545146100bd578063715018a6146100c75780637592fc01146100cf575b600080fd5b6002546100a0906001600160a01b031681565b6040516001600160a01b0390911681526020015b60405180910390f35b6100c5610150565b005b6100c56106a8565b6001546100a0906001600160a01b031681565b6100c56100f0366004610a52565b6106bc565b610108610103366004610a39565b610888565b6040805193845260208401929092526001600160a01b0316908201526060016100b4565b6000546001600160a01b03166100a0565b6100c561014b3660046109e7565b6108c4565b61015861093d565b600354600211156101a55760405162461bcd60e51b81526020600482015260126024820152714e6f7420656e6f75676820706c617965727360701b60448201526064015b60405180910390fd5b600060036000815481106101bb576101bb610b3d565b600091825260208083206040805160608101825260039485029092018054835260018082015494840194909452600201546001600160a01b0316908201528254909450811061020c5761020c610b3d565b600091825260208083206040805160608101825260039094029091018054845260018082015493850193909352600201546001600160a01b03908116848301529154865191516351a15cad60e01b815293955084939216916351a15cad9161027a9160040190815260200190565b604080518083038186803b15801561029157600080fd5b505afa1580156102a5573d6000803e3d6000fd5b505050506040513d601f19601f820116820180604052508101906102c99190610a74565b60015485516040516351a15cad60e01b8152600481019190915292945090925060009182916001600160a01b0316906351a15cad90602401604080518083038186803b15801561031857600080fd5b505afa15801561032c573d6000803e3d6000fd5b505050506040513d601f19601f820116820180604052508101906103509190610a74565b909250905060006103618284610ac7565b61036b8587610ac7565b1115610441575085516002546040880151602080890151908a01516001600160a01b039093169263a9059cbb92916103a291610ac7565b6040516001600160e01b031960e085901b1681526001600160a01b0390921660048301526024820152604401602060405180830381600087803b1580156103e857600080fd5b505af11580156103fc573d6000803e3d6000fd5b505050506040513d601f19601f820116820180604052508101906104209190610a17565b61043c5760405162461bcd60e51b815260040161019c90610a98565b61050c565b5084516002546040870151602080890151908a01516001600160a01b039093169263a9059cbb929161047291610ac7565b6040516001600160e01b031960e085901b1681526001600160a01b0390921660048301526024820152604401602060405180830381600087803b1580156104b857600080fd5b505af11580156104cc573d6000803e3d6000fd5b505050506040513d601f19601f820116820180604052508101906104f09190610a17565b61050c5760405162461bcd60e51b815260040161019c90610a98565b6040808701518882015189518951845191825260208201529283018490526001600160a01b03918216929116907f4a16815524b461e12c89f69d64937b8c12396d885bbc7bdf78e7984d0e7faf5f9060600160405180910390a360005b60035461057890600290610adf565b81101561061357600361058c826002610ac7565b8154811061059c5761059c610b3d565b9060005260206000209060030201600382815481106105bd576105bd610b3d565b60009182526020909120825460039092020190815560018083015490820155600291820154910180546001600160a01b0319166001600160a01b039092169190911790558061060b81610af6565b915050610569565b50600380548061062557610625610b27565b60008281526020812060036000199093018381029091018281556001810192909255600290910180546001600160a01b031916905590915580548061066c5761066c610b27565b600082815260208120600360001990930192830201818155600181019190915560020180546001600160a01b0319169055905550505050505050565b6106b061093d565b6106ba6000610997565b565b6002546040516323b872dd60e01b8152336004820152306024820152604481018390526001600160a01b03909116906323b872dd90606401602060405180830381600087803b15801561070e57600080fd5b505af1158015610722573d6000803e3d6000fd5b505050506040513d601f19601f820116820180604052508101906107469190610a17565b6107625760405162461bcd60e51b815260040161019c90610a98565b61078f6040518060600160405280600081526020016000815260200160006001600160a01b031681525090565b82815260208101828152336040808401828152600380546001810182556000829052865191027fc2575a0e9e593c00f959f8c92f12db2869c3395a3b0502d05e2516446f71f85b81019190915593517fc2575a0e9e593c00f959f8c92f12db2869c3395a3b0502d05e2516446f71f85c850155517fc2575a0e9e593c00f959f8c92f12db2869c3395a3b0502d05e2516446f71f85d90930180546001600160a01b03949094166001600160a01b031990941693909317909255905184907f1401a470dfc846f3d1826f7d6d29126526b69a9b09f87599ff058047251b06029061087b9086815260200190565b60405180910390a3505050565b6003818154811061089857600080fd5b60009182526020909120600390910201805460018201546002909201549092506001600160a01b031683565b6108cc61093d565b6001600160a01b0381166109315760405162461bcd60e51b815260206004820152602660248201527f4f776e61626c653a206e6577206f776e657220697320746865207a65726f206160448201526564647265737360d01b606482015260840161019c565b61093a81610997565b50565b6000546001600160a01b031633146106ba5760405162461bcd60e51b815260206004820181905260248201527f4f776e61626c653a2063616c6c6572206973206e6f7420746865206f776e6572604482015260640161019c565b600080546001600160a01b038381166001600160a01b0319831681178455604051919092169283917f8be0079c531659141344cd1fd0a4f28419497f9722a3daafe3b4186f6b6457e09190a35050565b6000602082840312156109f957600080fd5b81356001600160a01b0381168114610a1057600080fd5b9392505050565b600060208284031215610a2957600080fd5b81518015158114610a1057600080fd5b600060208284031215610a4b57600080fd5b5035919050565b60008060408385031215610a6557600080fd5b50508035926020909101359150565b60008060408385031215610a8757600080fd5b505080516020909101519092909150565b602080825260159082015274151bdad95b881d1c985b9cd9995c8819985a5b1959605a1b604082015260600190565b60008219821115610ada57610ada610b11565b500190565b600082821015610af157610af1610b11565b500390565b6000600019821415610b0a57610b0a610b11565b5060010190565b634e487b7160e01b600052601160045260246000fd5b634e487b7160e01b600052603160045260246000fd5b634e487b7160e01b600052603260045260246000fdfea2646970667358221220061ce32a518e15454c466527e8483dd142812ac2231bd5552e114dff0ae3dfca64736f6c63430008070033",
  "immutableReferences": {},
  "source": "// SPDX-License-Identifier: MIT\npragma solidity ^0.8.0;\n\nimport \"@openzeppelin/contracts/token/ERC20/IERC20.sol\";\nimport \"@openzeppelin/contracts/access/Ownable.sol\";\nimport \"@openzeppelin/contracts/token/ERC721/extensions/ERC721Enumerable.sol\";\nimport \"@openzeppelin/contracts/token/ERC721/extensions/ERC721URIStorage.sol\";\nimport \"@openzeppelin/contracts/utils/Counters.sol\";\n\n// Interface for the PepesOfTheGalaxyNFT contract (ERC721)\ninterface IPepesOfTheGalaxyNFT {\n    function getPepeAttributes(uint256 _tokenId) external view returns (uint256 appearance, uint256 accessories);\n    function addExperience(uint256 _tokenId, uint256 experience) external; \n}\n\ncontract PepesOfTheGalaxyBattle is Ownable {\n    // Establish connection with PepesOfTheGalaxyNFT contract\n    IPepesOfTheGalaxyNFT public pepeNFT;\n    // Establish connection with the token contract\n    IERC20 public pepeToken;\n\n    // Structure for a battle request\n    struct BattleRequest {\n        uint256 pepeId;\n        uint256 amount;\n        address player;\n    }\n\n    // Array to keep track of battle requests\n    BattleRequest[] public battleRequests;\n\n    // Events for staking, battle outcome and transfer\n    event StakedForBattle(uint256 indexed pepeId, uint256 amount, address indexed player);\n    event BattleOutcome(address indexed player1, address indexed player2, uint256 pepe1Id, uint256 pepe2Id, uint256 winnerId);\n    event Transfer(address indexed from, address indexed to, uint256 amount);\n\n    constructor(address _pepeNFT, address _pepeToken) {\n        pepeNFT = IPepesOfTheGalaxyNFT(_pepeNFT);\n        pepeToken = IERC20(_pepeToken);\n    }\n\n  // Stake a specific amount of tokens with a specific NFT\nfunction stake(uint256 _pepeId, uint256 _amount) public {\n    // Transfer tokens to this contract\n    require(pepeToken.transferFrom(msg.sender, address(this), _amount), \"Token transfer failed\");\n\n    // Add battle request\n    BattleRequest memory newRequest;\n    newRequest.pepeId = _pepeId;\n    newRequest.amount = _amount;\n    newRequest.player = msg.sender;\n    battleRequests.push(newRequest);\n\n    emit StakedForBattle(_pepeId, _amount, msg.sender);\n}\n\n    // Battle function\n    function battle() public onlyOwner {\n        require(battleRequests.length >= 2, \"Not enough players\");\n\n        // Get the first two players\n        BattleRequest memory player1 = battleRequests[0];\n        BattleRequest memory player2 = battleRequests[1];\n\n        // Get the attributes of the two pepes\n        (uint256 p1Attr1, uint256 p1Attr2) = pepeNFT.getPepeAttributes(player1.pepeId);\n        (uint256 p2Attr1, uint256 p2Attr2) = pepeNFT.getPepeAttributes(player2.pepeId);\n\n        // Determine the winner\n        uint256 winnerId;\n        if (p1Attr1 + p1Attr2 > p2Attr1 + p2Attr2) {\n            winnerId = player1.pepeId;\n            // Transfer the staked tokens to the winner\n            require(pepeToken.transfer(player1.player, player1.amount + player2.amount), \"Token transfer failed\");\n        } else {\n            winnerId = player2.pepeId;\n            // Transfer the staked tokens to the winner\n            require(pepeToken.transfer(player2.player, player1.amount + player2.amount), \"Token transfer failed\");\n        }\n\n        // Emit the battle event\n        emit BattleOutcome(player1.player, player2.player, player1.pepeId, player2.pepeId, winnerId);\n\n\n        // Remove the first two battle requests\n        for (uint256 i = 0; i < battleRequests.length - 2; i++) {\n            battleRequests[i] = battleRequests[i + 2];\n        }\n        battleRequests.pop();\n        battleRequests.pop();\n    }\n}\n",
  "sourcePath": "/Users/brendanplayford/token/contracts/PepesOfTheGalaxyBattle.sol",
  "compiler": {
    "name": "solc",
    "version": "0.8.7+commit.e28d00a7.Emscripten.clang"
  },
  "schemaVersion": "3.4.14",
  "updatedAt": "2023-06-04T07:44:20.490Z",
  "networkType": "ethereum",
  "devdoc": {
    "kind": "dev",
    "methods": {
      "owner()": {
        "details": "Returns the address of the current owner."
      },
      "renounceOwnership()": {
        "details": "Leaves the contract without owner. It will not be possible to call `onlyOwner` functions. Can only be called by the current owner. NOTE: Renouncing ownership will leave the contract without an owner, thereby disabling any functionality that is only available to the owner."
      },
      "transferOwnership(address)": {
        "details": "Transfers ownership of the contract to a new account (`newOwner`). Can only be called by the current owner."
      }
    },
    "version": 1
  },
  "userdoc": {
    "kind": "user",
    "methods": {},
    "version": 1
  }
}