{
  "contractName": "PepesOfTheGalaxyToken",
  "abi": [
    {
      "inputs": [
        {
          "internalType": "uint256",
          "name": "_totalSupply",
          "type": "uint256"
        },
        {
          "internalType": "uint256",
          "name": "_tokenCap",
          "type": "uint256"
        }
      ],
      "stateMutability": "nonpayable",
      "type": "constructor"
    },
    {
      "anonymous": false,
      "inputs": [
        {
          "indexed": true,
          "internalType": "address",
          "name": "owner",
          "type": "address"
        },
        {
          "indexed": true,
          "internalType": "address",
          "name": "spender",
          "type": "address"
        },
        {
          "indexed": false,
          "internalType": "uint256",
          "name": "value",
          "type": "uint256"
        }
      ],
      "name": "Approval",
      "type": "event"
    },
    {
      "anonymous": false,
      "inputs": [
        {
          "indexed": true,
          "internalType": "address",
          "name": "account",
          "type": "address"
        },
        {
          "indexed": false,
          "internalType": "uint256",
          "name": "value",
          "type": "uint256"
        }
      ],
      "name": "Burnt",
      "type": "event"
    },
    {
      "anonymous": false,
      "inputs": [
        {
          "indexed": true,
          "internalType": "address",
          "name": "account",
          "type": "address"
        },
        {
          "indexed": false,
          "internalType": "uint256",
          "name": "amount",
          "type": "uint256"
        }
      ],
      "name": "Minted",
      "type": "event"
    },
    {
      "anonymous": false,
      "inputs": [
        {
          "indexed": true,
          "internalType": "address",
          "name": "previousOwner",
          "type": "address"
        },
        {
          "indexed": true,
          "internalType": "address",
          "name": "newOwner",
          "type": "address"
        }
      ],
      "name": "OwnershipTransferred",
      "type": "event"
    },
    {
      "anonymous": false,
      "inputs": [
        {
          "indexed": true,
          "internalType": "bytes32",
          "name": "role",
          "type": "bytes32"
        },
        {
          "indexed": true,
          "internalType": "bytes32",
          "name": "previousAdminRole",
          "type": "bytes32"
        },
        {
          "indexed": true,
          "internalType": "bytes32",
          "name": "newAdminRole",
          "type": "bytes32"
        }
      ],
      "name": "RoleAdminChanged",
      "type": "event"
    },
    {
      "anonymous": false,
      "inputs": [
        {
          "indexed": true,
          "internalType": "bytes32",
          "name": "role",
          "type": "bytes32"
        },
        {
          "indexed": true,
          "internalType": "address",
          "name": "account",
          "type": "address"
        },
        {
          "indexed": true,
          "internalType": "address",
          "name": "sender",
          "type": "address"
        }
      ],
      "name": "RoleGranted",
      "type": "event"
    },
    {
      "anonymous": false,
      "inputs": [
        {
          "indexed": true,
          "internalType": "bytes32",
          "name": "role",
          "type": "bytes32"
        },
        {
          "indexed": true,
          "internalType": "address",
          "name": "account",
          "type": "address"
        },
        {
          "indexed": true,
          "internalType": "address",
          "name": "sender",
          "type": "address"
        }
      ],
      "name": "RoleRevoked",
      "type": "event"
    },
    {
      "anonymous": false,
      "inputs": [
        {
          "indexed": false,
          "internalType": "bool",
          "name": "_limited",
          "type": "bool"
        },
        {
          "indexed": false,
          "internalType": "address",
          "name": "_uniswapV2Pair",
          "type": "address"
        },
        {
          "indexed": false,
          "internalType": "uint256",
          "name": "_maxHoldingAmount",
          "type": "uint256"
        },
        {
          "indexed": false,
          "internalType": "uint256",
          "name": "_minHoldingAmount",
          "type": "uint256"
        }
      ],
      "name": "RulesSet",
      "type": "event"
    },
    {
      "anonymous": false,
      "inputs": [
        {
          "indexed": true,
          "internalType": "address",
          "name": "from",
          "type": "address"
        },
        {
          "indexed": true,
          "internalType": "address",
          "name": "to",
          "type": "address"
        },
        {
          "indexed": false,
          "internalType": "uint256",
          "name": "value",
          "type": "uint256"
        }
      ],
      "name": "Transfer",
      "type": "event"
    },
    {
      "inputs": [],
      "name": "DEFAULT_ADMIN_ROLE",
      "outputs": [
        {
          "internalType": "bytes32",
          "name": "",
          "type": "bytes32"
        }
      ],
      "stateMutability": "view",
      "type": "function",
      "constant": true
    },
    {
      "inputs": [],
      "name": "MINTER_ROLE",
      "outputs": [
        {
          "internalType": "bytes32",
          "name": "",
          "type": "bytes32"
        }
      ],
      "stateMutability": "view",
      "type": "function",
      "constant": true
    },
    {
      "inputs": [
        {
          "internalType": "address",
          "name": "owner",
          "type": "address"
        },
        {
          "internalType": "address",
          "name": "spender",
          "type": "address"
        }
      ],
      "name": "allowance",
      "outputs": [
        {
          "internalType": "uint256",
          "name": "",
          "type": "uint256"
        }
      ],
      "stateMutability": "view",
      "type": "function",
      "constant": true
    },
    {
      "inputs": [
        {
          "internalType": "address",
          "name": "spender",
          "type": "address"
        },
        {
          "internalType": "uint256",
          "name": "amount",
          "type": "uint256"
        }
      ],
      "name": "approve",
      "outputs": [
        {
          "internalType": "bool",
          "name": "",
          "type": "bool"
        }
      ],
      "stateMutability": "nonpayable",
      "type": "function"
    },
    {
      "inputs": [
        {
          "internalType": "address",
          "name": "account",
          "type": "address"
        }
      ],
      "name": "balanceOf",
      "outputs": [
        {
          "internalType": "uint256",
          "name": "",
          "type": "uint256"
        }
      ],
      "stateMutability": "view",
      "type": "function",
      "constant": true
    },
    {
      "inputs": [],
      "name": "decimals",
      "outputs": [
        {
          "internalType": "uint8",
          "name": "",
          "type": "uint8"
        }
      ],
      "stateMutability": "view",
      "type": "function",
      "constant": true
    },
    {
      "inputs": [
        {
          "internalType": "address",
          "name": "spender",
          "type": "address"
        },
        {
          "internalType": "uint256",
          "name": "subtractedValue",
          "type": "uint256"
        }
      ],
      "name": "decreaseAllowance",
      "outputs": [
        {
          "internalType": "bool",
          "name": "",
          "type": "bool"
        }
      ],
      "stateMutability": "nonpayable",
      "type": "function"
    },
    {
      "inputs": [
        {
          "internalType": "bytes32",
          "name": "role",
          "type": "bytes32"
        }
      ],
      "name": "getRoleAdmin",
      "outputs": [
        {
          "internalType": "bytes32",
          "name": "",
          "type": "bytes32"
        }
      ],
      "stateMutability": "view",
      "type": "function",
      "constant": true
    },
    {
      "inputs": [
        {
          "internalType": "bytes32",
          "name": "role",
          "type": "bytes32"
        },
        {
          "internalType": "address",
          "name": "account",
          "type": "address"
        }
      ],
      "name": "grantRole",
      "outputs": [],
      "stateMutability": "nonpayable",
      "type": "function"
    },
    {
      "inputs": [
        {
          "internalType": "bytes32",
          "name": "role",
          "type": "bytes32"
        },
        {
          "internalType": "address",
          "name": "account",
          "type": "address"
        }
      ],
      "name": "hasRole",
      "outputs": [
        {
          "internalType": "bool",
          "name": "",
          "type": "bool"
        }
      ],
      "stateMutability": "view",
      "type": "function",
      "constant": true
    },
    {
      "inputs": [
        {
          "internalType": "address",
          "name": "spender",
          "type": "address"
        },
        {
          "internalType": "uint256",
          "name": "addedValue",
          "type": "uint256"
        }
      ],
      "name": "increaseAllowance",
      "outputs": [
        {
          "internalType": "bool",
          "name": "",
          "type": "bool"
        }
      ],
      "stateMutability": "nonpayable",
      "type": "function"
    },
    {
      "inputs": [],
      "name": "limited",
      "outputs": [
        {
          "internalType": "bool",
          "name": "",
          "type": "bool"
        }
      ],
      "stateMutability": "view",
      "type": "function",
      "constant": true
    },
    {
      "inputs": [],
      "name": "maxHoldingAmount",
      "outputs": [
        {
          "internalType": "uint256",
          "name": "",
          "type": "uint256"
        }
      ],
      "stateMutability": "view",
      "type": "function",
      "constant": true
    },
    {
      "inputs": [],
      "name": "minHoldingAmount",
      "outputs": [
        {
          "internalType": "uint256",
          "name": "",
          "type": "uint256"
        }
      ],
      "stateMutability": "view",
      "type": "function",
      "constant": true
    },
    {
      "inputs": [],
      "name": "name",
      "outputs": [
        {
          "internalType": "string",
          "name": "",
          "type": "string"
        }
      ],
      "stateMutability": "view",
      "type": "function",
      "constant": true
    },
    {
      "inputs": [],
      "name": "owner",
      "outputs": [
        {
          "internalType": "address",
          "name": "",
          "type": "address"
        }
      ],
      "stateMutability": "view",
      "type": "function",
      "constant": true
    },
    {
      "inputs": [],
      "name": "renounceOwnership",
      "outputs": [],
      "stateMutability": "nonpayable",
      "type": "function"
    },
    {
      "inputs": [
        {
          "internalType": "bytes32",
          "name": "role",
          "type": "bytes32"
        },
        {
          "internalType": "address",
          "name": "account",
          "type": "address"
        }
      ],
      "name": "renounceRole",
      "outputs": [],
      "stateMutability": "nonpayable",
      "type": "function"
    },
    {
      "inputs": [
        {
          "internalType": "bytes32",
          "name": "role",
          "type": "bytes32"
        },
        {
          "internalType": "address",
          "name": "account",
          "type": "address"
        }
      ],
      "name": "revokeRole",
      "outputs": [],
      "stateMutability": "nonpayable",
      "type": "function"
    },
    {
      "inputs": [
        {
          "internalType": "bytes4",
          "name": "interfaceId",
          "type": "bytes4"
        }
      ],
      "name": "supportsInterface",
      "outputs": [
        {
          "internalType": "bool",
          "name": "",
          "type": "bool"
        }
      ],
      "stateMutability": "view",
      "type": "function",
      "constant": true
    },
    {
      "inputs": [],
      "name": "symbol",
      "outputs": [
        {
          "internalType": "string",
          "name": "",
          "type": "string"
        }
      ],
      "stateMutability": "view",
      "type": "function",
      "constant": true
    },
    {
      "inputs": [],
      "name": "totalSupply",
      "outputs": [
        {
          "internalType": "uint256",
          "name": "",
          "type": "uint256"
        }
      ],
      "stateMutability": "view",
      "type": "function",
      "constant": true
    },
    {
      "inputs": [
        {
          "internalType": "address",
          "name": "to",
          "type": "address"
        },
        {
          "internalType": "uint256",
          "name": "amount",
          "type": "uint256"
        }
      ],
      "name": "transfer",
      "outputs": [
        {
          "internalType": "bool",
          "name": "",
          "type": "bool"
        }
      ],
      "stateMutability": "nonpayable",
      "type": "function"
    },
    {
      "inputs": [
        {
          "internalType": "address",
          "name": "from",
          "type": "address"
        },
        {
          "internalType": "address",
          "name": "to",
          "type": "address"
        },
        {
          "internalType": "uint256",
          "name": "amount",
          "type": "uint256"
        }
      ],
      "name": "transferFrom",
      "outputs": [
        {
          "internalType": "bool",
          "name": "",
          "type": "bool"
        }
      ],
      "stateMutability": "nonpayable",
      "type": "function"
    },
    {
      "inputs": [],
      "name": "uniswapV2Pair",
      "outputs": [
        {
          "internalType": "address",
          "name": "",
          "type": "address"
        }
      ],
      "stateMutability": "view",
      "type": "function",
      "constant": true
    },
    {
      "inputs": [
        {
          "internalType": "bool",
          "name": "_limited",
          "type": "bool"
        },
        {
          "internalType": "address",
          "name": "_uniswapV2Pair",
          "type": "address"
        },
        {
          "internalType": "uint256",
          "name": "_maxHoldingAmount",
          "type": "uint256"
        },
        {
          "internalType": "uint256",
          "name": "_minHoldingAmount",
          "type": "uint256"
        }
      ],
      "name": "setRule",
      "outputs": [],
      "stateMutability": "nonpayable",
      "type": "function"
    },
    {
      "inputs": [
        {
          "internalType": "uint256",
          "name": "value",
          "type": "uint256"
        }
      ],
      "name": "burn",
      "outputs": [],
      "stateMutability": "nonpayable",
      "type": "function"
    },
    {
      "inputs": [
        {
          "internalType": "address",
          "name": "newOwner",
          "type": "address"
        }
      ],
      "name": "transferOwnership",
      "outputs": [],
      "stateMutability": "nonpayable",
      "type": "function"
    },
    {
      "inputs": [
        {
          "internalType": "address",
          "name": "account",
          "type": "address"
        },
        {
          "internalType": "uint256",
          "name": "amount",
          "type": "uint256"
        }
      ],
      "name": "mint",
      "outputs": [],
      "stateMutability": "nonpayable",
      "type": "function"
    },
    {
      "inputs": [
        {
          "internalType": "address",
          "name": "account",
          "type": "address"
        }
      ],
      "name": "grantMinterRole",
      "outputs": [],
      "stateMutability": "nonpayable",
      "type": "function"
    },
    {
      "inputs": [
        {
          "internalType": "address",
          "name": "account",
          "type": "address"
        }
      ],
      "name": "revokeMinterRole",
      "outputs": [],
      "stateMutability": "nonpayable",
      "type": "function"
    },
    {
      "inputs": [
        {
          "internalType": "address",
          "name": "newAdmin",
          "type": "address"
        }
      ],
      "name": "transferAdminRole",
      "outputs": [],
      "stateMutability": "nonpayable",
      "type": "function"
    }
  ],
  "bytecode": "0x60806040523480156200001157600080fd5b5060405162001e3c38038062001e3c8339810160408190526200003491620004e5565b6040518060400160405280601381526020017f5065706573206f66207468652047616c6178790000000000000000000000000081525060405180604001604052806006815260200165504550454f4760d01b815250620000a36200009d620000fd60201b60201c565b62000101565b8151620000b89060049060208501906200043f565b508051620000ce9060059060208401906200043f565b505050620000e333836200015160201b60201c565b600a819055620000f560003362000229565b50506200056e565b3390565b600080546001600160a01b038381166001600160a01b0319831681178455604051919092169283917f8be0079c531659141344cd1fd0a4f28419497f9722a3daafe3b4186f6b6457e09190a35050565b6001600160a01b038216620001ad5760405162461bcd60e51b815260206004820152601f60248201527f45524332303a206d696e7420746f20746865207a65726f20616464726573730060448201526064015b60405180910390fd5b620001bb6000838362000235565b8060036000828254620001cf91906200050a565b90915550506001600160a01b0382166000818152600160209081526040808320805486019055518481527fddf252ad1be2c89b69c2b068fc378daa952ba7f163c4a11628f55a4df523b3ef910160405180910390a35b5050565b62000225828262000380565b6009546001600160a01b0316620002c3576000546001600160a01b03848116911614806200027057506000546001600160a01b038381169116145b620002be5760405162461bcd60e51b815260206004820152601660248201527f74726164696e67206973206e6f742073746172746564000000000000000000006044820152606401620001a4565b505050565b600954600160a01b900460ff168015620002ea57506009546001600160a01b038481169116145b15620002be57600754816200030a846200042460201b620008a51760201c565b6200031691906200050a565b11158015620003495750600854816200033a846200042460201b620008a51760201c565b6200034691906200050a565b10155b620002be5760405162461bcd60e51b8152602060048201526006602482015265119bdc989a5960d21b6044820152606401620001a4565b60008281526006602090815260408083206001600160a01b038516845290915290205460ff16620002255760008281526006602090815260408083206001600160a01b03851684529091529020805460ff19166001179055620003e03390565b6001600160a01b0316816001600160a01b0316837f2f8788117e7eff1d82e926ec794901d17c78024a50270940304540a733656f0d60405160405180910390a45050565b6001600160a01b031660009081526001602052604090205490565b8280546200044d9062000531565b90600052602060002090601f016020900481019282620004715760008555620004bc565b82601f106200048c57805160ff1916838001178555620004bc565b82800160010185558215620004bc579182015b82811115620004bc5782518255916020019190600101906200049f565b50620004ca929150620004ce565b5090565b5b80821115620004ca5760008155600101620004cf565b60008060408385031215620004f957600080fd5b505080516020909101519092909150565b600082198211156200052c57634e487b7160e01b600052601160045260246000fd5b500190565b600181811c908216806200054657607f821691505b602082108114156200056857634e487b7160e01b600052602260045260246000fd5b50919050565b6118be806200057e6000396000f3fe608060405234801561001057600080fd5b50600436106101f05760003560e01c806369e2f0fb1161010f578063a217fddf116100a2578063d539139311610071578063d53913931461040f578063d547741f14610424578063dd62ed3e14610437578063f2fde38b1461044a57600080fd5b8063a217fddf146103ce578063a457c2d7146103d6578063a9059cbb146103e9578063ada8f919146103fc57600080fd5b806389f9a1d3116100de57806389f9a1d3146103995780638da5cb5b146103a257806391d14854146103b357806395d89b41146103c657600080fd5b806369e2f0fb1461035757806370a082311461036a578063715018a61461037d578063860a32ec1461038557600080fd5b8063313ce567116101875780633dd1eb61116101565780633dd1eb61146102f357806340c10f191461030657806342966c681461031957806349bd5a5e1461032c57600080fd5b8063313ce567146102ab57806336568abe146102ba57806339509351146102cd5780633aa633aa146102e057600080fd5b80631ab99e12116101c35780631ab99e121461025757806323b872dd14610260578063248a9ca3146102735780632f2ff15d1461029657600080fd5b806301ffc9a7146101f557806306fdde031461021d578063095ea7b31461023257806318160ddd14610245575b600080fd5b61020861020336600461169f565b61045d565b60405190151581526020015b60405180910390f35b610225610494565b604051610214919061173e565b6102086102403660046115f0565b610526565b6003545b604051908152602001610214565b61024960085481565b61020861026e3660046115b4565b61053e565b610249610281366004611663565b60009081526006602052604090206001015490565b6102a96102a436600461167c565b610562565b005b60405160128152602001610214565b6102a96102c836600461167c565b61058c565b6102086102db3660046115f0565b61060f565b6102a96102ee36600461161a565b610631565b6102a9610301366004611566565b6106c9565b6102a96103143660046115f0565b610734565b6102a9610327366004611663565b6107f8565b60095461033f906001600160a01b031681565b6040516001600160a01b039091168152602001610214565b6102a9610365366004611566565b61083a565b610249610378366004611566565b6108a5565b6102a96108c0565b60095461020890600160a01b900460ff1681565b61024960075481565b6000546001600160a01b031661033f565b6102086103c136600461167c565b6108d4565b6102256108ff565b610249600081565b6102086103e43660046115f0565b61090e565b6102086103f73660046115f0565b610989565b6102a961040a366004611566565b610997565b61024960008051602061186983398151915281565b6102a961043236600461167c565b6109fe565b610249610445366004611581565b610a23565b6102a9610458366004611566565b610a4e565b60006001600160e01b03198216637965db0b60e01b148061048e57506301ffc9a760e01b6001600160e01b03198316145b92915050565b6060600480546104a3906117eb565b80601f01602080910402602001604051908101604052809291908181526020018280546104cf906117eb565b801561051c5780601f106104f15761010080835404028352916020019161051c565b820191906000526020600020905b8154815290600101906020018083116104ff57829003601f168201915b5050505050905090565b600033610534818585610aac565b5060019392505050565b60003361054c858285610bd0565b610557858585610c4a565b506001949350505050565b60008281526006602052604090206001015461057d81610e00565b6105878383610e0a565b505050565b6001600160a01b03811633146106015760405162461bcd60e51b815260206004820152602f60248201527f416363657373436f6e74726f6c3a2063616e206f6e6c792072656e6f756e636560448201526e103937b632b9903337b91039b2b63360891b60648201526084015b60405180910390fd5b61060b8282610e90565b5050565b6000336105348185856106228383610a23565b61062c9190611771565b610aac565b610639610ef7565b600980546001600160a81b031916600160a01b8615159081026001600160a01b031916919091176001600160a01b03861690811790925560078490556008839055604080519182526020820192909252908101839052606081018290527f7fa72628e287e573a9526236ca97cfac9767bdbad4290de9942e95ea027fc4b19060800160405180910390a150505050565b60006106d481610e00565b6001600160a01b03821661071c5760405162461bcd60e51b815260206004820152600f60248201526e125b9d985b1a59081858d8dbdd5b9d608a1b60448201526064016105f8565b61060b60008051602061186983398151915283610562565b60008051602061186983398151915261074c81610e00565b600a548261075960035490565b6107639190611771565b11156107a65760405162461bcd60e51b8152602060048201526012602482015271151bdad95b8818d85c08195e18d95959195960721b60448201526064016105f8565b6107b08383610f51565b826001600160a01b03167f30385c845b448a36257a6a1716e6ad2e1bc2cbe333cde1e69fe849ad6511adfe836040516107eb91815260200190565b60405180910390a2505050565b610802338261101e565b60405181815233907f919f7e2092ffcc9d09f599be18d8152860b0c054df788a33bc549cdd9d0f15b19060200160405180910390a250565b600061084581610e00565b6001600160a01b03821661088d5760405162461bcd60e51b815260206004820152600f60248201526e125b9d985b1a59081858d8dbdd5b9d608a1b60448201526064016105f8565b61060b600080516020611869833981519152836109fe565b6001600160a01b031660009081526001602052604090205490565b6108c8610ef7565b6108d2600061115e565b565b60009182526006602090815260408084206001600160a01b0393909316845291905290205460ff1690565b6060600580546104a3906117eb565b6000338161091c8286610a23565b90508381101561097c5760405162461bcd60e51b815260206004820152602560248201527f45524332303a2064656372656173656420616c6c6f77616e63652062656c6f77604482015264207a65726f60d81b60648201526084016105f8565b6105578286868403610aac565b600033610534818585610c4a565b60006109a281610e00565b6001600160a01b0382166109ec5760405162461bcd60e51b815260206004820152601160248201527024b73b30b634b2103732bb9030b236b4b760791b60448201526064016105f8565b6109f7600083610562565b61060b6000335b600082815260066020526040902060010154610a1981610e00565b6105878383610e90565b6001600160a01b03918216600090815260026020908152604080832093909416825291909152205490565b610a56610ef7565b6001600160a01b038116610aa05760405162461bcd60e51b815260206004820152601160248201527024b73b30b634b2103732bb9037bbb732b960791b60448201526064016105f8565b610aa9816111ae565b50565b6001600160a01b038316610b0e5760405162461bcd60e51b8152602060048201526024808201527f45524332303a20617070726f76652066726f6d20746865207a65726f206164646044820152637265737360e01b60648201526084016105f8565b6001600160a01b038216610b6f5760405162461bcd60e51b815260206004820152602260248201527f45524332303a20617070726f766520746f20746865207a65726f206164647265604482015261737360f01b60648201526084016105f8565b6001600160a01b0383811660008181526002602090815260408083209487168084529482529182902085905590518481527f8c5be1e5ebec7d5bd14f71427d1e84f3dd0314c0f7b2291e5b200ac8c7c3b925910160405180910390a3505050565b6000610bdc8484610a23565b90506000198114610c445781811015610c375760405162461bcd60e51b815260206004820152601d60248201527f45524332303a20696e73756666696369656e7420616c6c6f77616e636500000060448201526064016105f8565b610c448484848403610aac565b50505050565b6001600160a01b038316610cae5760405162461bcd60e51b815260206004820152602560248201527f45524332303a207472616e736665722066726f6d20746865207a65726f206164604482015264647265737360d81b60648201526084016105f8565b6001600160a01b038216610d105760405162461bcd60e51b815260206004820152602360248201527f45524332303a207472616e7366657220746f20746865207a65726f206164647260448201526265737360e81b60648201526084016105f8565b610d1b838383611224565b6001600160a01b03831660009081526001602052604090205481811015610d935760405162461bcd60e51b815260206004820152602660248201527f45524332303a207472616e7366657220616d6f756e7420657863656564732062604482015265616c616e636560d01b60648201526084016105f8565b6001600160a01b0380851660008181526001602052604080822086860390559286168082529083902080548601905591517fddf252ad1be2c89b69c2b068fc378daa952ba7f163c4a11628f55a4df523b3ef90610df39086815260200190565b60405180910390a3610c44565b610aa9813361133c565b610e1482826108d4565b61060b5760008281526006602090815260408083206001600160a01b03851684529091529020805460ff19166001179055610e4c3390565b6001600160a01b0316816001600160a01b0316837f2f8788117e7eff1d82e926ec794901d17c78024a50270940304540a733656f0d60405160405180910390a45050565b610e9a82826108d4565b1561060b5760008281526006602090815260408083206001600160a01b0385168085529252808320805460ff1916905551339285917ff6391f5c32d9c69d2a47ea670b442974b53935d1edc7fd64eb21e047a839171b9190a45050565b6000546001600160a01b031633146108d25760405162461bcd60e51b815260206004820181905260248201527f4f776e61626c653a2063616c6c6572206973206e6f7420746865206f776e657260448201526064016105f8565b6001600160a01b038216610fa75760405162461bcd60e51b815260206004820152601f60248201527f45524332303a206d696e7420746f20746865207a65726f20616464726573730060448201526064016105f8565b610fb360008383611224565b8060036000828254610fc59190611771565b90915550506001600160a01b0382166000818152600160209081526040808320805486019055518481527fddf252ad1be2c89b69c2b068fc378daa952ba7f163c4a11628f55a4df523b3ef910160405180910390a35050565b6001600160a01b03821661107e5760405162461bcd60e51b815260206004820152602160248201527f45524332303a206275726e2066726f6d20746865207a65726f206164647265736044820152607360f81b60648201526084016105f8565b61108a82600083611224565b6001600160a01b038216600090815260016020526040902054818110156110fe5760405162461bcd60e51b815260206004820152602260248201527f45524332303a206275726e20616d6f756e7420657863656564732062616c616e604482015261636560f01b60648201526084016105f8565b6001600160a01b03831660008181526001602090815260408083208686039055600380548790039055518581529192917fddf252ad1be2c89b69c2b068fc378daa952ba7f163c4a11628f55a4df523b3ef910160405180910390a3505050565b600080546001600160a01b038381166001600160a01b0319831681178455604051919092169283917f8be0079c531659141344cd1fd0a4f28419497f9722a3daafe3b4186f6b6457e09190a35050565b6111b6610ef7565b6001600160a01b03811661121b5760405162461bcd60e51b815260206004820152602660248201527f4f776e61626c653a206e6577206f776e657220697320746865207a65726f206160448201526564647265737360d01b60648201526084016105f8565b610aa98161115e565b6009546001600160a01b03166112a2576000546001600160a01b038481169116148061125d57506000546001600160a01b038381169116145b6105875760405162461bcd60e51b81526020600482015260166024820152751d1c98591a5b99c81a5cc81b9bdd081cdd185c9d195960521b60448201526064016105f8565b600954600160a01b900460ff1680156112c857506009546001600160a01b038481169116145b1561058757600754816112da846108a5565b6112e49190611771565b111580156113075750600854816112fa846108a5565b6113049190611771565b10155b6105875760405162461bcd60e51b8152602060048201526006602482015265119bdc989a5960d21b60448201526064016105f8565b61134682826108d4565b61060b5761135381611395565b61135e8360206113a7565b60405160200161136f9291906116c9565b60408051601f198184030181529082905262461bcd60e51b82526105f89160040161173e565b606061048e6001600160a01b03831660145b606060006113b6836002611789565b6113c1906002611771565b67ffffffffffffffff8111156113d9576113d9611852565b6040519080825280601f01601f191660200182016040528015611403576020820181803683370190505b509050600360fc1b8160008151811061141e5761141e61183c565b60200101906001600160f81b031916908160001a905350600f60fb1b8160018151811061144d5761144d61183c565b60200101906001600160f81b031916908160001a9053506000611471846002611789565b61147c906001611771565b90505b60018111156114f4576f181899199a1a9b1b9c1cb0b131b232b360811b85600f16601081106114b0576114b061183c565b1a60f81b8282815181106114c6576114c661183c565b60200101906001600160f81b031916908160001a90535060049490941c936114ed816117d4565b905061147f565b5083156115435760405162461bcd60e51b815260206004820181905260248201527f537472696e67733a20686578206c656e67746820696e73756666696369656e7460448201526064016105f8565b9392505050565b80356001600160a01b038116811461156157600080fd5b919050565b60006020828403121561157857600080fd5b6115438261154a565b6000806040838503121561159457600080fd5b61159d8361154a565b91506115ab6020840161154a565b90509250929050565b6000806000606084860312156115c957600080fd5b6115d28461154a565b92506115e06020850161154a565b9150604084013590509250925092565b6000806040838503121561160357600080fd5b61160c8361154a565b946020939093013593505050565b6000806000806080858703121561163057600080fd5b8435801515811461164057600080fd5b935061164e6020860161154a565b93969395505050506040820135916060013590565b60006020828403121561167557600080fd5b5035919050565b6000806040838503121561168f57600080fd5b823591506115ab6020840161154a565b6000602082840312156116b157600080fd5b81356001600160e01b03198116811461154357600080fd5b7f416363657373436f6e74726f6c3a206163636f756e74200000000000000000008152600083516117018160178501602088016117a8565b7001034b99036b4b9b9b4b733903937b6329607d1b60179184019182015283516117328160288401602088016117a8565b01602801949350505050565b602081526000825180602084015261175d8160408501602087016117a8565b601f01601f19169190910160400192915050565b6000821982111561178457611784611826565b500190565b60008160001904831182151516156117a3576117a3611826565b500290565b60005b838110156117c35781810151838201526020016117ab565b83811115610c445750506000910152565b6000816117e3576117e3611826565b506000190190565b600181811c908216806117ff57607f821691505b6020821081141561182057634e487b7160e01b600052602260045260246000fd5b50919050565b634e487b7160e01b600052601160045260246000fd5b634e487b7160e01b600052603260045260246000fd5b634e487b7160e01b600052604160045260246000fdfe9f2df0fed2c77648de5860a4cc508cd0818c85b8b8a1ab4ceeef8d981c8956a6a2646970667358221220d3d6efeb1455ed9b3d09d6bac5731cf0dd46f9767f4b280159deff77c33ccd6f64736f6c63430008070033",
  "immutableReferences": {},
  "source": "// SPDX-License-Identifier: MIT\npragma solidity ^0.8.0;\n\n// Importing the ERC20, Ownable, and AccessControl contracts from OpenZeppelin\nimport \"@openzeppelin/contracts/token/ERC20/ERC20.sol\";\nimport \"@openzeppelin/contracts/access/Ownable.sol\";\nimport \"@openzeppelin/contracts/access/AccessControl.sol\";\n\n// PepesOfTheGalaxyToken is a custom token that extends the ERC20, Ownable, and AccessControl contracts\ncontract PepesOfTheGalaxyToken is Ownable, ERC20, AccessControl {\n    // Public variables that can be read from outside the contract\n    uint256 public maxHoldingAmount; // The maximum amount of tokens a single address can hold\n    uint256 public minHoldingAmount; // The minimum amount of tokens a single address must hold\n    address public uniswapV2Pair; // The Uniswap v2 pair for this token\n    bool public limited; // Boolean variable to check if token transfers are limited\n    uint256 private tokenCap; // The maximum total supply of the token\n    bytes32 public constant MINTER_ROLE = keccak256(\"MINTER_ROLE\"); // A constant for the minter role\n\n    // Events\n    event RulesSet(bool _limited, address _uniswapV2Pair, uint256 _maxHoldingAmount, uint256 _minHoldingAmount);\n    event Burnt(address indexed account, uint256 value);\n    event Minted(address indexed account, uint256 amount);\n\n    // Constructor function that is called once when the contract is deployed\n    constructor(uint256 _totalSupply, uint256 _tokenCap) ERC20(\"Pepes of the Galaxy\", \"PEPEOG\") {\n        _mint(msg.sender, _totalSupply); // Mint the initial total supply to the contract deployer\n        tokenCap = _tokenCap; // Set the maximum total supply of the token\n        _setupRole(DEFAULT_ADMIN_ROLE, msg.sender); // Assign the default admin role to the contract deployer\n    }\n\n    // Function to set the trading rules for the token\n    function setRule(bool _limited, address _uniswapV2Pair, uint256 _maxHoldingAmount, uint256 _minHoldingAmount) external onlyOwner {\n        limited = _limited; // Set whether token transfers are limited\n        uniswapV2Pair = _uniswapV2Pair; // Set the Uniswap v2 pair for this token\n        maxHoldingAmount = _maxHoldingAmount; // Set the maximum holding amount\n        minHoldingAmount = _minHoldingAmount; // Set the minimum holding amount\n        emit RulesSet(_limited, _uniswapV2Pair, _maxHoldingAmount, _minHoldingAmount); // Emit the RulesSet event\n    }\n\n    // Internal function that is called before any transfer of tokens\n    function _beforeTokenTransfer(address from, address to, uint256 amount) internal virtual override {\n        // If trading is not started, only allow transfers from or to the owner\n        if (uniswapV2Pair == address(0)) {\n            require(from == owner() || to == owner(), \"trading is not started\");\n            return;\n        }\n        // If token transfers are limited and tokens are being bought from Uniswap, check the holding restrictions\n        if (limited && from == uniswapV2Pair) {\n            require(super.balanceOf(to) + amount <= maxHoldingAmount && super.balanceOf(to) + amount >= minHoldingAmount, \"Forbid\");\n        }\n    }\n\n    // Function to burn tokens from the caller's balance\n    function burn(uint256 value) external {\n        _burn(msg.sender, value); // Burn the specified amount of tokens from the caller's balance\n        emit Burnt(msg.sender, value); // Emit the Burnt event\n    }\n\n    // Function to transfer the ownership of the contract\n    function transferOwnership(address newOwner) public override onlyOwner {\n        require(newOwner != address(0), \"Invalid new owner\"); // The new owner's address must not be the zero address\n        super.transferOwnership(newOwner); // Transfer the ownership to the new address\n    }\n\n    // Function to mint new tokens\n    function mint(address account, uint256 amount) external onlyRole(MINTER_ROLE) {\n        require(totalSupply() + amount <= tokenCap, \"Token cap exceeded\"); // The total supply after minting the new tokens must not exceed the token cap\n        _mint(account, amount); // Mint the new tokens to the specified account\n        emit Minted(account, amount); // Emit the Minted event\n    }\n\n    // Function to grant the minter role to an address\n    function grantMinterRole(address account) public onlyRole(DEFAULT_ADMIN_ROLE) {\n        require(account != address(0), \"Invalid account\"); // The account's address must not be the zero address\n        grantRole(MINTER_ROLE, account); // Grant the minter role to the new account\n    }\n\n    // Function to revoke the minter role from an address\n    function revokeMinterRole(address account) public onlyRole(DEFAULT_ADMIN_ROLE) {\n        require(account != address(0), \"Invalid account\"); // The account's address must not be the zero address\n        revokeRole(MINTER_ROLE, account); // Revoke the minter role from the account\n    }\n\n    // Function to transfer the admin role to a new address\n    function transferAdminRole(address newAdmin) public onlyRole(DEFAULT_ADMIN_ROLE) {\n        require(newAdmin != address(0), \"Invalid new admin\"); // The new admin's address must not be the zero address\n        grantRole(DEFAULT_ADMIN_ROLE, newAdmin); // Grant the admin role to the new admin\n        revokeRole(DEFAULT_ADMIN_ROLE, msg.sender); // Revoke the admin role from the current admin\n    }\n}\n",
  "sourcePath": "/Users/brendanplayford/token/contracts/PepesOfTheGalaxyToken.sol",
  "compiler": {
    "name": "solc",
    "version": "0.8.7+commit.e28d00a7.Emscripten.clang"
  },
  "schemaVersion": "3.4.14",
  "updatedAt": "2023-06-04T07:44:20.469Z",
  "networkType": "ethereum",
  "devdoc": {
    "kind": "dev",
    "methods": {
      "allowance(address,address)": {
        "details": "See {IERC20-allowance}."
      },
      "approve(address,uint256)": {
        "details": "See {IERC20-approve}. NOTE: If `amount` is the maximum `uint256`, the allowance is not updated on `transferFrom`. This is semantically equivalent to an infinite approval. Requirements: - `spender` cannot be the zero address."
      },
      "balanceOf(address)": {
        "details": "See {IERC20-balanceOf}."
      },
      "decimals()": {
        "details": "Returns the number of decimals used to get its user representation. For example, if `decimals` equals `2`, a balance of `505` tokens should be displayed to a user as `5.05` (`505 / 10 ** 2`). Tokens usually opt for a value of 18, imitating the relationship between Ether and Wei. This is the default value returned by this function, unless it's overridden. NOTE: This information is only used for _display_ purposes: it in no way affects any of the arithmetic of the contract, including {IERC20-balanceOf} and {IERC20-transfer}."
      },
      "decreaseAllowance(address,uint256)": {
        "details": "Atomically decreases the allowance granted to `spender` by the caller. This is an alternative to {approve} that can be used as a mitigation for problems described in {IERC20-approve}. Emits an {Approval} event indicating the updated allowance. Requirements: - `spender` cannot be the zero address. - `spender` must have allowance for the caller of at least `subtractedValue`."
      },
      "getRoleAdmin(bytes32)": {
        "details": "Returns the admin role that controls `role`. See {grantRole} and {revokeRole}. To change a role's admin, use {_setRoleAdmin}."
      },
      "grantRole(bytes32,address)": {
        "details": "Grants `role` to `account`. If `account` had not been already granted `role`, emits a {RoleGranted} event. Requirements: - the caller must have ``role``'s admin role. May emit a {RoleGranted} event."
      },
      "hasRole(bytes32,address)": {
        "details": "Returns `true` if `account` has been granted `role`."
      },
      "increaseAllowance(address,uint256)": {
        "details": "Atomically increases the allowance granted to `spender` by the caller. This is an alternative to {approve} that can be used as a mitigation for problems described in {IERC20-approve}. Emits an {Approval} event indicating the updated allowance. Requirements: - `spender` cannot be the zero address."
      },
      "name()": {
        "details": "Returns the name of the token."
      },
      "owner()": {
        "details": "Returns the address of the current owner."
      },
      "renounceOwnership()": {
        "details": "Leaves the contract without owner. It will not be possible to call `onlyOwner` functions. Can only be called by the current owner. NOTE: Renouncing ownership will leave the contract without an owner, thereby disabling any functionality that is only available to the owner."
      },
      "renounceRole(bytes32,address)": {
        "details": "Revokes `role` from the calling account. Roles are often managed via {grantRole} and {revokeRole}: this function's purpose is to provide a mechanism for accounts to lose their privileges if they are compromised (such as when a trusted device is misplaced). If the calling account had been revoked `role`, emits a {RoleRevoked} event. Requirements: - the caller must be `account`. May emit a {RoleRevoked} event."
      },
      "revokeRole(bytes32,address)": {
        "details": "Revokes `role` from `account`. If `account` had been granted `role`, emits a {RoleRevoked} event. Requirements: - the caller must have ``role``'s admin role. May emit a {RoleRevoked} event."
      },
      "supportsInterface(bytes4)": {
        "details": "See {IERC165-supportsInterface}."
      },
      "symbol()": {
        "details": "Returns the symbol of the token, usually a shorter version of the name."
      },
      "totalSupply()": {
        "details": "See {IERC20-totalSupply}."
      },
      "transfer(address,uint256)": {
        "details": "See {IERC20-transfer}. Requirements: - `to` cannot be the zero address. - the caller must have a balance of at least `amount`."
      },
      "transferFrom(address,address,uint256)": {
        "details": "See {IERC20-transferFrom}. Emits an {Approval} event indicating the updated allowance. This is not required by the EIP. See the note at the beginning of {ERC20}. NOTE: Does not update the allowance if the current allowance is the maximum `uint256`. Requirements: - `from` and `to` cannot be the zero address. - `from` must have a balance of at least `amount`. - the caller must have allowance for ``from``'s tokens of at least `amount`."
      },
      "transferOwnership(address)": {
        "details": "Transfers ownership of the contract to a new account (`newOwner`). Can only be called by the current owner."
      }
    },
    "version": 1
  },
  "userdoc": {
    "kind": "user",
    "methods": {},
    "version": 1
  }
}