{
  "contractName": "PepesOfTheGalaxyToken",
  "abi": [
    {
      "inputs": [
        {
          "internalType": "uint256",
          "name": "_totalSupply",
          "type": "uint256"
        }
      ],
      "stateMutability": "nonpayable",
      "type": "constructor"
    },
    {
      "anonymous": false,
      "inputs": [
        {
          "indexed": true,
          "internalType": "address",
          "name": "owner",
          "type": "address"
        },
        {
          "indexed": true,
          "internalType": "address",
          "name": "spender",
          "type": "address"
        },
        {
          "indexed": false,
          "internalType": "uint256",
          "name": "value",
          "type": "uint256"
        }
      ],
      "name": "Approval",
      "type": "event"
    },
    {
      "anonymous": false,
      "inputs": [
        {
          "indexed": true,
          "internalType": "address",
          "name": "previousOwner",
          "type": "address"
        },
        {
          "indexed": true,
          "internalType": "address",
          "name": "newOwner",
          "type": "address"
        }
      ],
      "name": "OwnershipTransferred",
      "type": "event"
    },
    {
      "anonymous": false,
      "inputs": [
        {
          "indexed": false,
          "internalType": "bool",
          "name": "_limited",
          "type": "bool"
        },
        {
          "indexed": false,
          "internalType": "address",
          "name": "_uniswapV2Pair",
          "type": "address"
        },
        {
          "indexed": false,
          "internalType": "uint256",
          "name": "_maxHoldingAmount",
          "type": "uint256"
        },
        {
          "indexed": false,
          "internalType": "uint256",
          "name": "_minHoldingAmount",
          "type": "uint256"
        }
      ],
      "name": "RulesSet",
      "type": "event"
    },
    {
      "anonymous": false,
      "inputs": [
        {
          "indexed": true,
          "internalType": "address",
          "name": "from",
          "type": "address"
        },
        {
          "indexed": true,
          "internalType": "address",
          "name": "to",
          "type": "address"
        },
        {
          "indexed": false,
          "internalType": "uint256",
          "name": "value",
          "type": "uint256"
        }
      ],
      "name": "Transfer",
      "type": "event"
    },
    {
      "inputs": [
        {
          "internalType": "address",
          "name": "owner",
          "type": "address"
        },
        {
          "internalType": "address",
          "name": "spender",
          "type": "address"
        }
      ],
      "name": "allowance",
      "outputs": [
        {
          "internalType": "uint256",
          "name": "",
          "type": "uint256"
        }
      ],
      "stateMutability": "view",
      "type": "function"
    },
    {
      "inputs": [
        {
          "internalType": "address",
          "name": "spender",
          "type": "address"
        },
        {
          "internalType": "uint256",
          "name": "amount",
          "type": "uint256"
        }
      ],
      "name": "approve",
      "outputs": [
        {
          "internalType": "bool",
          "name": "",
          "type": "bool"
        }
      ],
      "stateMutability": "nonpayable",
      "type": "function"
    },
    {
      "inputs": [
        {
          "internalType": "address",
          "name": "account",
          "type": "address"
        }
      ],
      "name": "balanceOf",
      "outputs": [
        {
          "internalType": "uint256",
          "name": "",
          "type": "uint256"
        }
      ],
      "stateMutability": "view",
      "type": "function"
    },
    {
      "inputs": [],
      "name": "decimals",
      "outputs": [
        {
          "internalType": "uint8",
          "name": "",
          "type": "uint8"
        }
      ],
      "stateMutability": "view",
      "type": "function"
    },
    {
      "inputs": [
        {
          "internalType": "address",
          "name": "spender",
          "type": "address"
        },
        {
          "internalType": "uint256",
          "name": "subtractedValue",
          "type": "uint256"
        }
      ],
      "name": "decreaseAllowance",
      "outputs": [
        {
          "internalType": "bool",
          "name": "",
          "type": "bool"
        }
      ],
      "stateMutability": "nonpayable",
      "type": "function"
    },
    {
      "inputs": [
        {
          "internalType": "address",
          "name": "spender",
          "type": "address"
        },
        {
          "internalType": "uint256",
          "name": "addedValue",
          "type": "uint256"
        }
      ],
      "name": "increaseAllowance",
      "outputs": [
        {
          "internalType": "bool",
          "name": "",
          "type": "bool"
        }
      ],
      "stateMutability": "nonpayable",
      "type": "function"
    },
    {
      "inputs": [],
      "name": "limited",
      "outputs": [
        {
          "internalType": "bool",
          "name": "",
          "type": "bool"
        }
      ],
      "stateMutability": "view",
      "type": "function"
    },
    {
      "inputs": [],
      "name": "maxHoldingAmount",
      "outputs": [
        {
          "internalType": "uint256",
          "name": "",
          "type": "uint256"
        }
      ],
      "stateMutability": "view",
      "type": "function"
    },
    {
      "inputs": [],
      "name": "minHoldingAmount",
      "outputs": [
        {
          "internalType": "uint256",
          "name": "",
          "type": "uint256"
        }
      ],
      "stateMutability": "view",
      "type": "function"
    },
    {
      "inputs": [],
      "name": "name",
      "outputs": [
        {
          "internalType": "string",
          "name": "",
          "type": "string"
        }
      ],
      "stateMutability": "view",
      "type": "function"
    },
    {
      "inputs": [],
      "name": "owner",
      "outputs": [
        {
          "internalType": "address",
          "name": "",
          "type": "address"
        }
      ],
      "stateMutability": "view",
      "type": "function"
    },
    {
      "inputs": [],
      "name": "renounceOwnership",
      "outputs": [],
      "stateMutability": "nonpayable",
      "type": "function"
    },
    {
      "inputs": [],
      "name": "symbol",
      "outputs": [
        {
          "internalType": "string",
          "name": "",
          "type": "string"
        }
      ],
      "stateMutability": "view",
      "type": "function"
    },
    {
      "inputs": [],
      "name": "totalSupply",
      "outputs": [
        {
          "internalType": "uint256",
          "name": "",
          "type": "uint256"
        }
      ],
      "stateMutability": "view",
      "type": "function"
    },
    {
      "inputs": [
        {
          "internalType": "address",
          "name": "to",
          "type": "address"
        },
        {
          "internalType": "uint256",
          "name": "amount",
          "type": "uint256"
        }
      ],
      "name": "transfer",
      "outputs": [
        {
          "internalType": "bool",
          "name": "",
          "type": "bool"
        }
      ],
      "stateMutability": "nonpayable",
      "type": "function"
    },
    {
      "inputs": [
        {
          "internalType": "address",
          "name": "from",
          "type": "address"
        },
        {
          "internalType": "address",
          "name": "to",
          "type": "address"
        },
        {
          "internalType": "uint256",
          "name": "amount",
          "type": "uint256"
        }
      ],
      "name": "transferFrom",
      "outputs": [
        {
          "internalType": "bool",
          "name": "",
          "type": "bool"
        }
      ],
      "stateMutability": "nonpayable",
      "type": "function"
    },
    {
      "inputs": [],
      "name": "uniswapV2Pair",
      "outputs": [
        {
          "internalType": "address",
          "name": "",
          "type": "address"
        }
      ],
      "stateMutability": "view",
      "type": "function"
    },
    {
      "inputs": [
        {
          "internalType": "bool",
          "name": "_limited",
          "type": "bool"
        },
        {
          "internalType": "address",
          "name": "_uniswapV2Pair",
          "type": "address"
        },
        {
          "internalType": "uint256",
          "name": "_maxHoldingAmount",
          "type": "uint256"
        },
        {
          "internalType": "uint256",
          "name": "_minHoldingAmount",
          "type": "uint256"
        }
      ],
      "name": "setRule",
      "outputs": [],
      "stateMutability": "nonpayable",
      "type": "function"
    },
    {
      "inputs": [
        {
          "internalType": "address",
          "name": "newOwner",
          "type": "address"
        }
      ],
      "name": "transferOwnership",
      "outputs": [],
      "stateMutability": "nonpayable",
      "type": "function"
    }
  ],
  "bytecode": "0x60806040523480156200001157600080fd5b50604051620012133803806200121383398101604081905262000034916200044c565b6040518060400160405280601381526020017f5065706573206f66207468652047616c6178790000000000000000000000000081525060405180604001604052806006815260200165504550454f4760d01b815250620000a36200009d620000ea60201b60201c565b620000ee565b8151620000b8906004906020850190620003a6565b508051620000ce906005906020840190620003a6565b505050620000e333826200013e60201b60201c565b50620004ca565b3390565b600080546001600160a01b038381166001600160a01b0319831681178455604051919092169283917f8be0079c531659141344cd1fd0a4f28419497f9722a3daafe3b4186f6b6457e09190a35050565b6001600160a01b0382166200019a5760405162461bcd60e51b815260206004820152601f60248201527f45524332303a206d696e7420746f20746865207a65726f20616464726573730060448201526064015b60405180910390fd5b620001a86000838362000215565b8060036000828254620001bc919062000466565b90915550506001600160a01b0382166000818152600160209081526040808320805486019055518481527fddf252ad1be2c89b69c2b068fc378daa952ba7f163c4a11628f55a4df523b3ef910160405180910390a35050565b6008546001600160a01b03166200029e576000546001600160a01b03848116911614806200025057506000546001600160a01b038381169116145b6200029e5760405162461bcd60e51b815260206004820152601660248201527f74726164696e67206973206e6f74207374617274656400000000000000000000604482015260640162000191565b600854600160a01b900460ff168015620002c557506008546001600160a01b038481169116145b15620003865760065481620002e5846200038b60201b6200041c1760201c565b620002f1919062000466565b111580156200032457506007548162000315846200038b60201b6200041c1760201c565b62000321919062000466565b10155b620003865760405162461bcd60e51b815260206004820152602b60248201527f546f6b656e207472616e73666572206578636565647320686f6c64696e67207260448201526a65737472696374696f6e7360a81b606482015260840162000191565b505050565b6001600160a01b031660009081526001602052604090205490565b828054620003b4906200048d565b90600052602060002090601f016020900481019282620003d8576000855562000423565b82601f10620003f357805160ff191683800117855562000423565b8280016001018555821562000423579182015b828111156200042357825182559160200191906001019062000406565b506200043192915062000435565b5090565b5b8082111562000431576000815560010162000436565b6000602082840312156200045f57600080fd5b5051919050565b600082198211156200048857634e487b7160e01b600052601160045260246000fd5b500190565b600181811c90821680620004a257607f821691505b60208210811415620004c457634e487b7160e01b600052602260045260246000fd5b50919050565b610d3980620004da6000396000f3fe608060405234801561001057600080fd5b50600436106101215760003560e01c806370a08231116100ad57806395d89b411161007157806395d89b4114610240578063a457c2d714610248578063a9059cbb1461025b578063dd62ed3e1461026e578063f2fde38b1461028157600080fd5b806370a08231146101f7578063715018a61461020a578063860a32ec1461021257806389f9a1d3146102265780638da5cb5b1461022f57600080fd5b806323b872dd116100f457806323b872dd14610182578063313ce5671461019557806339509351146101a45780633aa633aa146101b757806349bd5a5e146101cc57600080fd5b806306fdde0314610126578063095ea7b31461014457806318160ddd146101675780631ab99e1214610179575b600080fd5b61012e610294565b60405161013b9190610c4d565b60405180910390f35b610157610152366004610bda565b610326565b604051901515815260200161013b565b6003545b60405190815260200161013b565b61016b60075481565b610157610190366004610b9e565b61033e565b6040516012815260200161013b565b6101576101b2366004610bda565b610362565b6101ca6101c5366004610c04565b610384565b005b6008546101df906001600160a01b031681565b6040516001600160a01b03909116815260200161013b565b61016b610205366004610b49565b61041c565b6101ca610437565b60085461015790600160a01b900460ff1681565b61016b60065481565b6000546001600160a01b03166101df565b61012e61044b565b610157610256366004610bda565b61045a565b610157610269366004610bda565b6104da565b61016b61027c366004610b6b565b6104e8565b6101ca61028f366004610b49565b610513565b6060600480546102a390610cc8565b80601f01602080910402602001604051908101604052809291908181526020018280546102cf90610cc8565b801561031c5780601f106102f15761010080835404028352916020019161031c565b820191906000526020600020905b8154815290600101906020018083116102ff57829003601f168201915b5050505050905090565b600033610334818585610571565b5060019392505050565b60003361034c858285610695565b61035785858561070f565b506001949350505050565b60003361033481858561037583836104e8565b61037f9190610ca2565b610571565b61038c6108c5565b600880546001600160a81b031916600160a01b8615159081026001600160a01b031916919091176001600160a01b03861690811790925560068490556007839055604080519182526020820192909252908101839052606081018290527f7fa72628e287e573a9526236ca97cfac9767bdbad4290de9942e95ea027fc4b19060800160405180910390a150505050565b6001600160a01b031660009081526001602052604090205490565b61043f6108c5565b610449600061091f565b565b6060600580546102a390610cc8565b6000338161046882866104e8565b9050838110156104cd5760405162461bcd60e51b815260206004820152602560248201527f45524332303a2064656372656173656420616c6c6f77616e63652062656c6f77604482015264207a65726f60d81b60648201526084015b60405180910390fd5b6103578286868403610571565b60003361033481858561070f565b6001600160a01b03918216600090815260026020908152604080832093909416825291909152205490565b61051b6108c5565b6001600160a01b0381166105655760405162461bcd60e51b815260206004820152601160248201527024b73b30b634b2103732bb9037bbb732b960791b60448201526064016104c4565b61056e8161096f565b50565b6001600160a01b0383166105d35760405162461bcd60e51b8152602060048201526024808201527f45524332303a20617070726f76652066726f6d20746865207a65726f206164646044820152637265737360e01b60648201526084016104c4565b6001600160a01b0382166106345760405162461bcd60e51b815260206004820152602260248201527f45524332303a20617070726f766520746f20746865207a65726f206164647265604482015261737360f01b60648201526084016104c4565b6001600160a01b0383811660008181526002602090815260408083209487168084529482529182902085905590518481527f8c5be1e5ebec7d5bd14f71427d1e84f3dd0314c0f7b2291e5b200ac8c7c3b925910160405180910390a3505050565b60006106a184846104e8565b9050600019811461070957818110156106fc5760405162461bcd60e51b815260206004820152601d60248201527f45524332303a20696e73756666696369656e7420616c6c6f77616e636500000060448201526064016104c4565b6107098484848403610571565b50505050565b6001600160a01b0383166107735760405162461bcd60e51b815260206004820152602560248201527f45524332303a207472616e736665722066726f6d20746865207a65726f206164604482015264647265737360d81b60648201526084016104c4565b6001600160a01b0382166107d55760405162461bcd60e51b815260206004820152602360248201527f45524332303a207472616e7366657220746f20746865207a65726f206164647260448201526265737360e81b60648201526084016104c4565b6107e08383836109e5565b6001600160a01b038316600090815260016020526040902054818110156108585760405162461bcd60e51b815260206004820152602660248201527f45524332303a207472616e7366657220616d6f756e7420657863656564732062604482015265616c616e636560d01b60648201526084016104c4565b6001600160a01b0380851660008181526001602052604080822086860390559286168082529083902080548601905591517fddf252ad1be2c89b69c2b068fc378daa952ba7f163c4a11628f55a4df523b3ef906108b89086815260200190565b60405180910390a3610709565b6000546001600160a01b031633146104495760405162461bcd60e51b815260206004820181905260248201527f4f776e61626c653a2063616c6c6572206973206e6f7420746865206f776e657260448201526064016104c4565b600080546001600160a01b038381166001600160a01b0319831681178455604051919092169283917f8be0079c531659141344cd1fd0a4f28419497f9722a3daafe3b4186f6b6457e09190a35050565b6109776108c5565b6001600160a01b0381166109dc5760405162461bcd60e51b815260206004820152602660248201527f4f776e61626c653a206e6577206f776e657220697320746865207a65726f206160448201526564647265737360d01b60648201526084016104c4565b61056e8161091f565b6008546001600160a01b0316610a63576000546001600160a01b0384811691161480610a1e57506000546001600160a01b038381169116145b610a635760405162461bcd60e51b81526020600482015260166024820152751d1c98591a5b99c81a5cc81b9bdd081cdd185c9d195960521b60448201526064016104c4565b600854600160a01b900460ff168015610a8957506008546001600160a01b038481169116145b15610b285760065481610a9b8461041c565b610aa59190610ca2565b11158015610ac8575060075481610abb8461041c565b610ac59190610ca2565b10155b610b285760405162461bcd60e51b815260206004820152602b60248201527f546f6b656e207472616e73666572206578636565647320686f6c64696e67207260448201526a65737472696374696f6e7360a81b60648201526084016104c4565b505050565b80356001600160a01b0381168114610b4457600080fd5b919050565b600060208284031215610b5b57600080fd5b610b6482610b2d565b9392505050565b60008060408385031215610b7e57600080fd5b610b8783610b2d565b9150610b9560208401610b2d565b90509250929050565b600080600060608486031215610bb357600080fd5b610bbc84610b2d565b9250610bca60208501610b2d565b9150604084013590509250925092565b60008060408385031215610bed57600080fd5b610bf683610b2d565b946020939093013593505050565b60008060008060808587031215610c1a57600080fd5b84358015158114610c2a57600080fd5b9350610c3860208601610b2d565b93969395505050506040820135916060013590565b600060208083528351808285015260005b81811015610c7a57858101830151858201604001528201610c5e565b81811115610c8c576000604083870101525b50601f01601f1916929092016040019392505050565b60008219821115610cc357634e487b7160e01b600052601160045260246000fd5b500190565b600181811c90821680610cdc57607f821691505b60208210811415610cfd57634e487b7160e01b600052602260045260246000fd5b5091905056fea264697066735822122005687c755437b64b7655d6c24799217baaf235552a7d2058428f5ab9312eb21664736f6c63430008070033",
  "immutableReferences": {},
  "source": "// SPDX-License-Identifier: MIT\npragma solidity ^0.8.0;\n\n// Importing the ERC20 and Ownable contracts from OpenZeppelin\nimport \"@openzeppelin/contracts/token/ERC20/ERC20.sol\";\nimport \"@openzeppelin/contracts/access/Ownable.sol\";\n\n// PepesOfTheGalaxyToken is a custom token that extends the ERC20 and Ownable contracts\ncontract PepesOfTheGalaxyToken is Ownable, ERC20 {\n    // Public variables that can be read from outside the contract\n    uint256 public maxHoldingAmount; // The maximum amount of tokens a single address can hold\n    uint256 public minHoldingAmount; // The minimum amount of tokens a single address must hold\n    address public uniswapV2Pair; // The Uniswap v2 pair for this token\n    bool public limited; // Boolean variable to check if token transfers are limited\n\n    // Events\n    event RulesSet(bool _limited, address _uniswapV2Pair, uint256 _maxHoldingAmount, uint256 _minHoldingAmount);\n\n    // Constructor function that is called once when the contract is deployed\n    constructor(uint256 _totalSupply) ERC20(\"Pepes of the Galaxy\", \"PEPEOG\") {\n        _mint(msg.sender, _totalSupply); // Mint the initial total supply to the contract deployer\n    }\n\n    // Function to set the trading rules for the token\n    function setRule(bool _limited, address _uniswapV2Pair, uint256 _maxHoldingAmount, uint256 _minHoldingAmount) external onlyOwner {\n        limited = _limited; // Set whether token transfers are limited\n        uniswapV2Pair = _uniswapV2Pair; // Set the Uniswap v2 pair for this token\n        maxHoldingAmount = _maxHoldingAmount; // Set the maximum holding amount\n        minHoldingAmount = _minHoldingAmount; // Set the minimum holding amount\n        emit RulesSet(_limited, _uniswapV2Pair, _maxHoldingAmount, _minHoldingAmount); // Emit the RulesSet event\n    }\n\n    // Internal function that is called before any transfer of tokens\n    function _beforeTokenTransfer(address from, address to, uint256 amount) internal virtual override {\n        // If trading is not started, only allow transfers from or to the owner\n        if (uniswapV2Pair == address(0)) {\n            require(from == owner() || to == owner(), \"trading is not started\");\n        }\n        // If token transfers are limited and tokens are being bought from Uniswap, check the holding restrictions\n        if (limited && from == uniswapV2Pair) {\n            require(super.balanceOf(to) + amount <= maxHoldingAmount && super.balanceOf(to) + amount >= minHoldingAmount, \"Token transfer exceeds holding restrictions\");\n        }\n    }\n\n    // Function to transfer the ownership of the contract\n    function transferOwnership(address newOwner) public override onlyOwner {\n        require(newOwner != address(0), \"Invalid new owner\"); // The new owner's address must not be the zero address\n        super.transferOwnership(newOwner); // Transfer the ownership to the new address\n    }\n}\n",
  "sourcePath": "/Users/brendanplayford/smart-contracts/contracts/PepesOfTheGalaxyToken.sol",
  "compiler": {
    "name": "solc",
    "version": "0.8.7+commit.e28d00a7.Emscripten.clang"
  },
  "schemaVersion": "3.4.15",
  "updatedAt": "2023-11-06T21:37:35.178Z",
  "devdoc": {
    "kind": "dev",
    "methods": {
      "allowance(address,address)": {
        "details": "See {IERC20-allowance}."
      },
      "approve(address,uint256)": {
        "details": "See {IERC20-approve}. NOTE: If `amount` is the maximum `uint256`, the allowance is not updated on `transferFrom`. This is semantically equivalent to an infinite approval. Requirements: - `spender` cannot be the zero address."
      },
      "balanceOf(address)": {
        "details": "See {IERC20-balanceOf}."
      },
      "decimals()": {
        "details": "Returns the number of decimals used to get its user representation. For example, if `decimals` equals `2`, a balance of `505` tokens should be displayed to a user as `5.05` (`505 / 10 ** 2`). Tokens usually opt for a value of 18, imitating the relationship between Ether and Wei. This is the default value returned by this function, unless it's overridden. NOTE: This information is only used for _display_ purposes: it in no way affects any of the arithmetic of the contract, including {IERC20-balanceOf} and {IERC20-transfer}."
      },
      "decreaseAllowance(address,uint256)": {
        "details": "Atomically decreases the allowance granted to `spender` by the caller. This is an alternative to {approve} that can be used as a mitigation for problems described in {IERC20-approve}. Emits an {Approval} event indicating the updated allowance. Requirements: - `spender` cannot be the zero address. - `spender` must have allowance for the caller of at least `subtractedValue`."
      },
      "increaseAllowance(address,uint256)": {
        "details": "Atomically increases the allowance granted to `spender` by the caller. This is an alternative to {approve} that can be used as a mitigation for problems described in {IERC20-approve}. Emits an {Approval} event indicating the updated allowance. Requirements: - `spender` cannot be the zero address."
      },
      "name()": {
        "details": "Returns the name of the token."
      },
      "owner()": {
        "details": "Returns the address of the current owner."
      },
      "renounceOwnership()": {
        "details": "Leaves the contract without owner. It will not be possible to call `onlyOwner` functions. Can only be called by the current owner. NOTE: Renouncing ownership will leave the contract without an owner, thereby disabling any functionality that is only available to the owner."
      },
      "symbol()": {
        "details": "Returns the symbol of the token, usually a shorter version of the name."
      },
      "totalSupply()": {
        "details": "See {IERC20-totalSupply}."
      },
      "transfer(address,uint256)": {
        "details": "See {IERC20-transfer}. Requirements: - `to` cannot be the zero address. - the caller must have a balance of at least `amount`."
      },
      "transferFrom(address,address,uint256)": {
        "details": "See {IERC20-transferFrom}. Emits an {Approval} event indicating the updated allowance. This is not required by the EIP. See the note at the beginning of {ERC20}. NOTE: Does not update the allowance if the current allowance is the maximum `uint256`. Requirements: - `from` and `to` cannot be the zero address. - `from` must have a balance of at least `amount`. - the caller must have allowance for ``from``'s tokens of at least `amount`."
      },
      "transferOwnership(address)": {
        "details": "Transfers ownership of the contract to a new account (`newOwner`). Can only be called by the current owner."
      }
    },
    "version": 1
  },
  "userdoc": {
    "kind": "user",
    "methods": {},
    "version": 1
  }
}