{
  "_format": "hh-sol-artifact-1",
  "contractName": "PepesOfTheGalaxyBattle",
  "sourceName": "contracts/PepesOfTheGalaxyBattle.sol",
  "abi": [
    {
      "inputs": [
        {
          "internalType": "address",
          "name": "_pepeNFT",
          "type": "address"
        },
        {
          "internalType": "address",
          "name": "_pepeToken",
          "type": "address"
        }
      ],
      "stateMutability": "nonpayable",
      "type": "constructor"
    },
    {
      "anonymous": false,
      "inputs": [
        {
          "indexed": true,
          "internalType": "address",
          "name": "player1",
          "type": "address"
        },
        {
          "indexed": true,
          "internalType": "address",
          "name": "player2",
          "type": "address"
        },
        {
          "indexed": false,
          "internalType": "uint256",
          "name": "pepe1Id",
          "type": "uint256"
        },
        {
          "indexed": false,
          "internalType": "uint256",
          "name": "pepe2Id",
          "type": "uint256"
        },
        {
          "indexed": false,
          "internalType": "uint256",
          "name": "winnerId",
          "type": "uint256"
        }
      ],
      "name": "BattleOutcome",
      "type": "event"
    },
    {
      "anonymous": false,
      "inputs": [
        {
          "indexed": true,
          "internalType": "address",
          "name": "previousOwner",
          "type": "address"
        },
        {
          "indexed": true,
          "internalType": "address",
          "name": "newOwner",
          "type": "address"
        }
      ],
      "name": "OwnershipTransferred",
      "type": "event"
    },
    {
      "anonymous": false,
      "inputs": [
        {
          "indexed": true,
          "internalType": "uint256",
          "name": "pepeId",
          "type": "uint256"
        },
        {
          "indexed": false,
          "internalType": "uint256",
          "name": "amount",
          "type": "uint256"
        },
        {
          "indexed": true,
          "internalType": "address",
          "name": "player",
          "type": "address"
        }
      ],
      "name": "StakedForBattle",
      "type": "event"
    },
    {
      "anonymous": false,
      "inputs": [
        {
          "indexed": true,
          "internalType": "address",
          "name": "from",
          "type": "address"
        },
        {
          "indexed": true,
          "internalType": "address",
          "name": "to",
          "type": "address"
        },
        {
          "indexed": false,
          "internalType": "uint256",
          "name": "amount",
          "type": "uint256"
        }
      ],
      "name": "Transfer",
      "type": "event"
    },
    {
      "inputs": [],
      "name": "battle",
      "outputs": [],
      "stateMutability": "nonpayable",
      "type": "function"
    },
    {
      "inputs": [
        {
          "internalType": "uint256",
          "name": "",
          "type": "uint256"
        }
      ],
      "name": "battleRequests",
      "outputs": [
        {
          "internalType": "uint256",
          "name": "pepeId",
          "type": "uint256"
        },
        {
          "internalType": "uint256",
          "name": "amount",
          "type": "uint256"
        },
        {
          "internalType": "address",
          "name": "player",
          "type": "address"
        }
      ],
      "stateMutability": "view",
      "type": "function"
    },
    {
      "inputs": [],
      "name": "owner",
      "outputs": [
        {
          "internalType": "address",
          "name": "",
          "type": "address"
        }
      ],
      "stateMutability": "view",
      "type": "function"
    },
    {
      "inputs": [],
      "name": "pepeNFT",
      "outputs": [
        {
          "internalType": "contract IPepesOfTheGalaxyNFT",
          "name": "",
          "type": "address"
        }
      ],
      "stateMutability": "view",
      "type": "function"
    },
    {
      "inputs": [],
      "name": "pepeToken",
      "outputs": [
        {
          "internalType": "contract IERC20",
          "name": "",
          "type": "address"
        }
      ],
      "stateMutability": "view",
      "type": "function"
    },
    {
      "inputs": [],
      "name": "renounceOwnership",
      "outputs": [],
      "stateMutability": "nonpayable",
      "type": "function"
    },
    {
      "inputs": [
        {
          "internalType": "uint256",
          "name": "_pepeId",
          "type": "uint256"
        },
        {
          "internalType": "uint256",
          "name": "_amount",
          "type": "uint256"
        }
      ],
      "name": "stake",
      "outputs": [],
      "stateMutability": "nonpayable",
      "type": "function"
    },
    {
      "inputs": [
        {
          "internalType": "address",
          "name": "newOwner",
          "type": "address"
        }
      ],
      "name": "transferOwnership",
      "outputs": [],
      "stateMutability": "nonpayable",
      "type": "function"
    }
  ],
  "bytecode": "0x608060405234801561001057600080fd5b50604051610f38380380610f3883398101604081905261002f916100d5565b61003833610069565b600180546001600160a01b039384166001600160a01b03199182161790915560028054929093169116179055610108565b600080546001600160a01b038381166001600160a01b0319831681178455604051919092169283917f8be0079c531659141344cd1fd0a4f28419497f9722a3daafe3b4186f6b6457e09190a35050565b80516001600160a01b03811681146100d057600080fd5b919050565b600080604083850312156100e857600080fd5b6100f1836100b9565b91506100ff602084016100b9565b90509250929050565b610e21806101176000396000f3fe608060405234801561001057600080fd5b50600436106100885760003560e01c80637b0472f01161005b5780637b0472f0146100e25780638d7c3ec7146100f55780638da5cb5b1461012c578063f2fde38b1461013d57600080fd5b806321cc4c3f1461008d57806344e44545146100bd578063715018a6146100c75780637592fc01146100cf575b600080fd5b6002546100a0906001600160a01b031681565b6040516001600160a01b0390911681526020015b60405180910390f35b6100c5610150565b005b6100c5610925565b6001546100a0906001600160a01b031681565b6100c56100f0366004610cf7565b610939565b610108610103366004610cde565b610b2d565b6040805193845260208401929092526001600160a01b0316908201526060016100b4565b6000546001600160a01b03166100a0565b6100c561014b366004610c8c565b610b69565b610158610be2565b600354600211156101a55760405162461bcd60e51b81526020600482015260126024820152714e6f7420656e6f75676820706c617965727360701b60448201526064015b60405180910390fd5b600060036000815481106101bb576101bb610dd5565b600091825260208083206040805160608101825260039485029092018054835260018082015494840194909452600201546001600160a01b0316908201528254909450811061020c5761020c610dd5565b600091825260208083206040805160608101825260039094029091018054845260018082015493850193909352600201546001600160a01b03908116848301529154865191516351a15cad60e01b815293955084939216916351a15cad9161027a9160040190815260200190565b604080518083038186803b15801561029157600080fd5b505afa1580156102a5573d6000803e3d6000fd5b505050506040513d601f19601f820116820180604052508101906102c99190610d19565b60015485516040516351a15cad60e01b8152600481019190915292945090925060009182916001600160a01b0316906351a15cad90602401604080518083038186803b15801561031857600080fd5b505afa15801561032c573d6000803e3d6000fd5b505050506040513d601f19601f820116820180604052508101906103509190610d19565b60408089015189518951925194965092945060009361039d934293909160200193845260609290921b6bffffffffffffffffffffffff191660208401526034830152605482015260740190565b60408051601f198184030181529190528051602090910120905060006103c4600b83610d87565b90506103d08187610d3d565b95506103dc8185610d3d565b935060006103ea8486610d3d565b6103f48789610d3d565b111561057f5750875160025460408a01516020808b0151908c01516001600160a01b039093169263a9059cbb929161042b91610d3d565b6040516001600160e01b031960e085901b1681526001600160a01b0390921660048301526024820152604401602060405180830381600087803b15801561047157600080fd5b505af1158015610485573d6000803e3d6000fd5b505050506040513d601f19601f820116820180604052508101906104a99190610cbc565b506001548951604051630ba4818b60e31b81526004810191909152600260248201526001600160a01b0390911690635d240c5890604401600060405180830381600087803b1580156104fa57600080fd5b505af115801561050e573d6000803e3d6000fd5b5050600180548b51604051630ba4818b60e31b8152600481019190915260248101929092526001600160a01b03169250635d240c589150604401600060405180830381600087803b15801561056257600080fd5b505af1158015610576573d6000803e3d6000fd5b50505050610700565b50865160025460408901516020808b0151908c01516001600160a01b039093169263a9059cbb92916105b091610d3d565b6040516001600160e01b031960e085901b1681526001600160a01b0390921660048301526024820152604401602060405180830381600087803b1580156105f657600080fd5b505af115801561060a573d6000803e3d6000fd5b505050506040513d601f19601f8201168201806040525081019061062e9190610cbc565b506001548851604051630ba4818b60e31b81526004810191909152600260248201526001600160a01b0390911690635d240c5890604401600060405180830381600087803b15801561067f57600080fd5b505af1158015610693573d6000803e3d6000fd5b5050600180548c51604051630ba4818b60e31b8152600481019190915260248101929092526001600160a01b03169250635d240c589150604401600060405180830381600087803b1580156106e757600080fd5b505af11580156106fb573d6000803e3d6000fd5b505050505b6040808901518a8201518b518b51845191825260208201529283018490526001600160a01b03918216929116907f4a16815524b461e12c89f69d64937b8c12396d885bbc7bdf78e7984d0e7faf5f9060600160405180910390a3600360008154811061076e5761076e610dd5565b60009182526020822060039182020182815560018082019390935560020180546001600160a01b0319169055805490919081106107ad576107ad610dd5565b6000918252602082206003909102018181556001810182905560020180546001600160a01b03191690555b6003546107e790600290610d55565b8110156108825760036107fb826002610d3d565b8154811061080b5761080b610dd5565b90600052602060002090600302016003828154811061082c5761082c610dd5565b60009182526020909120825460039092020190815560018083015490820155600291820154910180546001600160a01b0319166001600160a01b039092169190911790558061087a81610d6c565b9150506107d8565b506003546001101561091a57600380548061089f5761089f610dbf565b60008281526020812060036000199093018381029091018281556001810192909255600290910180546001600160a01b03191690559091558054806108e6576108e6610dbf565b600082815260208120600360001990930192830201818155600181019190915560020180546001600160a01b031916905590555b505050505050505050565b61092d610be2565b6109376000610c3c565b565b6002546040516323b872dd60e01b8152336004820152306024820152604481018390526001600160a01b03909116906323b872dd90606401602060405180830381600087803b15801561098b57600080fd5b505af115801561099f573d6000803e3d6000fd5b505050506040513d601f19601f820116820180604052508101906109c39190610cbc565b610a075760405162461bcd60e51b8152602060048201526015602482015274151bdad95b881d1c985b9cd9995c8819985a5b1959605a1b604482015260640161019c565b610a346040518060600160405280600081526020016000815260200160006001600160a01b031681525090565b82815260208101828152336040808401828152600380546001810182556000829052865191027fc2575a0e9e593c00f959f8c92f12db2869c3395a3b0502d05e2516446f71f85b81019190915593517fc2575a0e9e593c00f959f8c92f12db2869c3395a3b0502d05e2516446f71f85c850155517fc2575a0e9e593c00f959f8c92f12db2869c3395a3b0502d05e2516446f71f85d90930180546001600160a01b03949094166001600160a01b031990941693909317909255905184907f1401a470dfc846f3d1826f7d6d29126526b69a9b09f87599ff058047251b060290610b209086815260200190565b60405180910390a3505050565b60038181548110610b3d57600080fd5b60009182526020909120600390910201805460018201546002909201549092506001600160a01b031683565b610b71610be2565b6001600160a01b038116610bd65760405162461bcd60e51b815260206004820152602660248201527f4f776e61626c653a206e6577206f776e657220697320746865207a65726f206160448201526564647265737360d01b606482015260840161019c565b610bdf81610c3c565b50565b6000546001600160a01b031633146109375760405162461bcd60e51b815260206004820181905260248201527f4f776e61626c653a2063616c6c6572206973206e6f7420746865206f776e6572604482015260640161019c565b600080546001600160a01b038381166001600160a01b0319831681178455604051919092169283917f8be0079c531659141344cd1fd0a4f28419497f9722a3daafe3b4186f6b6457e09190a35050565b600060208284031215610c9e57600080fd5b81356001600160a01b0381168114610cb557600080fd5b9392505050565b600060208284031215610cce57600080fd5b81518015158114610cb557600080fd5b600060208284031215610cf057600080fd5b5035919050565b60008060408385031215610d0a57600080fd5b50508035926020909101359150565b60008060408385031215610d2c57600080fd5b505080516020909101519092909150565b60008219821115610d5057610d50610da9565b500190565b600082821015610d6757610d67610da9565b500390565b6000600019821415610d8057610d80610da9565b5060010190565b600082610da457634e487b7160e01b600052601260045260246000fd5b500690565b634e487b7160e01b600052601160045260246000fd5b634e487b7160e01b600052603160045260246000fd5b634e487b7160e01b600052603260045260246000fdfea26469706673582212201652bdeff777d67dd32628521aa12fb3eb6348577e55eed391a70972b11ef30d64736f6c63430008070033",
  "linkReferences": {},
  "deployedLinkReferences": {}
}