{
  "_format": "hh-sol-artifact-1",
  "contractName": "PepesOfTheGalaxyBattle",
  "sourceName": "contracts/PepesOfTheGalaxyBattle.sol",
  "abi": [
    {
      "inputs": [
        {
          "internalType": "address",
          "name": "_pepeNFT",
          "type": "address"
        },
        {
          "internalType": "address",
          "name": "_pepeToken",
          "type": "address"
        }
      ],
      "stateMutability": "nonpayable",
      "type": "constructor"
    },
    {
      "anonymous": false,
      "inputs": [
        {
          "indexed": true,
          "internalType": "address",
          "name": "player1",
          "type": "address"
        },
        {
          "indexed": true,
          "internalType": "address",
          "name": "player2",
          "type": "address"
        },
        {
          "indexed": false,
          "internalType": "uint256",
          "name": "pepe1Id",
          "type": "uint256"
        },
        {
          "indexed": false,
          "internalType": "uint256",
          "name": "pepe2Id",
          "type": "uint256"
        },
        {
          "indexed": false,
          "internalType": "uint256",
          "name": "winnerId",
          "type": "uint256"
        }
      ],
      "name": "BattleOutcome",
      "type": "event"
    },
    {
      "anonymous": false,
      "inputs": [
        {
          "indexed": true,
          "internalType": "address",
          "name": "previousOwner",
          "type": "address"
        },
        {
          "indexed": true,
          "internalType": "address",
          "name": "newOwner",
          "type": "address"
        }
      ],
      "name": "OwnershipTransferred",
      "type": "event"
    },
    {
      "anonymous": false,
      "inputs": [
        {
          "indexed": true,
          "internalType": "uint256",
          "name": "pepeId",
          "type": "uint256"
        },
        {
          "indexed": false,
          "internalType": "uint256",
          "name": "amount",
          "type": "uint256"
        },
        {
          "indexed": true,
          "internalType": "address",
          "name": "player",
          "type": "address"
        }
      ],
      "name": "StakedForBattle",
      "type": "event"
    },
    {
      "anonymous": false,
      "inputs": [
        {
          "indexed": true,
          "internalType": "address",
          "name": "from",
          "type": "address"
        },
        {
          "indexed": true,
          "internalType": "address",
          "name": "to",
          "type": "address"
        },
        {
          "indexed": false,
          "internalType": "uint256",
          "name": "amount",
          "type": "uint256"
        }
      ],
      "name": "Transfer",
      "type": "event"
    },
    {
      "inputs": [],
      "name": "battle",
      "outputs": [],
      "stateMutability": "nonpayable",
      "type": "function"
    },
    {
      "inputs": [
        {
          "internalType": "uint256",
          "name": "",
          "type": "uint256"
        }
      ],
      "name": "battleRequests",
      "outputs": [
        {
          "internalType": "uint256",
          "name": "pepeId",
          "type": "uint256"
        },
        {
          "internalType": "uint256",
          "name": "amount",
          "type": "uint256"
        },
        {
          "internalType": "address",
          "name": "player",
          "type": "address"
        }
      ],
      "stateMutability": "view",
      "type": "function"
    },
    {
      "inputs": [],
      "name": "numPlayers",
      "outputs": [
        {
          "internalType": "uint256",
          "name": "",
          "type": "uint256"
        }
      ],
      "stateMutability": "view",
      "type": "function"
    },
    {
      "inputs": [],
      "name": "owner",
      "outputs": [
        {
          "internalType": "address",
          "name": "",
          "type": "address"
        }
      ],
      "stateMutability": "view",
      "type": "function"
    },
    {
      "inputs": [],
      "name": "pepeNFT",
      "outputs": [
        {
          "internalType": "contract IPepesOfTheGalaxyNFT",
          "name": "",
          "type": "address"
        }
      ],
      "stateMutability": "view",
      "type": "function"
    },
    {
      "inputs": [],
      "name": "pepeToken",
      "outputs": [
        {
          "internalType": "contract IERC20",
          "name": "",
          "type": "address"
        }
      ],
      "stateMutability": "view",
      "type": "function"
    },
    {
      "inputs": [],
      "name": "renounceOwnership",
      "outputs": [],
      "stateMutability": "nonpayable",
      "type": "function"
    },
    {
      "inputs": [
        {
          "internalType": "uint256",
          "name": "_pepeId",
          "type": "uint256"
        },
        {
          "internalType": "uint256",
          "name": "_amount",
          "type": "uint256"
        }
      ],
      "name": "stake",
      "outputs": [],
      "stateMutability": "nonpayable",
      "type": "function"
    },
    {
      "inputs": [
        {
          "internalType": "address",
          "name": "newOwner",
          "type": "address"
        }
      ],
      "name": "transferOwnership",
      "outputs": [],
      "stateMutability": "nonpayable",
      "type": "function"
    }
  ],
  "bytecode": "0x608060405234801561001057600080fd5b5060405161115538038061115583398101604081905261002f916100d5565b61003833610069565b600180546001600160a01b039384166001600160a01b03199182161790915560028054929093169116179055610108565b600080546001600160a01b038381166001600160a01b0319831681178455604051919092169283917f8be0079c531659141344cd1fd0a4f28419497f9722a3daafe3b4186f6b6457e09190a35050565b80516001600160a01b03811681146100d057600080fd5b919050565b600080604083850312156100e857600080fd5b6100f1836100b9565b91506100ff602084016100b9565b90509250929050565b61103e806101176000396000f3fe608060405234801561001057600080fd5b50600436106100935760003560e01c80637b0472f0116100665780637b0472f0146100ed5780638d7c3ec7146101005780638da5cb5b1461013757806397b2f55614610148578063f2fde38b1461015957600080fd5b806321cc4c3f1461009857806344e44545146100c8578063715018a6146100d25780637592fc01146100da575b600080fd5b6002546100ab906001600160a01b031681565b6040516001600160a01b0390911681526020015b60405180910390f35b6100d061016c565b005b6100d061098f565b6001546100ab906001600160a01b031681565b6100d06100fb366004610f14565b6109a3565b61011361010e366004610ee2565b610d31565b6040805193845260208401929092526001600160a01b0316908201526060016100bf565b6000546001600160a01b03166100ab565b6003546040519081526020016100bf565b6100d0610167366004610e90565b610d6d565b600354600211156101b95760405162461bcd60e51b81526020600482015260126024820152714e6f7420656e6f75676820706c617965727360701b60448201526064015b60405180910390fd5b600060036000815481106101cf576101cf610ff2565b600091825260208083206040805160608101825260039485029092018054835260018082015494840194909452600201546001600160a01b0316908201528254909450811061022057610220610ff2565b60009182526020808320604080516060808201835260039590950290920180548084526001820154848601526002909101546001600160a01b03908116848401819052898401518a5185519081529687019390935285840197909752915192965016927f4a16815524b461e12c89f69d64937b8c12396d885bbc7bdf78e7984d0e7faf5f928290030190a360015482516040516351a15cad60e01b815260009283926001600160a01b03909116916351a15cad916102e49160040190815260200190565b604080518083038186803b1580156102fb57600080fd5b505afa15801561030f573d6000803e3d6000fd5b505050506040513d601f19601f820116820180604052508101906103339190610f36565b60015485516040516351a15cad60e01b8152600481019190915292945090925060009182916001600160a01b0316906351a15cad90602401604080518083038186803b15801561038257600080fd5b505afa158015610396573d6000803e3d6000fd5b505050506040513d601f19601f820116820180604052508101906103ba9190610f36565b604080890151895189519251949650929450600093610407934293909160200193845260609290921b6bffffffffffffffffffffffff191660208401526034830152605482015260740190565b60408051601f1981840301815291905280516020909101209050600061042e600b83610fa4565b905061043a8187610f5a565b95506104468185610f5a565b935060006104548486610f5a565b61045e8789610f5a565b11156105e95750875160025460408a01516020808b0151908c01516001600160a01b039093169263a9059cbb929161049591610f5a565b6040516001600160e01b031960e085901b1681526001600160a01b0390921660048301526024820152604401602060405180830381600087803b1580156104db57600080fd5b505af11580156104ef573d6000803e3d6000fd5b505050506040513d601f19601f820116820180604052508101906105139190610ec0565b506001548951604051630ba4818b60e31b81526004810191909152600260248201526001600160a01b0390911690635d240c5890604401600060405180830381600087803b15801561056457600080fd5b505af1158015610578573d6000803e3d6000fd5b5050600180548b51604051630ba4818b60e31b8152600481019190915260248101929092526001600160a01b03169250635d240c589150604401600060405180830381600087803b1580156105cc57600080fd5b505af11580156105e0573d6000803e3d6000fd5b5050505061076a565b50865160025460408901516020808b0151908c01516001600160a01b039093169263a9059cbb929161061a91610f5a565b6040516001600160e01b031960e085901b1681526001600160a01b0390921660048301526024820152604401602060405180830381600087803b15801561066057600080fd5b505af1158015610674573d6000803e3d6000fd5b505050506040513d601f19601f820116820180604052508101906106989190610ec0565b506001548851604051630ba4818b60e31b81526004810191909152600260248201526001600160a01b0390911690635d240c5890604401600060405180830381600087803b1580156106e957600080fd5b505af11580156106fd573d6000803e3d6000fd5b5050600180548c51604051630ba4818b60e31b8152600481019190915260248101929092526001600160a01b03169250635d240c589150604401600060405180830381600087803b15801561075157600080fd5b505af1158015610765573d6000803e3d6000fd5b505050505b6040808901518a8201518b518b51845191825260208201529283018490526001600160a01b03918216929116907f4a16815524b461e12c89f69d64937b8c12396d885bbc7bdf78e7984d0e7faf5f9060600160405180910390a360036000815481106107d8576107d8610ff2565b60009182526020822060039182020182815560018082019390935560020180546001600160a01b03191690558054909190811061081757610817610ff2565b6000918252602082206003909102018181556001810182905560020180546001600160a01b03191690555b60035461085190600290610f72565b8110156108ec576003610865826002610f5a565b8154811061087557610875610ff2565b90600052602060002090600302016003828154811061089657610896610ff2565b60009182526020909120825460039092020190815560018083015490820155600291820154910180546001600160a01b0319166001600160a01b03909216919091179055806108e481610f89565b915050610842565b506003546001101561098457600380548061090957610909610fdc565b60008281526020812060036000199093018381029091018281556001810192909255600290910180546001600160a01b031916905590915580548061095057610950610fdc565b600082815260208120600360001990930192830201818155600181019190915560020180546001600160a01b031916905590555b505050505050505050565b610997610de6565b6109a16000610e40565b565b6002546040516370a0823160e01b815233600482015282916001600160a01b0316906370a082319060240160206040518083038186803b1580156109e657600080fd5b505afa1580156109fa573d6000803e3d6000fd5b505050506040513d601f19601f82011682018060405250810190610a1e9190610efb565b1015610a635760405162461bcd60e51b8152602060048201526014602482015273496e73756666696369656e742062616c616e636560601b60448201526064016101b0565b600254604051636eb1769f60e11b815233600482015230602482015282916001600160a01b03169063dd62ed3e9060440160206040518083038186803b158015610aac57600080fd5b505afa158015610ac0573d6000803e3d6000fd5b505050506040513d601f19601f82011682018060405250810190610ae49190610efb565b1015610b2b5760405162461bcd60e51b8152602060048201526016602482015275496e73756666696369656e7420616c6c6f77616e636560501b60448201526064016101b0565b6002546040516323b872dd60e01b8152336004820152306024820152604481018390526001600160a01b03909116906323b872dd90606401602060405180830381600087803b158015610b7d57600080fd5b505af1158015610b91573d6000803e3d6000fd5b505050506040513d601f19601f82011682018060405250810190610bb59190610ec0565b610bf95760405162461bcd60e51b8152602060048201526015602482015274151bdad95b881d1c985b9cd9995c8819985a5b1959605a1b60448201526064016101b0565b610c266040518060600160405280600081526020016000815260200160006001600160a01b031681525090565b82815260208101828152336040808401828152600380546001810182556000829052865191027fc2575a0e9e593c00f959f8c92f12db2869c3395a3b0502d05e2516446f71f85b81019190915593517fc2575a0e9e593c00f959f8c92f12db2869c3395a3b0502d05e2516446f71f85c850155517fc2575a0e9e593c00f959f8c92f12db2869c3395a3b0502d05e2516446f71f85d90930180546001600160a01b03949094166001600160a01b031990941693909317909255905184907f1401a470dfc846f3d1826f7d6d29126526b69a9b09f87599ff058047251b060290610d129086815260200190565b60405180910390a3600354600211610d2c57610d2c61016c565b505050565b60038181548110610d4157600080fd5b60009182526020909120600390910201805460018201546002909201549092506001600160a01b031683565b610d75610de6565b6001600160a01b038116610dda5760405162461bcd60e51b815260206004820152602660248201527f4f776e61626c653a206e6577206f776e657220697320746865207a65726f206160448201526564647265737360d01b60648201526084016101b0565b610de381610e40565b50565b6000546001600160a01b031633146109a15760405162461bcd60e51b815260206004820181905260248201527f4f776e61626c653a2063616c6c6572206973206e6f7420746865206f776e657260448201526064016101b0565b600080546001600160a01b038381166001600160a01b0319831681178455604051919092169283917f8be0079c531659141344cd1fd0a4f28419497f9722a3daafe3b4186f6b6457e09190a35050565b600060208284031215610ea257600080fd5b81356001600160a01b0381168114610eb957600080fd5b9392505050565b600060208284031215610ed257600080fd5b81518015158114610eb957600080fd5b600060208284031215610ef457600080fd5b5035919050565b600060208284031215610f0d57600080fd5b5051919050565b60008060408385031215610f2757600080fd5b50508035926020909101359150565b60008060408385031215610f4957600080fd5b505080516020909101519092909150565b60008219821115610f6d57610f6d610fc6565b500190565b600082821015610f8457610f84610fc6565b500390565b6000600019821415610f9d57610f9d610fc6565b5060010190565b600082610fc157634e487b7160e01b600052601260045260246000fd5b500690565b634e487b7160e01b600052601160045260246000fd5b634e487b7160e01b600052603160045260246000fd5b634e487b7160e01b600052603260045260246000fdfea264697066735822122009e71cfb9595d6b6f7cf526b48ef3719ac8c050de94093f5365684242dd1da0c64736f6c63430008070033",
  "linkReferences": {},
  "deployedLinkReferences": {}
}